{
	"contracts/Copy_Swap.sol": {
		"SwapV2": {
			"abi": [
				{
					"inputs": [],
					"stateMutability": "nonpayable",
					"type": "constructor"
				},
				{
					"inputs": [
						{
							"internalType": "bool",
							"name": "_useUniSwapV2",
							"type": "bool"
						},
						{
							"internalType": "address",
							"name": "_quote",
							"type": "address"
						},
						{
							"internalType": "address",
							"name": "_base",
							"type": "address"
						},
						{
							"internalType": "uint256",
							"name": "_amountIn",
							"type": "uint256"
						},
						{
							"internalType": "uint256",
							"name": "_slippage",
							"type": "uint256"
						}
					],
					"name": "executeTrade",
					"outputs": [],
					"stateMutability": "nonpayable",
					"type": "function"
				},
				{
					"inputs": [],
					"name": "owner",
					"outputs": [
						{
							"internalType": "address",
							"name": "",
							"type": "address"
						}
					],
					"stateMutability": "view",
					"type": "function"
				},
				{
					"inputs": [],
					"name": "uFactoryV3",
					"outputs": [
						{
							"internalType": "contract IUniswapV3Factory",
							"name": "",
							"type": "address"
						}
					],
					"stateMutability": "view",
					"type": "function"
				},
				{
					"inputs": [],
					"name": "uRouterV2",
					"outputs": [
						{
							"internalType": "contract IUniswapV2Router02",
							"name": "",
							"type": "address"
						}
					],
					"stateMutability": "view",
					"type": "function"
				},
				{
					"inputs": [],
					"name": "uRouterV3",
					"outputs": [
						{
							"internalType": "contract ISwapRouter",
							"name": "",
							"type": "address"
						}
					],
					"stateMutability": "view",
					"type": "function"
				}
			],
			"devdoc": {
				"kind": "dev",
				"methods": {},
				"version": 1
			},
			"evm": {
				"assembly": "    /* \"contracts/Copy_Swap.sol\":548:3862  contract SwapV2 {... */\n  mstore(0x40, 0x80)\n    /* \"contracts/Copy_Swap.sol\":623:665  0x1F98431c8aD98523631AE4a59f267346ea31F984 */\n  0x1f98431c8ad98523631ae4a59f267346ea31f984\n    /* \"contracts/Copy_Swap.sol\":595:665  address uFactoryV3Address = 0x1F98431c8aD98523631AE4a59f267346ea31F984 */\n  0x00\n  dup1\n  0x0100\n  exp\n  dup2\n  sload\n  dup2\n  0xffffffffffffffffffffffffffffffffffffffff\n  mul\n  not\n  and\n  swap1\n  dup4\n  0xffffffffffffffffffffffffffffffffffffffff\n  and\n  mul\n  or\n  swap1\n  sstore\n  pop\n    /* \"contracts/Copy_Swap.sol\":727:744  uFactoryV3Address */\n  0x00\n  dup1\n  sload\n  swap1\n  0x0100\n  exp\n  swap1\n  div\n  0xffffffffffffffffffffffffffffffffffffffff\n  and\n    /* \"contracts/Copy_Swap.sol\":671:745  IUniswapV3Factory public uFactoryV3 = IUniswapV3Factory(uFactoryV3Address) */\n  0x01\n  exp(0x0100, 0x00)\n  dup2\n  sload\n  dup2\n  0xffffffffffffffffffffffffffffffffffffffff\n  mul\n  not\n  and\n  swap1\n  dup4\n  0xffffffffffffffffffffffffffffffffffffffff\n  and\n  mul\n  or\n  swap1\n  sstore\n  pop\n    /* \"contracts/Copy_Swap.sol\":804:846  0x7a250d5630B4cF539739dF2C5dAcb4c659F2488D */\n  0x7a250d5630b4cf539739df2c5dacb4c659f2488d\n    /* \"contracts/Copy_Swap.sol\":777:846  address uRouterV2Address = 0x7a250d5630B4cF539739dF2C5dAcb4c659F2488D */\n  0x02\n  exp(0x0100, 0x00)\n  dup2\n  sload\n  dup2\n  0xffffffffffffffffffffffffffffffffffffffff\n  mul\n  not\n  and\n  swap1\n  dup4\n  0xffffffffffffffffffffffffffffffffffffffff\n  and\n  mul\n  or\n  swap1\n  sstore\n  pop\n    /* \"contracts/Copy_Swap.sol\":909:925  uRouterV2Address */\n  0x02\n  0x00\n  swap1\n  sload\n  swap1\n  0x0100\n  exp\n  swap1\n  div\n  0xffffffffffffffffffffffffffffffffffffffff\n  and\n    /* \"contracts/Copy_Swap.sol\":852:926  IUniswapV2Router02 public uRouterV2 = IUniswapV2Router02(uRouterV2Address) */\n  0x03\n  exp(0x0100, 0x00)\n  dup2\n  sload\n  dup2\n  0xffffffffffffffffffffffffffffffffffffffff\n  mul\n  not\n  and\n  swap1\n  dup4\n  0xffffffffffffffffffffffffffffffffffffffff\n  and\n  mul\n  or\n  swap1\n  sstore\n  pop\n    /* \"contracts/Copy_Swap.sol\":985:1027  0xE592427A0AEce92De3Edee1F18E0157C05861564 */\n  0xe592427a0aece92de3edee1f18e0157c05861564\n    /* \"contracts/Copy_Swap.sol\":958:1027  address uRouterV3Address = 0xE592427A0AEce92De3Edee1F18E0157C05861564 */\n  0x04\n  exp(0x0100, 0x00)\n  dup2\n  sload\n  dup2\n  0xffffffffffffffffffffffffffffffffffffffff\n  mul\n  not\n  and\n  swap1\n  dup4\n  0xffffffffffffffffffffffffffffffffffffffff\n  and\n  mul\n  or\n  swap1\n  sstore\n  pop\n    /* \"contracts/Copy_Swap.sol\":1076:1092  uRouterV3Address */\n  0x04\n  0x00\n  swap1\n  sload\n  swap1\n  0x0100\n  exp\n  swap1\n  div\n  0xffffffffffffffffffffffffffffffffffffffff\n  and\n    /* \"contracts/Copy_Swap.sol\":1033:1093  ISwapRouter public uRouterV3 = ISwapRouter(uRouterV3Address) */\n  0x05\n  exp(0x0100, 0x00)\n  dup2\n  sload\n  dup2\n  0xffffffffffffffffffffffffffffffffffffffff\n  mul\n  not\n  and\n  swap1\n  dup4\n  0xffffffffffffffffffffffffffffffffffffffff\n  and\n  mul\n  or\n  swap1\n  sstore\n  pop\n    /* \"contracts/Copy_Swap.sol\":1156:1205  constructor() {... */\n  callvalue\n  dup1\n  iszero\n  tag_1\n  jumpi\n  0x00\n  dup1\n  revert\ntag_1:\n  pop\n    /* \"contracts/Copy_Swap.sol\":1188:1198  msg.sender */\n  caller\n    /* \"contracts/Copy_Swap.sol\":1180:1185  owner */\n  0x06\n  0x00\n    /* \"contracts/Copy_Swap.sol\":1180:1198  owner = msg.sender */\n  0x0100\n  exp\n  dup2\n  sload\n  dup2\n  0xffffffffffffffffffffffffffffffffffffffff\n  mul\n  not\n  and\n  swap1\n  dup4\n  0xffffffffffffffffffffffffffffffffffffffff\n  and\n  mul\n  or\n  swap1\n  sstore\n  pop\n    /* \"contracts/Copy_Swap.sol\":548:3862  contract SwapV2 {... */\n  dataSize(sub_0)\n  dup1\n  dataOffset(sub_0)\n  0x00\n  codecopy\n  0x00\n  return\nstop\n\nsub_0: assembly {\n        /* \"contracts/Copy_Swap.sol\":548:3862  contract SwapV2 {... */\n      mstore(0x40, 0x80)\n      callvalue\n      dup1\n      iszero\n      tag_1\n      jumpi\n      0x00\n      dup1\n      revert\n    tag_1:\n      pop\n      jumpi(tag_2, lt(calldatasize, 0x04))\n      shr(0xe0, calldataload(0x00))\n      dup1\n      0x323a415a\n      eq\n      tag_3\n      jumpi\n      dup1\n      0x3327906a\n      eq\n      tag_4\n      jumpi\n      dup1\n      0x8da5cb5b\n      eq\n      tag_5\n      jumpi\n      dup1\n      0x93c820a1\n      eq\n      tag_6\n      jumpi\n      dup1\n      0xf625288e\n      eq\n      tag_7\n      jumpi\n    tag_2:\n      0x00\n      dup1\n      revert\n        /* \"contracts/Copy_Swap.sol\":671:745  IUniswapV3Factory public uFactoryV3 = IUniswapV3Factory(uFactoryV3Address) */\n    tag_3:\n      tag_8\n      tag_9\n      jump\t// in\n    tag_8:\n      mload(0x40)\n      tag_10\n      swap2\n      swap1\n      tag_11\n      jump\t// in\n    tag_10:\n      mload(0x40)\n      dup1\n      swap2\n      sub\n      swap1\n      return\n        /* \"contracts/Copy_Swap.sol\":852:926  IUniswapV2Router02 public uRouterV2 = IUniswapV2Router02(uRouterV2Address) */\n    tag_4:\n      tag_12\n      tag_13\n      jump\t// in\n    tag_12:\n      mload(0x40)\n      tag_14\n      swap2\n      swap1\n      tag_15\n      jump\t// in\n    tag_14:\n      mload(0x40)\n      dup1\n      swap2\n      sub\n      swap1\n      return\n        /* \"contracts/Copy_Swap.sol\":1129:1149  address public owner */\n    tag_5:\n      tag_16\n      tag_17\n      jump\t// in\n    tag_16:\n      mload(0x40)\n      tag_18\n      swap2\n      swap1\n      tag_19\n      jump\t// in\n    tag_18:\n      mload(0x40)\n      dup1\n      swap2\n      sub\n      swap1\n      return\n        /* \"contracts/Copy_Swap.sol\":1033:1093  ISwapRouter public uRouterV3 = ISwapRouter(uRouterV3Address) */\n    tag_6:\n      tag_20\n      tag_21\n      jump\t// in\n    tag_20:\n      mload(0x40)\n      tag_22\n      swap2\n      swap1\n      tag_23\n      jump\t// in\n    tag_22:\n      mload(0x40)\n      dup1\n      swap2\n      sub\n      swap1\n      return\n        /* \"contracts/Copy_Swap.sol\":1293:3860  function executeTrade(... */\n    tag_7:\n      tag_24\n      0x04\n      dup1\n      calldatasize\n      sub\n      dup2\n      add\n      swap1\n      tag_25\n      swap2\n      swap1\n      tag_26\n      jump\t// in\n    tag_25:\n      tag_27\n      jump\t// in\n    tag_24:\n      stop\n        /* \"contracts/Copy_Swap.sol\":671:745  IUniswapV3Factory public uFactoryV3 = IUniswapV3Factory(uFactoryV3Address) */\n    tag_9:\n      0x01\n      0x00\n      swap1\n      sload\n      swap1\n      0x0100\n      exp\n      swap1\n      div\n      0xffffffffffffffffffffffffffffffffffffffff\n      and\n      dup2\n      jump\t// out\n        /* \"contracts/Copy_Swap.sol\":852:926  IUniswapV2Router02 public uRouterV2 = IUniswapV2Router02(uRouterV2Address) */\n    tag_13:\n      0x03\n      0x00\n      swap1\n      sload\n      swap1\n      0x0100\n      exp\n      swap1\n      div\n      0xffffffffffffffffffffffffffffffffffffffff\n      and\n      dup2\n      jump\t// out\n        /* \"contracts/Copy_Swap.sol\":1129:1149  address public owner */\n    tag_17:\n      0x06\n      0x00\n      swap1\n      sload\n      swap1\n      0x0100\n      exp\n      swap1\n      div\n      0xffffffffffffffffffffffffffffffffffffffff\n      and\n      dup2\n      jump\t// out\n        /* \"contracts/Copy_Swap.sol\":1033:1093  ISwapRouter public uRouterV3 = ISwapRouter(uRouterV3Address) */\n    tag_21:\n      0x05\n      0x00\n      swap1\n      sload\n      swap1\n      0x0100\n      exp\n      swap1\n      div\n      0xffffffffffffffffffffffffffffffffffffffff\n      and\n      dup2\n      jump\t// out\n        /* \"contracts/Copy_Swap.sol\":1293:3860  function executeTrade(... */\n    tag_27:\n        /* \"contracts/Copy_Swap.sol\":1497:1503  _quote */\n      dup4\n        /* \"contracts/Copy_Swap.sol\":1490:1517  IERC20(_quote).transferFrom */\n      0xffffffffffffffffffffffffffffffffffffffff\n      and\n      0x23b872dd\n        /* \"contracts/Copy_Swap.sol\":1518:1528  msg.sender */\n      caller\n        /* \"contracts/Copy_Swap.sol\":1538:1542  this */\n      address\n        /* \"contracts/Copy_Swap.sol\":1545:1554  _amountIn */\n      dup6\n        /* \"contracts/Copy_Swap.sol\":1490:1555  IERC20(_quote).transferFrom(msg.sender, address(this), _amountIn) */\n      mload(0x40)\n      dup5\n      0xffffffff\n      and\n      0xe0\n      shl\n      dup2\n      mstore\n      0x04\n      add\n      tag_29\n      swap4\n      swap3\n      swap2\n      swap1\n      tag_30\n      jump\t// in\n    tag_29:\n      0x20\n      mload(0x40)\n      dup1\n      dup4\n      sub\n      dup2\n      0x00\n      dup8\n      gas\n      call\n      iszero\n      dup1\n      iszero\n      tag_32\n      jumpi\n      returndatasize\n      0x00\n      dup1\n      returndatacopy\n      revert(0x00, returndatasize)\n    tag_32:\n      pop\n      pop\n      pop\n      pop\n      mload(0x40)\n      returndatasize\n      not(0x1f)\n      0x1f\n      dup3\n      add\n      and\n      dup3\n      add\n      dup1\n      0x40\n      mstore\n      pop\n      dup2\n      add\n      swap1\n      tag_33\n      swap2\n      swap1\n      tag_34\n      jump\t// in\n    tag_33:\n        /* \"contracts/Copy_Swap.sol\":1469:1645  require(... */\n      tag_35\n      jumpi\n      mload(0x40)\n      0x08c379a000000000000000000000000000000000000000000000000000000000\n      dup2\n      mstore\n      0x04\n      add\n      tag_36\n      swap1\n      tag_37\n      jump\t// in\n    tag_36:\n      mload(0x40)\n      dup1\n      swap2\n      sub\n      swap1\n      revert\n    tag_35:\n        /* \"contracts/Copy_Swap.sol\":1656:1678  address[] memory _path */\n      0x00\n        /* \"contracts/Copy_Swap.sol\":1695:1696  2 */\n      0x02\n        /* \"contracts/Copy_Swap.sol\":1681:1697  new address[](2) */\n      0xffffffffffffffff\n      dup2\n      gt\n      iszero\n      tag_38\n      jumpi\n      tag_39\n      tag_40\n      jump\t// in\n    tag_39:\n    tag_38:\n      mload(0x40)\n      swap1\n      dup1\n      dup3\n      mstore\n      dup1\n      0x20\n      mul\n      0x20\n      add\n      dup3\n      add\n      0x40\n      mstore\n      dup1\n      iszero\n      tag_41\n      jumpi\n      dup2\n      0x20\n      add\n      0x20\n      dup3\n      mul\n      dup1\n      calldatasize\n      dup4\n      calldatacopy\n      dup1\n      dup3\n      add\n      swap2\n      pop\n      pop\n      swap1\n      pop\n    tag_41:\n      pop\n        /* \"contracts/Copy_Swap.sol\":1656:1697  address[] memory _path = new address[](2) */\n      swap1\n      pop\n        /* \"contracts/Copy_Swap.sol\":1718:1724  _quote */\n      dup5\n        /* \"contracts/Copy_Swap.sol\":1707:1712  _path */\n      dup2\n        /* \"contracts/Copy_Swap.sol\":1713:1714  0 */\n      0x00\n        /* \"contracts/Copy_Swap.sol\":1707:1715  _path[0] */\n      dup2\n      mload\n      dup2\n      lt\n      tag_42\n      jumpi\n      tag_43\n      tag_44\n      jump\t// in\n    tag_43:\n    tag_42:\n      0x20\n      mul\n      0x20\n      add\n      add\n        /* \"contracts/Copy_Swap.sol\":1707:1724  _path[0] = _quote */\n      swap1\n      0xffffffffffffffffffffffffffffffffffffffff\n      and\n      swap1\n      dup2\n      0xffffffffffffffffffffffffffffffffffffffff\n      and\n      dup2\n      mstore\n      pop\n      pop\n        /* \"contracts/Copy_Swap.sol\":1745:1750  _base */\n      dup4\n        /* \"contracts/Copy_Swap.sol\":1734:1739  _path */\n      dup2\n        /* \"contracts/Copy_Swap.sol\":1740:1741  1 */\n      0x01\n        /* \"contracts/Copy_Swap.sol\":1734:1742  _path[1] */\n      dup2\n      mload\n      dup2\n      lt\n      tag_45\n      jumpi\n      tag_46\n      tag_44\n      jump\t// in\n    tag_46:\n    tag_45:\n      0x20\n      mul\n      0x20\n      add\n      add\n        /* \"contracts/Copy_Swap.sol\":1734:1750  _path[1] = _base */\n      swap1\n      0xffffffffffffffffffffffffffffffffffffffff\n      and\n      swap1\n      dup2\n      0xffffffffffffffffffffffffffffffffffffffff\n      and\n      dup2\n      mstore\n      pop\n      pop\n        /* \"contracts/Copy_Swap.sol\":1765:1778  _useUniSwapV2 */\n      dup6\n        /* \"contracts/Copy_Swap.sol\":1761:3854  if (_useUniSwapV2) {... */\n      iszero\n      tag_47\n      jumpi\n        /* \"contracts/Copy_Swap.sol\":1860:1865  _path */\n      dup1\n        /* \"contracts/Copy_Swap.sol\":1866:1867  0 */\n      0x00\n        /* \"contracts/Copy_Swap.sol\":1860:1868  _path[0] */\n      dup2\n      mload\n      dup2\n      lt\n      tag_48\n      jumpi\n      tag_49\n      tag_44\n      jump\t// in\n    tag_49:\n    tag_48:\n      0x20\n      mul\n      0x20\n      add\n      add\n      mload\n        /* \"contracts/Copy_Swap.sol\":1853:1877  IERC20(_path[0]).approve */\n      0xffffffffffffffffffffffffffffffffffffffff\n      and\n      0x095ea7b3\n        /* \"contracts/Copy_Swap.sol\":1886:1895  uRouterV2 */\n      0x03\n      0x00\n      swap1\n      sload\n      swap1\n      0x0100\n      exp\n      swap1\n      div\n      0xffffffffffffffffffffffffffffffffffffffff\n      and\n        /* \"contracts/Copy_Swap.sol\":1898:1907  _amountIn */\n      dup6\n        /* \"contracts/Copy_Swap.sol\":1853:1908  IERC20(_path[0]).approve(address(uRouterV2), _amountIn) */\n      mload(0x40)\n      dup4\n      0xffffffff\n      and\n      0xe0\n      shl\n      dup2\n      mstore\n      0x04\n      add\n      tag_50\n      swap3\n      swap2\n      swap1\n      tag_51\n      jump\t// in\n    tag_50:\n      0x20\n      mload(0x40)\n      dup1\n      dup4\n      sub\n      dup2\n      0x00\n      dup8\n      gas\n      call\n      iszero\n      dup1\n      iszero\n      tag_53\n      jumpi\n      returndatasize\n      0x00\n      dup1\n      returndatacopy\n      revert(0x00, returndatasize)\n    tag_53:\n      pop\n      pop\n      pop\n      pop\n      mload(0x40)\n      returndatasize\n      not(0x1f)\n      0x1f\n      dup3\n      add\n      and\n      dup3\n      add\n      dup1\n      0x40\n      mstore\n      pop\n      dup2\n      add\n      swap1\n      tag_54\n      swap2\n      swap1\n      tag_34\n      jump\t// in\n    tag_54:\n        /* \"contracts/Copy_Swap.sol\":1828:1968  require(... */\n      tag_55\n      jumpi\n      mload(0x40)\n      0x08c379a000000000000000000000000000000000000000000000000000000000\n      dup2\n      mstore\n      0x04\n      add\n      tag_56\n      swap1\n      tag_57\n      jump\t// in\n    tag_56:\n      mload(0x40)\n      dup1\n      swap2\n      sub\n      swap1\n      revert\n    tag_55:\n        /* \"contracts/Copy_Swap.sol\":1983:2008  uint[] memory _amountsOut */\n      0x00\n        /* \"contracts/Copy_Swap.sol\":2011:2020  uRouterV2 */\n      0x03\n      0x00\n      swap1\n      sload\n      swap1\n      0x0100\n      exp\n      swap1\n      div\n      0xffffffffffffffffffffffffffffffffffffffff\n      and\n        /* \"contracts/Copy_Swap.sol\":2011:2034  uRouterV2.getAmountsOut */\n      0xffffffffffffffffffffffffffffffffffffffff\n      and\n      0xd06ca61f\n        /* \"contracts/Copy_Swap.sol\":2052:2061  _amountIn */\n      dup6\n        /* \"contracts/Copy_Swap.sol\":2079:2084  _path */\n      dup5\n        /* \"contracts/Copy_Swap.sol\":2011:2098  uRouterV2.getAmountsOut(... */\n      mload(0x40)\n      dup4\n      0xffffffff\n      and\n      0xe0\n      shl\n      dup2\n      mstore\n      0x04\n      add\n      tag_58\n      swap3\n      swap2\n      swap1\n      tag_59\n      jump\t// in\n    tag_58:\n      0x00\n      mload(0x40)\n      dup1\n      dup4\n      sub\n      dup2\n      dup7\n      gas\n      staticcall\n      iszero\n      dup1\n      iszero\n      tag_61\n      jumpi\n      returndatasize\n      0x00\n      dup1\n      returndatacopy\n      revert(0x00, returndatasize)\n    tag_61:\n      pop\n      pop\n      pop\n      pop\n      mload(0x40)\n      returndatasize\n      0x00\n      dup3\n      returndatacopy\n      returndatasize\n      not(0x1f)\n      0x1f\n      dup3\n      add\n      and\n      dup3\n      add\n      dup1\n      0x40\n      mstore\n      pop\n      dup2\n      add\n      swap1\n      tag_62\n      swap2\n      swap1\n      tag_63\n      jump\t// in\n    tag_62:\n        /* \"contracts/Copy_Swap.sol\":1983:2098  uint[] memory _amountsOut = uRouterV2.getAmountsOut(... */\n      swap1\n      pop\n        /* \"contracts/Copy_Swap.sol\":2113:2131  uint256 _amountOut */\n      0x00\n        /* \"contracts/Copy_Swap.sol\":2134:2179  SafeMath.mul(_amountsOut[1], 100 - _slippage) */\n      tag_64\n        /* \"contracts/Copy_Swap.sol\":2147:2158  _amountsOut */\n      dup3\n        /* \"contracts/Copy_Swap.sol\":2159:2160  1 */\n      0x01\n        /* \"contracts/Copy_Swap.sol\":2147:2161  _amountsOut[1] */\n      dup2\n      mload\n      dup2\n      lt\n      tag_65\n      jumpi\n      tag_66\n      tag_44\n      jump\t// in\n    tag_66:\n    tag_65:\n      0x20\n      mul\n      0x20\n      add\n      add\n      mload\n        /* \"contracts/Copy_Swap.sol\":2169:2178  _slippage */\n      dup6\n        /* \"contracts/Copy_Swap.sol\":2163:2166  100 */\n      0x64\n        /* \"contracts/Copy_Swap.sol\":2163:2178  100 - _slippage */\n      tag_67\n      swap2\n      swap1\n      tag_68\n      jump\t// in\n    tag_67:\n        /* \"contracts/Copy_Swap.sol\":2134:2146  SafeMath.mul */\n      tag_69\n        /* \"contracts/Copy_Swap.sol\":2134:2179  SafeMath.mul(_amountsOut[1], 100 - _slippage) */\n      jump\t// in\n    tag_64:\n        /* \"contracts/Copy_Swap.sol\":2113:2179  uint256 _amountOut = SafeMath.mul(_amountsOut[1], 100 - _slippage) */\n      swap1\n      pop\n        /* \"contracts/Copy_Swap.sol\":2194:2203  uRouterV2 */\n      0x03\n      0x00\n      swap1\n      sload\n      swap1\n      0x0100\n      exp\n      swap1\n      div\n      0xffffffffffffffffffffffffffffffffffffffff\n      and\n        /* \"contracts/Copy_Swap.sol\":2194:2228  uRouterV2.swapExactTokensForTokens */\n      0xffffffffffffffffffffffffffffffffffffffff\n      and\n      0x38ed1739\n        /* \"contracts/Copy_Swap.sol\":2246:2255  _amountIn */\n      dup7\n        /* \"contracts/Copy_Swap.sol\":2273:2302  SafeMath.div(_amountOut, 100) */\n      tag_70\n        /* \"contracts/Copy_Swap.sol\":2286:2296  _amountOut */\n      dup5\n        /* \"contracts/Copy_Swap.sol\":2298:2301  100 */\n      0x64\n        /* \"contracts/Copy_Swap.sol\":2273:2285  SafeMath.div */\n      tag_71\n        /* \"contracts/Copy_Swap.sol\":2273:2302  SafeMath.div(_amountOut, 100) */\n      jump\t// in\n    tag_70:\n        /* \"contracts/Copy_Swap.sol\":2320:2325  _path */\n      dup7\n        /* \"contracts/Copy_Swap.sol\":2343:2353  msg.sender */\n      caller\n        /* \"contracts/Copy_Swap.sol\":2371:2386  block.timestamp */\n      timestamp\n        /* \"contracts/Copy_Swap.sol\":2194:2400  uRouterV2.swapExactTokensForTokens(... */\n      mload(0x40)\n      dup7\n      0xffffffff\n      and\n      0xe0\n      shl\n      dup2\n      mstore\n      0x04\n      add\n      tag_72\n      swap6\n      swap5\n      swap4\n      swap3\n      swap2\n      swap1\n      tag_73\n      jump\t// in\n    tag_72:\n      0x00\n      mload(0x40)\n      dup1\n      dup4\n      sub\n      dup2\n      0x00\n      dup8\n      gas\n      call\n      iszero\n      dup1\n      iszero\n      tag_75\n      jumpi\n      returndatasize\n      0x00\n      dup1\n      returndatacopy\n      revert(0x00, returndatasize)\n    tag_75:\n      pop\n      pop\n      pop\n      pop\n      mload(0x40)\n      returndatasize\n      0x00\n      dup3\n      returndatacopy\n      returndatasize\n      not(0x1f)\n      0x1f\n      dup3\n      add\n      and\n      dup3\n      add\n      dup1\n      0x40\n      mstore\n      pop\n      dup2\n      add\n      swap1\n      tag_76\n      swap2\n      swap1\n      tag_63\n      jump\t// in\n    tag_76:\n      pop\n        /* \"contracts/Copy_Swap.sol\":1780:2411  {... */\n      pop\n      pop\n        /* \"contracts/Copy_Swap.sol\":1761:3854  if (_useUniSwapV2) {... */\n      jump(tag_77)\n    tag_47:\n        /* \"contracts/Copy_Swap.sol\":2497:2502  _path */\n      dup1\n        /* \"contracts/Copy_Swap.sol\":2503:2504  0 */\n      0x00\n        /* \"contracts/Copy_Swap.sol\":2497:2505  _path[0] */\n      dup2\n      mload\n      dup2\n      lt\n      tag_78\n      jumpi\n      tag_79\n      tag_44\n      jump\t// in\n    tag_79:\n    tag_78:\n      0x20\n      mul\n      0x20\n      add\n      add\n      mload\n        /* \"contracts/Copy_Swap.sol\":2490:2514  IERC20(_path[0]).approve */\n      0xffffffffffffffffffffffffffffffffffffffff\n      and\n      0x095ea7b3\n        /* \"contracts/Copy_Swap.sol\":2523:2532  uRouterV3 */\n      0x05\n      0x00\n      swap1\n      sload\n      swap1\n      0x0100\n      exp\n      swap1\n      div\n      0xffffffffffffffffffffffffffffffffffffffff\n      and\n        /* \"contracts/Copy_Swap.sol\":2535:2544  _amountIn */\n      dup6\n        /* \"contracts/Copy_Swap.sol\":2490:2545  IERC20(_path[0]).approve(address(uRouterV3), _amountIn) */\n      mload(0x40)\n      dup4\n      0xffffffff\n      and\n      0xe0\n      shl\n      dup2\n      mstore\n      0x04\n      add\n      tag_80\n      swap3\n      swap2\n      swap1\n      tag_51\n      jump\t// in\n    tag_80:\n      0x20\n      mload(0x40)\n      dup1\n      dup4\n      sub\n      dup2\n      0x00\n      dup8\n      gas\n      call\n      iszero\n      dup1\n      iszero\n      tag_82\n      jumpi\n      returndatasize\n      0x00\n      dup1\n      returndatacopy\n      revert(0x00, returndatasize)\n    tag_82:\n      pop\n      pop\n      pop\n      pop\n      mload(0x40)\n      returndatasize\n      not(0x1f)\n      0x1f\n      dup3\n      add\n      and\n      dup3\n      add\n      dup1\n      0x40\n      mstore\n      pop\n      dup2\n      add\n      swap1\n      tag_83\n      swap2\n      swap1\n      tag_34\n      jump\t// in\n    tag_83:\n        /* \"contracts/Copy_Swap.sol\":2465:2605  require(... */\n      tag_84\n      jumpi\n      mload(0x40)\n      0x08c379a000000000000000000000000000000000000000000000000000000000\n      dup2\n      mstore\n      0x04\n      add\n      tag_85\n      swap1\n      tag_86\n      jump\t// in\n    tag_85:\n      mload(0x40)\n      dup1\n      swap2\n      sub\n      swap1\n      revert\n    tag_84:\n        /* \"contracts/Copy_Swap.sol\":2619:2629  uint24 fee */\n      0x00\n        /* \"contracts/Copy_Swap.sol\":2697:2698  0 */\n      dup1\n        /* \"contracts/Copy_Swap.sol\":2646:2699  uFactoryV3.getPool(_quote, _base, 3000) != address(0) */\n      0xffffffffffffffffffffffffffffffffffffffff\n      and\n        /* \"contracts/Copy_Swap.sol\":2646:2656  uFactoryV3 */\n      0x01\n      0x00\n      swap1\n      sload\n      swap1\n      0x0100\n      exp\n      swap1\n      div\n      0xffffffffffffffffffffffffffffffffffffffff\n      and\n        /* \"contracts/Copy_Swap.sol\":2646:2664  uFactoryV3.getPool */\n      0xffffffffffffffffffffffffffffffffffffffff\n      and\n      0x1698ee82\n        /* \"contracts/Copy_Swap.sol\":2665:2671  _quote */\n      dup9\n        /* \"contracts/Copy_Swap.sol\":2673:2678  _base */\n      dup9\n        /* \"contracts/Copy_Swap.sol\":2680:2684  3000 */\n      0x0bb8\n        /* \"contracts/Copy_Swap.sol\":2646:2685  uFactoryV3.getPool(_quote, _base, 3000) */\n      mload(0x40)\n      dup5\n      0xffffffff\n      and\n      0xe0\n      shl\n      dup2\n      mstore\n      0x04\n      add\n      tag_87\n      swap4\n      swap3\n      swap2\n      swap1\n      tag_88\n      jump\t// in\n    tag_87:\n      0x20\n      mload(0x40)\n      dup1\n      dup4\n      sub\n      dup2\n      dup7\n      gas\n      staticcall\n      iszero\n      dup1\n      iszero\n      tag_90\n      jumpi\n      returndatasize\n      0x00\n      dup1\n      returndatacopy\n      revert(0x00, returndatasize)\n    tag_90:\n      pop\n      pop\n      pop\n      pop\n      mload(0x40)\n      returndatasize\n      not(0x1f)\n      0x1f\n      dup3\n      add\n      and\n      dup3\n      add\n      dup1\n      0x40\n      mstore\n      pop\n      dup2\n      add\n      swap1\n      tag_91\n      swap2\n      swap1\n      tag_92\n      jump\t// in\n    tag_91:\n        /* \"contracts/Copy_Swap.sol\":2646:2699  uFactoryV3.getPool(_quote, _base, 3000) != address(0) */\n      0xffffffffffffffffffffffffffffffffffffffff\n      and\n      eq\n        /* \"contracts/Copy_Swap.sol\":2643:3084  if(uFactoryV3.getPool(_quote, _base, 3000) != address(0)) {... */\n      tag_93\n      jumpi\n        /* \"contracts/Copy_Swap.sol\":2725:2729  3000 */\n      0x0bb8\n        /* \"contracts/Copy_Swap.sol\":2719:2729  fee = 3000 */\n      swap1\n      pop\n        /* \"contracts/Copy_Swap.sol\":2643:3084  if(uFactoryV3.getPool(_quote, _base, 3000) != address(0)) {... */\n      jump(tag_94)\n    tag_93:\n        /* \"contracts/Copy_Swap.sol\":2805:2806  0 */\n      0x00\n        /* \"contracts/Copy_Swap.sol\":2753:2807  uFactoryV3.getPool(_quote, _base, 10000) != address(0) */\n      0xffffffffffffffffffffffffffffffffffffffff\n      and\n        /* \"contracts/Copy_Swap.sol\":2753:2763  uFactoryV3 */\n      0x01\n      0x00\n      swap1\n      sload\n      swap1\n      0x0100\n      exp\n      swap1\n      div\n      0xffffffffffffffffffffffffffffffffffffffff\n      and\n        /* \"contracts/Copy_Swap.sol\":2753:2771  uFactoryV3.getPool */\n      0xffffffffffffffffffffffffffffffffffffffff\n      and\n      0x1698ee82\n        /* \"contracts/Copy_Swap.sol\":2772:2778  _quote */\n      dup9\n        /* \"contracts/Copy_Swap.sol\":2780:2785  _base */\n      dup9\n        /* \"contracts/Copy_Swap.sol\":2787:2792  10000 */\n      0x2710\n        /* \"contracts/Copy_Swap.sol\":2753:2793  uFactoryV3.getPool(_quote, _base, 10000) */\n      mload(0x40)\n      dup5\n      0xffffffff\n      and\n      0xe0\n      shl\n      dup2\n      mstore\n      0x04\n      add\n      tag_95\n      swap4\n      swap3\n      swap2\n      swap1\n      tag_96\n      jump\t// in\n    tag_95:\n      0x20\n      mload(0x40)\n      dup1\n      dup4\n      sub\n      dup2\n      dup7\n      gas\n      staticcall\n      iszero\n      dup1\n      iszero\n      tag_98\n      jumpi\n      returndatasize\n      0x00\n      dup1\n      returndatacopy\n      revert(0x00, returndatasize)\n    tag_98:\n      pop\n      pop\n      pop\n      pop\n      mload(0x40)\n      returndatasize\n      not(0x1f)\n      0x1f\n      dup3\n      add\n      and\n      dup3\n      add\n      dup1\n      0x40\n      mstore\n      pop\n      dup2\n      add\n      swap1\n      tag_99\n      swap2\n      swap1\n      tag_92\n      jump\t// in\n    tag_99:\n        /* \"contracts/Copy_Swap.sol\":2753:2807  uFactoryV3.getPool(_quote, _base, 10000) != address(0) */\n      0xffffffffffffffffffffffffffffffffffffffff\n      and\n      eq\n        /* \"contracts/Copy_Swap.sol\":2750:3084  if(uFactoryV3.getPool(_quote, _base, 10000) != address(0)) {... */\n      tag_100\n      jumpi\n        /* \"contracts/Copy_Swap.sol\":2833:2838  10000 */\n      0x2710\n        /* \"contracts/Copy_Swap.sol\":2827:2838  fee = 10000 */\n      swap1\n      pop\n        /* \"contracts/Copy_Swap.sol\":2750:3084  if(uFactoryV3.getPool(_quote, _base, 10000) != address(0)) {... */\n      jump(tag_101)\n    tag_100:\n        /* \"contracts/Copy_Swap.sol\":2912:2913  0 */\n      0x00\n        /* \"contracts/Copy_Swap.sol\":2862:2914  uFactoryV3.getPool(_quote, _base, 500) != address(0) */\n      0xffffffffffffffffffffffffffffffffffffffff\n      and\n        /* \"contracts/Copy_Swap.sol\":2862:2872  uFactoryV3 */\n      0x01\n      0x00\n      swap1\n      sload\n      swap1\n      0x0100\n      exp\n      swap1\n      div\n      0xffffffffffffffffffffffffffffffffffffffff\n      and\n        /* \"contracts/Copy_Swap.sol\":2862:2880  uFactoryV3.getPool */\n      0xffffffffffffffffffffffffffffffffffffffff\n      and\n      0x1698ee82\n        /* \"contracts/Copy_Swap.sol\":2881:2887  _quote */\n      dup9\n        /* \"contracts/Copy_Swap.sol\":2889:2894  _base */\n      dup9\n        /* \"contracts/Copy_Swap.sol\":2896:2899  500 */\n      0x01f4\n        /* \"contracts/Copy_Swap.sol\":2862:2900  uFactoryV3.getPool(_quote, _base, 500) */\n      mload(0x40)\n      dup5\n      0xffffffff\n      and\n      0xe0\n      shl\n      dup2\n      mstore\n      0x04\n      add\n      tag_102\n      swap4\n      swap3\n      swap2\n      swap1\n      tag_103\n      jump\t// in\n    tag_102:\n      0x20\n      mload(0x40)\n      dup1\n      dup4\n      sub\n      dup2\n      dup7\n      gas\n      staticcall\n      iszero\n      dup1\n      iszero\n      tag_105\n      jumpi\n      returndatasize\n      0x00\n      dup1\n      returndatacopy\n      revert(0x00, returndatasize)\n    tag_105:\n      pop\n      pop\n      pop\n      pop\n      mload(0x40)\n      returndatasize\n      not(0x1f)\n      0x1f\n      dup3\n      add\n      and\n      dup3\n      add\n      dup1\n      0x40\n      mstore\n      pop\n      dup2\n      add\n      swap1\n      tag_106\n      swap2\n      swap1\n      tag_92\n      jump\t// in\n    tag_106:\n        /* \"contracts/Copy_Swap.sol\":2862:2914  uFactoryV3.getPool(_quote, _base, 500) != address(0) */\n      0xffffffffffffffffffffffffffffffffffffffff\n      and\n      eq\n        /* \"contracts/Copy_Swap.sol\":2859:3084  if(uFactoryV3.getPool(_quote, _base, 500) != address(0)) {... */\n      tag_107\n      jumpi\n        /* \"contracts/Copy_Swap.sol\":2940:2943  500 */\n      0x01f4\n        /* \"contracts/Copy_Swap.sol\":2934:2943  fee = 500 */\n      swap1\n      pop\n        /* \"contracts/Copy_Swap.sol\":2859:3084  if(uFactoryV3.getPool(_quote, _base, 500) != address(0)) {... */\n      jump(tag_108)\n    tag_107:\n        /* \"contracts/Copy_Swap.sol\":3017:3018  0 */\n      0x00\n        /* \"contracts/Copy_Swap.sol\":2967:3019  uFactoryV3.getPool(_quote, _base, 100) != address(0) */\n      0xffffffffffffffffffffffffffffffffffffffff\n      and\n        /* \"contracts/Copy_Swap.sol\":2967:2977  uFactoryV3 */\n      0x01\n      0x00\n      swap1\n      sload\n      swap1\n      0x0100\n      exp\n      swap1\n      div\n      0xffffffffffffffffffffffffffffffffffffffff\n      and\n        /* \"contracts/Copy_Swap.sol\":2967:2985  uFactoryV3.getPool */\n      0xffffffffffffffffffffffffffffffffffffffff\n      and\n      0x1698ee82\n        /* \"contracts/Copy_Swap.sol\":2986:2992  _quote */\n      dup9\n        /* \"contracts/Copy_Swap.sol\":2994:2999  _base */\n      dup9\n        /* \"contracts/Copy_Swap.sol\":3001:3004  100 */\n      0x64\n        /* \"contracts/Copy_Swap.sol\":2967:3005  uFactoryV3.getPool(_quote, _base, 100) */\n      mload(0x40)\n      dup5\n      0xffffffff\n      and\n      0xe0\n      shl\n      dup2\n      mstore\n      0x04\n      add\n      tag_109\n      swap4\n      swap3\n      swap2\n      swap1\n      tag_110\n      jump\t// in\n    tag_109:\n      0x20\n      mload(0x40)\n      dup1\n      dup4\n      sub\n      dup2\n      dup7\n      gas\n      staticcall\n      iszero\n      dup1\n      iszero\n      tag_112\n      jumpi\n      returndatasize\n      0x00\n      dup1\n      returndatacopy\n      revert(0x00, returndatasize)\n    tag_112:\n      pop\n      pop\n      pop\n      pop\n      mload(0x40)\n      returndatasize\n      not(0x1f)\n      0x1f\n      dup3\n      add\n      and\n      dup3\n      add\n      dup1\n      0x40\n      mstore\n      pop\n      dup2\n      add\n      swap1\n      tag_113\n      swap2\n      swap1\n      tag_92\n      jump\t// in\n    tag_113:\n        /* \"contracts/Copy_Swap.sol\":2967:3019  uFactoryV3.getPool(_quote, _base, 100) != address(0) */\n      0xffffffffffffffffffffffffffffffffffffffff\n      and\n      eq\n        /* \"contracts/Copy_Swap.sol\":2964:3084  if(uFactoryV3.getPool(_quote, _base, 100) != address(0)) {... */\n      tag_114\n      jumpi\n        /* \"contracts/Copy_Swap.sol\":3045:3048  100 */\n      0x64\n        /* \"contracts/Copy_Swap.sol\":3039:3048  fee = 100 */\n      swap1\n      pop\n        /* \"contracts/Copy_Swap.sol\":2964:3084  if(uFactoryV3.getPool(_quote, _base, 100) != address(0)) {... */\n      jump(tag_115)\n    tag_114:\n        /* \"contracts/Copy_Swap.sol\":3077:3081  3000 */\n      0x0bb8\n        /* \"contracts/Copy_Swap.sol\":3071:3081  fee = 3000 */\n      swap1\n      pop\n        /* \"contracts/Copy_Swap.sol\":2964:3084  if(uFactoryV3.getPool(_quote, _base, 100) != address(0)) {... */\n    tag_115:\n        /* \"contracts/Copy_Swap.sol\":2859:3084  if(uFactoryV3.getPool(_quote, _base, 500) != address(0)) {... */\n    tag_108:\n        /* \"contracts/Copy_Swap.sol\":2750:3084  if(uFactoryV3.getPool(_quote, _base, 10000) != address(0)) {... */\n    tag_101:\n        /* \"contracts/Copy_Swap.sol\":2643:3084  if(uFactoryV3.getPool(_quote, _base, 3000) != address(0)) {... */\n    tag_94:\n        /* \"contracts/Copy_Swap.sol\":3098:3146  ISwapRouter.ExactInputSingleParams memory params */\n      0x00\n        /* \"contracts/Copy_Swap.sol\":3149:3795  ISwapRouter... */\n      mload(0x40)\n      dup1\n      0x0100\n      add\n      0x40\n      mstore\n      dup1\n        /* \"contracts/Copy_Swap.sol\":3232:3238  _quote */\n      dup9\n        /* \"contracts/Copy_Swap.sol\":3149:3795  ISwapRouter... */\n      0xffffffffffffffffffffffffffffffffffffffff\n      and\n      dup2\n      mstore\n      0x20\n      add\n        /* \"contracts/Copy_Swap.sol\":3270:3275  _base */\n      dup8\n        /* \"contracts/Copy_Swap.sol\":3149:3795  ISwapRouter... */\n      0xffffffffffffffffffffffffffffffffffffffff\n      and\n      dup2\n      mstore\n      0x20\n      add\n        /* \"contracts/Copy_Swap.sol\":3339:3342  fee */\n      dup4\n        /* \"contracts/Copy_Swap.sol\":3149:3795  ISwapRouter... */\n      0xffffff\n      and\n      dup2\n      mstore\n      0x20\n      add\n        /* \"contracts/Copy_Swap.sol\":3375:3385  msg.sender */\n      caller\n        /* \"contracts/Copy_Swap.sol\":3149:3795  ISwapRouter... */\n      0xffffffffffffffffffffffffffffffffffffffff\n      and\n      dup2\n      mstore\n      0x20\n      add\n        /* \"contracts/Copy_Swap.sol\":3417:3432  block.timestamp */\n      timestamp\n        /* \"contracts/Copy_Swap.sol\":3149:3795  ISwapRouter... */\n      dup2\n      mstore\n      0x20\n      add\n        /* \"contracts/Copy_Swap.sol\":3464:3473  _amountIn */\n      dup7\n        /* \"contracts/Copy_Swap.sol\":3149:3795  ISwapRouter... */\n      dup2\n      mstore\n      0x20\n      add\n        /* \"contracts/Copy_Swap.sol\":3513:3514  0 */\n      0x00\n        /* \"contracts/Copy_Swap.sol\":3149:3795  ISwapRouter... */\n      dup2\n      mstore\n      0x20\n      add\n        /* \"contracts/Copy_Swap.sol\":3775:3776  0 */\n      0x00\n        /* \"contracts/Copy_Swap.sol\":3149:3795  ISwapRouter... */\n      0xffffffffffffffffffffffffffffffffffffffff\n      and\n      dup2\n      mstore\n      pop\n        /* \"contracts/Copy_Swap.sol\":3098:3795  ISwapRouter.ExactInputSingleParams memory params = ISwapRouter... */\n      swap1\n      pop\n        /* \"contracts/Copy_Swap.sol\":3809:3818  uRouterV3 */\n      0x05\n      0x00\n      swap1\n      sload\n      swap1\n      0x0100\n      exp\n      swap1\n      div\n      0xffffffffffffffffffffffffffffffffffffffff\n      and\n        /* \"contracts/Copy_Swap.sol\":3809:3835  uRouterV3.exactInputSingle */\n      0xffffffffffffffffffffffffffffffffffffffff\n      and\n      0x414bf389\n        /* \"contracts/Copy_Swap.sol\":3836:3842  params */\n      dup3\n        /* \"contracts/Copy_Swap.sol\":3809:3843  uRouterV3.exactInputSingle(params) */\n      mload(0x40)\n      dup3\n      0xffffffff\n      and\n      0xe0\n      shl\n      dup2\n      mstore\n      0x04\n      add\n      tag_116\n      swap2\n      swap1\n      tag_117\n      jump\t// in\n    tag_116:\n      0x20\n      mload(0x40)\n      dup1\n      dup4\n      sub\n      dup2\n      0x00\n      dup8\n      gas\n      call\n      iszero\n      dup1\n      iszero\n      tag_119\n      jumpi\n      returndatasize\n      0x00\n      dup1\n      returndatacopy\n      revert(0x00, returndatasize)\n    tag_119:\n      pop\n      pop\n      pop\n      pop\n      mload(0x40)\n      returndatasize\n      not(0x1f)\n      0x1f\n      dup3\n      add\n      and\n      dup3\n      add\n      dup1\n      0x40\n      mstore\n      pop\n      dup2\n      add\n      swap1\n      tag_120\n      swap2\n      swap1\n      tag_121\n      jump\t// in\n    tag_120:\n      pop\n        /* \"contracts/Copy_Swap.sol\":2417:3854  {... */\n      pop\n      pop\n        /* \"contracts/Copy_Swap.sol\":1761:3854  if (_useUniSwapV2) {... */\n    tag_77:\n        /* \"contracts/Copy_Swap.sol\":1459:3860  {... */\n      pop\n        /* \"contracts/Copy_Swap.sol\":1293:3860  function executeTrade(... */\n      pop\n      pop\n      pop\n      pop\n      pop\n      jump\t// out\n        /* \"contracts/lib/SafeMath.sol\":243:438  function mul(uint256 a, uint256 b) internal pure returns (uint256 c) {... */\n    tag_69:\n        /* \"contracts/lib/SafeMath.sol\":301:310  uint256 c */\n      0x00\n        /* \"contracts/lib/SafeMath.sol\":331:332  0 */\n      dup1\n        /* \"contracts/lib/SafeMath.sol\":326:327  a */\n      dup4\n        /* \"contracts/lib/SafeMath.sol\":326:332  a == 0 */\n      eq\n        /* \"contracts/lib/SafeMath.sol\":322:367  if (a == 0) {... */\n      iszero\n      tag_123\n      jumpi\n        /* \"contracts/lib/SafeMath.sol\":355:356  0 */\n      0x00\n        /* \"contracts/lib/SafeMath.sol\":348:356  return 0 */\n      swap1\n      pop\n      jump(tag_122)\n        /* \"contracts/lib/SafeMath.sol\":322:367  if (a == 0) {... */\n    tag_123:\n        /* \"contracts/lib/SafeMath.sol\":384:385  b */\n      dup2\n        /* \"contracts/lib/SafeMath.sol\":380:381  a */\n      dup4\n        /* \"contracts/lib/SafeMath.sol\":380:385  a * b */\n      tag_124\n      swap2\n      swap1\n      tag_125\n      jump\t// in\n    tag_124:\n        /* \"contracts/lib/SafeMath.sol\":376:385  c = a * b */\n      swap1\n      pop\n        /* \"contracts/lib/SafeMath.sol\":411:412  b */\n      dup2\n        /* \"contracts/lib/SafeMath.sol\":406:407  a */\n      dup4\n        /* \"contracts/lib/SafeMath.sol\":402:403  c */\n      dup3\n        /* \"contracts/lib/SafeMath.sol\":402:407  c / a */\n      tag_126\n      swap2\n      swap1\n      tag_127\n      jump\t// in\n    tag_126:\n        /* \"contracts/lib/SafeMath.sol\":402:412  c / a == b */\n      eq\n        /* \"contracts/lib/SafeMath.sol\":395:413  assert(c / a == b) */\n      tag_128\n      jumpi\n      tag_129\n      tag_130\n      jump\t// in\n    tag_129:\n    tag_128:\n        /* \"contracts/lib/SafeMath.sol\":243:438  function mul(uint256 a, uint256 b) internal pure returns (uint256 c) {... */\n    tag_122:\n      swap3\n      swap2\n      pop\n      pop\n      jump\t// out\n        /* \"contracts/lib/SafeMath.sol\":530:820  function div(uint256 a, uint256 b) internal pure returns (uint256) {... */\n    tag_71:\n        /* \"contracts/lib/SafeMath.sol\":588:595  uint256 */\n      0x00\n        /* \"contracts/lib/SafeMath.sol\":812:813  b */\n      dup2\n        /* \"contracts/lib/SafeMath.sol\":808:809  a */\n      dup4\n        /* \"contracts/lib/SafeMath.sol\":808:813  a / b */\n      tag_132\n      swap2\n      swap1\n      tag_127\n      jump\t// in\n    tag_132:\n        /* \"contracts/lib/SafeMath.sol\":801:813  return a / b */\n      swap1\n      pop\n        /* \"contracts/lib/SafeMath.sol\":530:820  function div(uint256 a, uint256 b) internal pure returns (uint256) {... */\n      swap3\n      swap2\n      pop\n      pop\n      jump\t// out\n        /* \"#utility.yul\":7:133   */\n    tag_133:\n        /* \"#utility.yul\":44:51   */\n      0x00\n        /* \"#utility.yul\":84:126   */\n      0xffffffffffffffffffffffffffffffffffffffff\n        /* \"#utility.yul\":77:82   */\n      dup3\n        /* \"#utility.yul\":73:127   */\n      and\n        /* \"#utility.yul\":62:127   */\n      swap1\n      pop\n        /* \"#utility.yul\":7:133   */\n      swap2\n      swap1\n      pop\n      jump\t// out\n        /* \"#utility.yul\":139:199   */\n    tag_134:\n        /* \"#utility.yul\":167:170   */\n      0x00\n        /* \"#utility.yul\":188:193   */\n      dup2\n        /* \"#utility.yul\":181:193   */\n      swap1\n      pop\n        /* \"#utility.yul\":139:199   */\n      swap2\n      swap1\n      pop\n      jump\t// out\n        /* \"#utility.yul\":205:347   */\n    tag_135:\n        /* \"#utility.yul\":255:264   */\n      0x00\n        /* \"#utility.yul\":288:341   */\n      tag_205\n        /* \"#utility.yul\":306:340   */\n      tag_206\n        /* \"#utility.yul\":315:339   */\n      tag_207\n        /* \"#utility.yul\":333:338   */\n      dup5\n        /* \"#utility.yul\":315:339   */\n      tag_133\n      jump\t// in\n    tag_207:\n        /* \"#utility.yul\":306:340   */\n      tag_134\n      jump\t// in\n    tag_206:\n        /* \"#utility.yul\":288:341   */\n      tag_133\n      jump\t// in\n    tag_205:\n        /* \"#utility.yul\":275:341   */\n      swap1\n      pop\n        /* \"#utility.yul\":205:347   */\n      swap2\n      swap1\n      pop\n      jump\t// out\n        /* \"#utility.yul\":353:479   */\n    tag_136:\n        /* \"#utility.yul\":403:412   */\n      0x00\n        /* \"#utility.yul\":436:473   */\n      tag_209\n        /* \"#utility.yul\":467:472   */\n      dup3\n        /* \"#utility.yul\":436:473   */\n      tag_135\n      jump\t// in\n    tag_209:\n        /* \"#utility.yul\":423:473   */\n      swap1\n      pop\n        /* \"#utility.yul\":353:479   */\n      swap2\n      swap1\n      pop\n      jump\t// out\n        /* \"#utility.yul\":485:636   */\n    tag_137:\n        /* \"#utility.yul\":560:569   */\n      0x00\n        /* \"#utility.yul\":593:630   */\n      tag_211\n        /* \"#utility.yul\":624:629   */\n      dup3\n        /* \"#utility.yul\":593:630   */\n      tag_136\n      jump\t// in\n    tag_211:\n        /* \"#utility.yul\":580:630   */\n      swap1\n      pop\n        /* \"#utility.yul\":485:636   */\n      swap2\n      swap1\n      pop\n      jump\t// out\n        /* \"#utility.yul\":642:823   */\n    tag_138:\n        /* \"#utility.yul\":754:816   */\n      tag_213\n        /* \"#utility.yul\":810:815   */\n      dup2\n        /* \"#utility.yul\":754:816   */\n      tag_137\n      jump\t// in\n    tag_213:\n        /* \"#utility.yul\":749:752   */\n      dup3\n        /* \"#utility.yul\":742:817   */\n      mstore\n        /* \"#utility.yul\":642:823   */\n      pop\n      pop\n      jump\t// out\n        /* \"#utility.yul\":829:1101   */\n    tag_11:\n        /* \"#utility.yul\":947:951   */\n      0x00\n        /* \"#utility.yul\":985:987   */\n      0x20\n        /* \"#utility.yul\":974:983   */\n      dup3\n        /* \"#utility.yul\":970:988   */\n      add\n        /* \"#utility.yul\":962:988   */\n      swap1\n      pop\n        /* \"#utility.yul\":998:1094   */\n      tag_215\n        /* \"#utility.yul\":1091:1092   */\n      0x00\n        /* \"#utility.yul\":1080:1089   */\n      dup4\n        /* \"#utility.yul\":1076:1093   */\n      add\n        /* \"#utility.yul\":1067:1073   */\n      dup5\n        /* \"#utility.yul\":998:1094   */\n      tag_138\n      jump\t// in\n    tag_215:\n        /* \"#utility.yul\":829:1101   */\n      swap3\n      swap2\n      pop\n      pop\n      jump\t// out\n        /* \"#utility.yul\":1107:1259   */\n    tag_139:\n        /* \"#utility.yul\":1183:1192   */\n      0x00\n        /* \"#utility.yul\":1216:1253   */\n      tag_217\n        /* \"#utility.yul\":1247:1252   */\n      dup3\n        /* \"#utility.yul\":1216:1253   */\n      tag_136\n      jump\t// in\n    tag_217:\n        /* \"#utility.yul\":1203:1253   */\n      swap1\n      pop\n        /* \"#utility.yul\":1107:1259   */\n      swap2\n      swap1\n      pop\n      jump\t// out\n        /* \"#utility.yul\":1265:1448   */\n    tag_140:\n        /* \"#utility.yul\":1378:1441   */\n      tag_219\n        /* \"#utility.yul\":1435:1440   */\n      dup2\n        /* \"#utility.yul\":1378:1441   */\n      tag_139\n      jump\t// in\n    tag_219:\n        /* \"#utility.yul\":1373:1376   */\n      dup3\n        /* \"#utility.yul\":1366:1442   */\n      mstore\n        /* \"#utility.yul\":1265:1448   */\n      pop\n      pop\n      jump\t// out\n        /* \"#utility.yul\":1454:1728   */\n    tag_15:\n        /* \"#utility.yul\":1573:1577   */\n      0x00\n        /* \"#utility.yul\":1611:1613   */\n      0x20\n        /* \"#utility.yul\":1600:1609   */\n      dup3\n        /* \"#utility.yul\":1596:1614   */\n      add\n        /* \"#utility.yul\":1588:1614   */\n      swap1\n      pop\n        /* \"#utility.yul\":1624:1721   */\n      tag_221\n        /* \"#utility.yul\":1718:1719   */\n      0x00\n        /* \"#utility.yul\":1707:1716   */\n      dup4\n        /* \"#utility.yul\":1703:1720   */\n      add\n        /* \"#utility.yul\":1694:1700   */\n      dup5\n        /* \"#utility.yul\":1624:1721   */\n      tag_140\n      jump\t// in\n    tag_221:\n        /* \"#utility.yul\":1454:1728   */\n      swap3\n      swap2\n      pop\n      pop\n      jump\t// out\n        /* \"#utility.yul\":1734:1830   */\n    tag_141:\n        /* \"#utility.yul\":1771:1778   */\n      0x00\n        /* \"#utility.yul\":1800:1824   */\n      tag_223\n        /* \"#utility.yul\":1818:1823   */\n      dup3\n        /* \"#utility.yul\":1800:1824   */\n      tag_133\n      jump\t// in\n    tag_223:\n        /* \"#utility.yul\":1789:1824   */\n      swap1\n      pop\n        /* \"#utility.yul\":1734:1830   */\n      swap2\n      swap1\n      pop\n      jump\t// out\n        /* \"#utility.yul\":1836:1954   */\n    tag_142:\n        /* \"#utility.yul\":1923:1947   */\n      tag_225\n        /* \"#utility.yul\":1941:1946   */\n      dup2\n        /* \"#utility.yul\":1923:1947   */\n      tag_141\n      jump\t// in\n    tag_225:\n        /* \"#utility.yul\":1918:1921   */\n      dup3\n        /* \"#utility.yul\":1911:1948   */\n      mstore\n        /* \"#utility.yul\":1836:1954   */\n      pop\n      pop\n      jump\t// out\n        /* \"#utility.yul\":1960:2182   */\n    tag_19:\n        /* \"#utility.yul\":2053:2057   */\n      0x00\n        /* \"#utility.yul\":2091:2093   */\n      0x20\n        /* \"#utility.yul\":2080:2089   */\n      dup3\n        /* \"#utility.yul\":2076:2094   */\n      add\n        /* \"#utility.yul\":2068:2094   */\n      swap1\n      pop\n        /* \"#utility.yul\":2104:2175   */\n      tag_227\n        /* \"#utility.yul\":2172:2173   */\n      0x00\n        /* \"#utility.yul\":2161:2170   */\n      dup4\n        /* \"#utility.yul\":2157:2174   */\n      add\n        /* \"#utility.yul\":2148:2154   */\n      dup5\n        /* \"#utility.yul\":2104:2175   */\n      tag_142\n      jump\t// in\n    tag_227:\n        /* \"#utility.yul\":1960:2182   */\n      swap3\n      swap2\n      pop\n      pop\n      jump\t// out\n        /* \"#utility.yul\":2188:2333   */\n    tag_143:\n        /* \"#utility.yul\":2257:2266   */\n      0x00\n        /* \"#utility.yul\":2290:2327   */\n      tag_229\n        /* \"#utility.yul\":2321:2326   */\n      dup3\n        /* \"#utility.yul\":2290:2327   */\n      tag_136\n      jump\t// in\n    tag_229:\n        /* \"#utility.yul\":2277:2327   */\n      swap1\n      pop\n        /* \"#utility.yul\":2188:2333   */\n      swap2\n      swap1\n      pop\n      jump\t// out\n        /* \"#utility.yul\":2339:2508   */\n    tag_144:\n        /* \"#utility.yul\":2445:2501   */\n      tag_231\n        /* \"#utility.yul\":2495:2500   */\n      dup2\n        /* \"#utility.yul\":2445:2501   */\n      tag_143\n      jump\t// in\n    tag_231:\n        /* \"#utility.yul\":2440:2443   */\n      dup3\n        /* \"#utility.yul\":2433:2502   */\n      mstore\n        /* \"#utility.yul\":2339:2508   */\n      pop\n      pop\n      jump\t// out\n        /* \"#utility.yul\":2514:2774   */\n    tag_23:\n        /* \"#utility.yul\":2626:2630   */\n      0x00\n        /* \"#utility.yul\":2664:2666   */\n      0x20\n        /* \"#utility.yul\":2653:2662   */\n      dup3\n        /* \"#utility.yul\":2649:2667   */\n      add\n        /* \"#utility.yul\":2641:2667   */\n      swap1\n      pop\n        /* \"#utility.yul\":2677:2767   */\n      tag_233\n        /* \"#utility.yul\":2764:2765   */\n      0x00\n        /* \"#utility.yul\":2753:2762   */\n      dup4\n        /* \"#utility.yul\":2749:2766   */\n      add\n        /* \"#utility.yul\":2740:2746   */\n      dup5\n        /* \"#utility.yul\":2677:2767   */\n      tag_144\n      jump\t// in\n    tag_233:\n        /* \"#utility.yul\":2514:2774   */\n      swap3\n      swap2\n      pop\n      pop\n      jump\t// out\n        /* \"#utility.yul\":2780:2855   */\n    tag_145:\n        /* \"#utility.yul\":2813:2819   */\n      0x00\n        /* \"#utility.yul\":2846:2848   */\n      0x40\n        /* \"#utility.yul\":2840:2849   */\n      mload\n        /* \"#utility.yul\":2830:2849   */\n      swap1\n      pop\n        /* \"#utility.yul\":2780:2855   */\n      swap1\n      jump\t// out\n        /* \"#utility.yul\":2861:2978   */\n    tag_146:\n        /* \"#utility.yul\":2970:2971   */\n      0x00\n        /* \"#utility.yul\":2967:2968   */\n      dup1\n        /* \"#utility.yul\":2960:2972   */\n      revert\n        /* \"#utility.yul\":2984:3101   */\n    tag_147:\n        /* \"#utility.yul\":3093:3094   */\n      0x00\n        /* \"#utility.yul\":3090:3091   */\n      dup1\n        /* \"#utility.yul\":3083:3095   */\n      revert\n        /* \"#utility.yul\":3107:3197   */\n    tag_148:\n        /* \"#utility.yul\":3141:3148   */\n      0x00\n        /* \"#utility.yul\":3184:3189   */\n      dup2\n        /* \"#utility.yul\":3177:3190   */\n      iszero\n        /* \"#utility.yul\":3170:3191   */\n      iszero\n        /* \"#utility.yul\":3159:3191   */\n      swap1\n      pop\n        /* \"#utility.yul\":3107:3197   */\n      swap2\n      swap1\n      pop\n      jump\t// out\n        /* \"#utility.yul\":3203:3319   */\n    tag_149:\n        /* \"#utility.yul\":3273:3294   */\n      tag_239\n        /* \"#utility.yul\":3288:3293   */\n      dup2\n        /* \"#utility.yul\":3273:3294   */\n      tag_148\n      jump\t// in\n    tag_239:\n        /* \"#utility.yul\":3266:3271   */\n      dup2\n        /* \"#utility.yul\":3263:3295   */\n      eq\n        /* \"#utility.yul\":3253:3313   */\n      tag_240\n      jumpi\n        /* \"#utility.yul\":3309:3310   */\n      0x00\n        /* \"#utility.yul\":3306:3307   */\n      dup1\n        /* \"#utility.yul\":3299:3311   */\n      revert\n        /* \"#utility.yul\":3253:3313   */\n    tag_240:\n        /* \"#utility.yul\":3203:3319   */\n      pop\n      jump\t// out\n        /* \"#utility.yul\":3325:3458   */\n    tag_150:\n        /* \"#utility.yul\":3368:3373   */\n      0x00\n        /* \"#utility.yul\":3406:3412   */\n      dup2\n        /* \"#utility.yul\":3393:3413   */\n      calldataload\n        /* \"#utility.yul\":3384:3413   */\n      swap1\n      pop\n        /* \"#utility.yul\":3422:3452   */\n      tag_242\n        /* \"#utility.yul\":3446:3451   */\n      dup2\n        /* \"#utility.yul\":3422:3452   */\n      tag_149\n      jump\t// in\n    tag_242:\n        /* \"#utility.yul\":3325:3458   */\n      swap3\n      swap2\n      pop\n      pop\n      jump\t// out\n        /* \"#utility.yul\":3464:3586   */\n    tag_151:\n        /* \"#utility.yul\":3537:3561   */\n      tag_244\n        /* \"#utility.yul\":3555:3560   */\n      dup2\n        /* \"#utility.yul\":3537:3561   */\n      tag_141\n      jump\t// in\n    tag_244:\n        /* \"#utility.yul\":3530:3535   */\n      dup2\n        /* \"#utility.yul\":3527:3562   */\n      eq\n        /* \"#utility.yul\":3517:3580   */\n      tag_245\n      jumpi\n        /* \"#utility.yul\":3576:3577   */\n      0x00\n        /* \"#utility.yul\":3573:3574   */\n      dup1\n        /* \"#utility.yul\":3566:3578   */\n      revert\n        /* \"#utility.yul\":3517:3580   */\n    tag_245:\n        /* \"#utility.yul\":3464:3586   */\n      pop\n      jump\t// out\n        /* \"#utility.yul\":3592:3731   */\n    tag_152:\n        /* \"#utility.yul\":3638:3643   */\n      0x00\n        /* \"#utility.yul\":3676:3682   */\n      dup2\n        /* \"#utility.yul\":3663:3683   */\n      calldataload\n        /* \"#utility.yul\":3654:3683   */\n      swap1\n      pop\n        /* \"#utility.yul\":3692:3725   */\n      tag_247\n        /* \"#utility.yul\":3719:3724   */\n      dup2\n        /* \"#utility.yul\":3692:3725   */\n      tag_151\n      jump\t// in\n    tag_247:\n        /* \"#utility.yul\":3592:3731   */\n      swap3\n      swap2\n      pop\n      pop\n      jump\t// out\n        /* \"#utility.yul\":3737:3814   */\n    tag_153:\n        /* \"#utility.yul\":3774:3781   */\n      0x00\n        /* \"#utility.yul\":3803:3808   */\n      dup2\n        /* \"#utility.yul\":3792:3808   */\n      swap1\n      pop\n        /* \"#utility.yul\":3737:3814   */\n      swap2\n      swap1\n      pop\n      jump\t// out\n        /* \"#utility.yul\":3820:3942   */\n    tag_154:\n        /* \"#utility.yul\":3893:3917   */\n      tag_250\n        /* \"#utility.yul\":3911:3916   */\n      dup2\n        /* \"#utility.yul\":3893:3917   */\n      tag_153\n      jump\t// in\n    tag_250:\n        /* \"#utility.yul\":3886:3891   */\n      dup2\n        /* \"#utility.yul\":3883:3918   */\n      eq\n        /* \"#utility.yul\":3873:3936   */\n      tag_251\n      jumpi\n        /* \"#utility.yul\":3932:3933   */\n      0x00\n        /* \"#utility.yul\":3929:3930   */\n      dup1\n        /* \"#utility.yul\":3922:3934   */\n      revert\n        /* \"#utility.yul\":3873:3936   */\n    tag_251:\n        /* \"#utility.yul\":3820:3942   */\n      pop\n      jump\t// out\n        /* \"#utility.yul\":3948:4087   */\n    tag_155:\n        /* \"#utility.yul\":3994:3999   */\n      0x00\n        /* \"#utility.yul\":4032:4038   */\n      dup2\n        /* \"#utility.yul\":4019:4039   */\n      calldataload\n        /* \"#utility.yul\":4010:4039   */\n      swap1\n      pop\n        /* \"#utility.yul\":4048:4081   */\n      tag_253\n        /* \"#utility.yul\":4075:4080   */\n      dup2\n        /* \"#utility.yul\":4048:4081   */\n      tag_154\n      jump\t// in\n    tag_253:\n        /* \"#utility.yul\":3948:4087   */\n      swap3\n      swap2\n      pop\n      pop\n      jump\t// out\n        /* \"#utility.yul\":4093:4998   */\n    tag_26:\n        /* \"#utility.yul\":4185:4191   */\n      0x00\n        /* \"#utility.yul\":4193:4199   */\n      dup1\n        /* \"#utility.yul\":4201:4207   */\n      0x00\n        /* \"#utility.yul\":4209:4215   */\n      dup1\n        /* \"#utility.yul\":4217:4223   */\n      0x00\n        /* \"#utility.yul\":4266:4269   */\n      0xa0\n        /* \"#utility.yul\":4254:4263   */\n      dup7\n        /* \"#utility.yul\":4245:4252   */\n      dup9\n        /* \"#utility.yul\":4241:4264   */\n      sub\n        /* \"#utility.yul\":4237:4270   */\n      slt\n        /* \"#utility.yul\":4234:4354   */\n      iszero\n      tag_255\n      jumpi\n        /* \"#utility.yul\":4273:4352   */\n      tag_256\n      tag_146\n      jump\t// in\n    tag_256:\n        /* \"#utility.yul\":4234:4354   */\n    tag_255:\n        /* \"#utility.yul\":4393:4394   */\n      0x00\n        /* \"#utility.yul\":4418:4468   */\n      tag_257\n        /* \"#utility.yul\":4460:4467   */\n      dup9\n        /* \"#utility.yul\":4451:4457   */\n      dup3\n        /* \"#utility.yul\":4440:4449   */\n      dup10\n        /* \"#utility.yul\":4436:4458   */\n      add\n        /* \"#utility.yul\":4418:4468   */\n      tag_150\n      jump\t// in\n    tag_257:\n        /* \"#utility.yul\":4408:4468   */\n      swap6\n      pop\n        /* \"#utility.yul\":4364:4478   */\n      pop\n        /* \"#utility.yul\":4517:4519   */\n      0x20\n        /* \"#utility.yul\":4543:4596   */\n      tag_258\n        /* \"#utility.yul\":4588:4595   */\n      dup9\n        /* \"#utility.yul\":4579:4585   */\n      dup3\n        /* \"#utility.yul\":4568:4577   */\n      dup10\n        /* \"#utility.yul\":4564:4586   */\n      add\n        /* \"#utility.yul\":4543:4596   */\n      tag_152\n      jump\t// in\n    tag_258:\n        /* \"#utility.yul\":4533:4596   */\n      swap5\n      pop\n        /* \"#utility.yul\":4488:4606   */\n      pop\n        /* \"#utility.yul\":4645:4647   */\n      0x40\n        /* \"#utility.yul\":4671:4724   */\n      tag_259\n        /* \"#utility.yul\":4716:4723   */\n      dup9\n        /* \"#utility.yul\":4707:4713   */\n      dup3\n        /* \"#utility.yul\":4696:4705   */\n      dup10\n        /* \"#utility.yul\":4692:4714   */\n      add\n        /* \"#utility.yul\":4671:4724   */\n      tag_152\n      jump\t// in\n    tag_259:\n        /* \"#utility.yul\":4661:4724   */\n      swap4\n      pop\n        /* \"#utility.yul\":4616:4734   */\n      pop\n        /* \"#utility.yul\":4773:4775   */\n      0x60\n        /* \"#utility.yul\":4799:4852   */\n      tag_260\n        /* \"#utility.yul\":4844:4851   */\n      dup9\n        /* \"#utility.yul\":4835:4841   */\n      dup3\n        /* \"#utility.yul\":4824:4833   */\n      dup10\n        /* \"#utility.yul\":4820:4842   */\n      add\n        /* \"#utility.yul\":4799:4852   */\n      tag_155\n      jump\t// in\n    tag_260:\n        /* \"#utility.yul\":4789:4852   */\n      swap3\n      pop\n        /* \"#utility.yul\":4744:4862   */\n      pop\n        /* \"#utility.yul\":4901:4904   */\n      0x80\n        /* \"#utility.yul\":4928:4981   */\n      tag_261\n        /* \"#utility.yul\":4973:4980   */\n      dup9\n        /* \"#utility.yul\":4964:4970   */\n      dup3\n        /* \"#utility.yul\":4953:4962   */\n      dup10\n        /* \"#utility.yul\":4949:4971   */\n      add\n        /* \"#utility.yul\":4928:4981   */\n      tag_155\n      jump\t// in\n    tag_261:\n        /* \"#utility.yul\":4918:4981   */\n      swap2\n      pop\n        /* \"#utility.yul\":4872:4991   */\n      pop\n        /* \"#utility.yul\":4093:4998   */\n      swap3\n      swap6\n      pop\n      swap3\n      swap6\n      swap1\n      swap4\n      pop\n      jump\t// out\n        /* \"#utility.yul\":5004:5122   */\n    tag_156:\n        /* \"#utility.yul\":5091:5115   */\n      tag_263\n        /* \"#utility.yul\":5109:5114   */\n      dup2\n        /* \"#utility.yul\":5091:5115   */\n      tag_153\n      jump\t// in\n    tag_263:\n        /* \"#utility.yul\":5086:5089   */\n      dup3\n        /* \"#utility.yul\":5079:5116   */\n      mstore\n        /* \"#utility.yul\":5004:5122   */\n      pop\n      pop\n      jump\t// out\n        /* \"#utility.yul\":5128:5570   */\n    tag_30:\n        /* \"#utility.yul\":5277:5281   */\n      0x00\n        /* \"#utility.yul\":5315:5317   */\n      0x60\n        /* \"#utility.yul\":5304:5313   */\n      dup3\n        /* \"#utility.yul\":5300:5318   */\n      add\n        /* \"#utility.yul\":5292:5318   */\n      swap1\n      pop\n        /* \"#utility.yul\":5328:5399   */\n      tag_265\n        /* \"#utility.yul\":5396:5397   */\n      0x00\n        /* \"#utility.yul\":5385:5394   */\n      dup4\n        /* \"#utility.yul\":5381:5398   */\n      add\n        /* \"#utility.yul\":5372:5378   */\n      dup7\n        /* \"#utility.yul\":5328:5399   */\n      tag_142\n      jump\t// in\n    tag_265:\n        /* \"#utility.yul\":5409:5481   */\n      tag_266\n        /* \"#utility.yul\":5477:5479   */\n      0x20\n        /* \"#utility.yul\":5466:5475   */\n      dup4\n        /* \"#utility.yul\":5462:5480   */\n      add\n        /* \"#utility.yul\":5453:5459   */\n      dup6\n        /* \"#utility.yul\":5409:5481   */\n      tag_142\n      jump\t// in\n    tag_266:\n        /* \"#utility.yul\":5491:5563   */\n      tag_267\n        /* \"#utility.yul\":5559:5561   */\n      0x40\n        /* \"#utility.yul\":5548:5557   */\n      dup4\n        /* \"#utility.yul\":5544:5562   */\n      add\n        /* \"#utility.yul\":5535:5541   */\n      dup5\n        /* \"#utility.yul\":5491:5563   */\n      tag_156\n      jump\t// in\n    tag_267:\n        /* \"#utility.yul\":5128:5570   */\n      swap5\n      swap4\n      pop\n      pop\n      pop\n      pop\n      jump\t// out\n        /* \"#utility.yul\":5576:5713   */\n    tag_157:\n        /* \"#utility.yul\":5630:5635   */\n      0x00\n        /* \"#utility.yul\":5661:5667   */\n      dup2\n        /* \"#utility.yul\":5655:5668   */\n      mload\n        /* \"#utility.yul\":5646:5668   */\n      swap1\n      pop\n        /* \"#utility.yul\":5677:5707   */\n      tag_269\n        /* \"#utility.yul\":5701:5706   */\n      dup2\n        /* \"#utility.yul\":5677:5707   */\n      tag_149\n      jump\t// in\n    tag_269:\n        /* \"#utility.yul\":5576:5713   */\n      swap3\n      swap2\n      pop\n      pop\n      jump\t// out\n        /* \"#utility.yul\":5719:6064   */\n    tag_34:\n        /* \"#utility.yul\":5786:5792   */\n      0x00\n        /* \"#utility.yul\":5835:5837   */\n      0x20\n        /* \"#utility.yul\":5823:5832   */\n      dup3\n        /* \"#utility.yul\":5814:5821   */\n      dup5\n        /* \"#utility.yul\":5810:5833   */\n      sub\n        /* \"#utility.yul\":5806:5838   */\n      slt\n        /* \"#utility.yul\":5803:5922   */\n      iszero\n      tag_271\n      jumpi\n        /* \"#utility.yul\":5841:5920   */\n      tag_272\n      tag_146\n      jump\t// in\n    tag_272:\n        /* \"#utility.yul\":5803:5922   */\n    tag_271:\n        /* \"#utility.yul\":5961:5962   */\n      0x00\n        /* \"#utility.yul\":5986:6047   */\n      tag_273\n        /* \"#utility.yul\":6039:6046   */\n      dup5\n        /* \"#utility.yul\":6030:6036   */\n      dup3\n        /* \"#utility.yul\":6019:6028   */\n      dup6\n        /* \"#utility.yul\":6015:6037   */\n      add\n        /* \"#utility.yul\":5986:6047   */\n      tag_157\n      jump\t// in\n    tag_273:\n        /* \"#utility.yul\":5976:6047   */\n      swap2\n      pop\n        /* \"#utility.yul\":5932:6057   */\n      pop\n        /* \"#utility.yul\":5719:6064   */\n      swap3\n      swap2\n      pop\n      pop\n      jump\t// out\n        /* \"#utility.yul\":6070:6239   */\n    tag_158:\n        /* \"#utility.yul\":6154:6165   */\n      0x00\n        /* \"#utility.yul\":6188:6194   */\n      dup3\n        /* \"#utility.yul\":6183:6186   */\n      dup3\n        /* \"#utility.yul\":6176:6195   */\n      mstore\n        /* \"#utility.yul\":6228:6232   */\n      0x20\n        /* \"#utility.yul\":6223:6226   */\n      dup3\n        /* \"#utility.yul\":6219:6233   */\n      add\n        /* \"#utility.yul\":6204:6233   */\n      swap1\n      pop\n        /* \"#utility.yul\":6070:6239   */\n      swap3\n      swap2\n      pop\n      pop\n      jump\t// out\n        /* \"#utility.yul\":6245:6496   */\n    tag_159:\n        /* \"#utility.yul\":6385:6419   */\n      0x546f6b656e207472616e736665722066726f6d2077616c6c657420746f20636f\n        /* \"#utility.yul\":6381:6382   */\n      0x00\n        /* \"#utility.yul\":6373:6379   */\n      dup3\n        /* \"#utility.yul\":6369:6383   */\n      add\n        /* \"#utility.yul\":6362:6420   */\n      mstore\n        /* \"#utility.yul\":6454:6488   */\n      0x6e7472616374206661696c65642064756520746f20756e2d617070726f76616c\n        /* \"#utility.yul\":6449:6451   */\n      0x20\n        /* \"#utility.yul\":6441:6447   */\n      dup3\n        /* \"#utility.yul\":6437:6452   */\n      add\n        /* \"#utility.yul\":6430:6489   */\n      mstore\n        /* \"#utility.yul\":6245:6496   */\n      pop\n      jump\t// out\n        /* \"#utility.yul\":6502:6868   */\n    tag_160:\n        /* \"#utility.yul\":6644:6647   */\n      0x00\n        /* \"#utility.yul\":6665:6732   */\n      tag_277\n        /* \"#utility.yul\":6729:6731   */\n      0x40\n        /* \"#utility.yul\":6724:6727   */\n      dup4\n        /* \"#utility.yul\":6665:6732   */\n      tag_158\n      jump\t// in\n    tag_277:\n        /* \"#utility.yul\":6658:6732   */\n      swap2\n      pop\n        /* \"#utility.yul\":6741:6834   */\n      tag_278\n        /* \"#utility.yul\":6830:6833   */\n      dup3\n        /* \"#utility.yul\":6741:6834   */\n      tag_159\n      jump\t// in\n    tag_278:\n        /* \"#utility.yul\":6859:6861   */\n      0x40\n        /* \"#utility.yul\":6854:6857   */\n      dup3\n        /* \"#utility.yul\":6850:6862   */\n      add\n        /* \"#utility.yul\":6843:6862   */\n      swap1\n      pop\n        /* \"#utility.yul\":6502:6868   */\n      swap2\n      swap1\n      pop\n      jump\t// out\n        /* \"#utility.yul\":6874:7293   */\n    tag_37:\n        /* \"#utility.yul\":7040:7044   */\n      0x00\n        /* \"#utility.yul\":7078:7080   */\n      0x20\n        /* \"#utility.yul\":7067:7076   */\n      dup3\n        /* \"#utility.yul\":7063:7081   */\n      add\n        /* \"#utility.yul\":7055:7081   */\n      swap1\n      pop\n        /* \"#utility.yul\":7127:7136   */\n      dup2\n        /* \"#utility.yul\":7121:7125   */\n      dup2\n        /* \"#utility.yul\":7117:7137   */\n      sub\n        /* \"#utility.yul\":7113:7114   */\n      0x00\n        /* \"#utility.yul\":7102:7111   */\n      dup4\n        /* \"#utility.yul\":7098:7115   */\n      add\n        /* \"#utility.yul\":7091:7138   */\n      mstore\n        /* \"#utility.yul\":7155:7286   */\n      tag_280\n        /* \"#utility.yul\":7281:7285   */\n      dup2\n        /* \"#utility.yul\":7155:7286   */\n      tag_160\n      jump\t// in\n    tag_280:\n        /* \"#utility.yul\":7147:7286   */\n      swap1\n      pop\n        /* \"#utility.yul\":6874:7293   */\n      swap2\n      swap1\n      pop\n      jump\t// out\n        /* \"#utility.yul\":7299:7479   */\n    tag_40:\n        /* \"#utility.yul\":7347:7424   */\n      0x4e487b7100000000000000000000000000000000000000000000000000000000\n        /* \"#utility.yul\":7344:7345   */\n      0x00\n        /* \"#utility.yul\":7337:7425   */\n      mstore\n        /* \"#utility.yul\":7444:7448   */\n      0x41\n        /* \"#utility.yul\":7441:7442   */\n      0x04\n        /* \"#utility.yul\":7434:7449   */\n      mstore\n        /* \"#utility.yul\":7468:7472   */\n      0x24\n        /* \"#utility.yul\":7465:7466   */\n      0x00\n        /* \"#utility.yul\":7458:7473   */\n      revert\n        /* \"#utility.yul\":7485:7665   */\n    tag_44:\n        /* \"#utility.yul\":7533:7610   */\n      0x4e487b7100000000000000000000000000000000000000000000000000000000\n        /* \"#utility.yul\":7530:7531   */\n      0x00\n        /* \"#utility.yul\":7523:7611   */\n      mstore\n        /* \"#utility.yul\":7630:7634   */\n      0x32\n        /* \"#utility.yul\":7627:7628   */\n      0x04\n        /* \"#utility.yul\":7620:7635   */\n      mstore\n        /* \"#utility.yul\":7654:7658   */\n      0x24\n        /* \"#utility.yul\":7651:7652   */\n      0x00\n        /* \"#utility.yul\":7644:7659   */\n      revert\n        /* \"#utility.yul\":7671:8003   */\n    tag_51:\n        /* \"#utility.yul\":7792:7796   */\n      0x00\n        /* \"#utility.yul\":7830:7832   */\n      0x40\n        /* \"#utility.yul\":7819:7828   */\n      dup3\n        /* \"#utility.yul\":7815:7833   */\n      add\n        /* \"#utility.yul\":7807:7833   */\n      swap1\n      pop\n        /* \"#utility.yul\":7843:7914   */\n      tag_284\n        /* \"#utility.yul\":7911:7912   */\n      0x00\n        /* \"#utility.yul\":7900:7909   */\n      dup4\n        /* \"#utility.yul\":7896:7913   */\n      add\n        /* \"#utility.yul\":7887:7893   */\n      dup6\n        /* \"#utility.yul\":7843:7914   */\n      tag_142\n      jump\t// in\n    tag_284:\n        /* \"#utility.yul\":7924:7996   */\n      tag_285\n        /* \"#utility.yul\":7992:7994   */\n      0x20\n        /* \"#utility.yul\":7981:7990   */\n      dup4\n        /* \"#utility.yul\":7977:7995   */\n      add\n        /* \"#utility.yul\":7968:7974   */\n      dup5\n        /* \"#utility.yul\":7924:7996   */\n      tag_156\n      jump\t// in\n    tag_285:\n        /* \"#utility.yul\":7671:8003   */\n      swap4\n      swap3\n      pop\n      pop\n      pop\n      jump\t// out\n        /* \"#utility.yul\":8009:8185   */\n    tag_161:\n        /* \"#utility.yul\":8149:8177   */\n      0x556e6973776170563220617070726f76616c206661696c65642e000000000000\n        /* \"#utility.yul\":8145:8146   */\n      0x00\n        /* \"#utility.yul\":8137:8143   */\n      dup3\n        /* \"#utility.yul\":8133:8147   */\n      add\n        /* \"#utility.yul\":8126:8178   */\n      mstore\n        /* \"#utility.yul\":8009:8185   */\n      pop\n      jump\t// out\n        /* \"#utility.yul\":8191:8557   */\n    tag_162:\n        /* \"#utility.yul\":8333:8336   */\n      0x00\n        /* \"#utility.yul\":8354:8421   */\n      tag_288\n        /* \"#utility.yul\":8418:8420   */\n      0x1a\n        /* \"#utility.yul\":8413:8416   */\n      dup4\n        /* \"#utility.yul\":8354:8421   */\n      tag_158\n      jump\t// in\n    tag_288:\n        /* \"#utility.yul\":8347:8421   */\n      swap2\n      pop\n        /* \"#utility.yul\":8430:8523   */\n      tag_289\n        /* \"#utility.yul\":8519:8522   */\n      dup3\n        /* \"#utility.yul\":8430:8523   */\n      tag_161\n      jump\t// in\n    tag_289:\n        /* \"#utility.yul\":8548:8550   */\n      0x20\n        /* \"#utility.yul\":8543:8546   */\n      dup3\n        /* \"#utility.yul\":8539:8551   */\n      add\n        /* \"#utility.yul\":8532:8551   */\n      swap1\n      pop\n        /* \"#utility.yul\":8191:8557   */\n      swap2\n      swap1\n      pop\n      jump\t// out\n        /* \"#utility.yul\":8563:8982   */\n    tag_57:\n        /* \"#utility.yul\":8729:8733   */\n      0x00\n        /* \"#utility.yul\":8767:8769   */\n      0x20\n        /* \"#utility.yul\":8756:8765   */\n      dup3\n        /* \"#utility.yul\":8752:8770   */\n      add\n        /* \"#utility.yul\":8744:8770   */\n      swap1\n      pop\n        /* \"#utility.yul\":8816:8825   */\n      dup2\n        /* \"#utility.yul\":8810:8814   */\n      dup2\n        /* \"#utility.yul\":8806:8826   */\n      sub\n        /* \"#utility.yul\":8802:8803   */\n      0x00\n        /* \"#utility.yul\":8791:8800   */\n      dup4\n        /* \"#utility.yul\":8787:8804   */\n      add\n        /* \"#utility.yul\":8780:8827   */\n      mstore\n        /* \"#utility.yul\":8844:8975   */\n      tag_291\n        /* \"#utility.yul\":8970:8974   */\n      dup2\n        /* \"#utility.yul\":8844:8975   */\n      tag_162\n      jump\t// in\n    tag_291:\n        /* \"#utility.yul\":8836:8975   */\n      swap1\n      pop\n        /* \"#utility.yul\":8563:8982   */\n      swap2\n      swap1\n      pop\n      jump\t// out\n        /* \"#utility.yul\":8988:9102   */\n    tag_163:\n        /* \"#utility.yul\":9055:9061   */\n      0x00\n        /* \"#utility.yul\":9089:9094   */\n      dup2\n        /* \"#utility.yul\":9083:9095   */\n      mload\n        /* \"#utility.yul\":9073:9095   */\n      swap1\n      pop\n        /* \"#utility.yul\":8988:9102   */\n      swap2\n      swap1\n      pop\n      jump\t// out\n        /* \"#utility.yul\":9108:9292   */\n    tag_164:\n        /* \"#utility.yul\":9207:9218   */\n      0x00\n        /* \"#utility.yul\":9241:9247   */\n      dup3\n        /* \"#utility.yul\":9236:9239   */\n      dup3\n        /* \"#utility.yul\":9229:9248   */\n      mstore\n        /* \"#utility.yul\":9281:9285   */\n      0x20\n        /* \"#utility.yul\":9276:9279   */\n      dup3\n        /* \"#utility.yul\":9272:9286   */\n      add\n        /* \"#utility.yul\":9257:9286   */\n      swap1\n      pop\n        /* \"#utility.yul\":9108:9292   */\n      swap3\n      swap2\n      pop\n      pop\n      jump\t// out\n        /* \"#utility.yul\":9298:9430   */\n    tag_165:\n        /* \"#utility.yul\":9365:9369   */\n      0x00\n        /* \"#utility.yul\":9388:9391   */\n      dup2\n        /* \"#utility.yul\":9380:9391   */\n      swap1\n      pop\n        /* \"#utility.yul\":9418:9422   */\n      0x20\n        /* \"#utility.yul\":9413:9416   */\n      dup3\n        /* \"#utility.yul\":9409:9423   */\n      add\n        /* \"#utility.yul\":9401:9423   */\n      swap1\n      pop\n        /* \"#utility.yul\":9298:9430   */\n      swap2\n      swap1\n      pop\n      jump\t// out\n        /* \"#utility.yul\":9436:9544   */\n    tag_166:\n        /* \"#utility.yul\":9513:9537   */\n      tag_296\n        /* \"#utility.yul\":9531:9536   */\n      dup2\n        /* \"#utility.yul\":9513:9537   */\n      tag_141\n      jump\t// in\n    tag_296:\n        /* \"#utility.yul\":9508:9511   */\n      dup3\n        /* \"#utility.yul\":9501:9538   */\n      mstore\n        /* \"#utility.yul\":9436:9544   */\n      pop\n      pop\n      jump\t// out\n        /* \"#utility.yul\":9550:9729   */\n    tag_167:\n        /* \"#utility.yul\":9619:9629   */\n      0x00\n        /* \"#utility.yul\":9640:9686   */\n      tag_298\n        /* \"#utility.yul\":9682:9685   */\n      dup4\n        /* \"#utility.yul\":9674:9680   */\n      dup4\n        /* \"#utility.yul\":9640:9686   */\n      tag_166\n      jump\t// in\n    tag_298:\n        /* \"#utility.yul\":9718:9722   */\n      0x20\n        /* \"#utility.yul\":9713:9716   */\n      dup4\n        /* \"#utility.yul\":9709:9723   */\n      add\n        /* \"#utility.yul\":9695:9723   */\n      swap1\n      pop\n        /* \"#utility.yul\":9550:9729   */\n      swap3\n      swap2\n      pop\n      pop\n      jump\t// out\n        /* \"#utility.yul\":9735:9848   */\n    tag_168:\n        /* \"#utility.yul\":9805:9809   */\n      0x00\n        /* \"#utility.yul\":9837:9841   */\n      0x20\n        /* \"#utility.yul\":9832:9835   */\n      dup3\n        /* \"#utility.yul\":9828:9842   */\n      add\n        /* \"#utility.yul\":9820:9842   */\n      swap1\n      pop\n        /* \"#utility.yul\":9735:9848   */\n      swap2\n      swap1\n      pop\n      jump\t// out\n        /* \"#utility.yul\":9884:10616   */\n    tag_169:\n        /* \"#utility.yul\":10003:10006   */\n      0x00\n        /* \"#utility.yul\":10032:10086   */\n      tag_301\n        /* \"#utility.yul\":10080:10085   */\n      dup3\n        /* \"#utility.yul\":10032:10086   */\n      tag_163\n      jump\t// in\n    tag_301:\n        /* \"#utility.yul\":10102:10188   */\n      tag_302\n        /* \"#utility.yul\":10181:10187   */\n      dup2\n        /* \"#utility.yul\":10176:10179   */\n      dup6\n        /* \"#utility.yul\":10102:10188   */\n      tag_164\n      jump\t// in\n    tag_302:\n        /* \"#utility.yul\":10095:10188   */\n      swap4\n      pop\n        /* \"#utility.yul\":10212:10268   */\n      tag_303\n        /* \"#utility.yul\":10262:10267   */\n      dup4\n        /* \"#utility.yul\":10212:10268   */\n      tag_165\n      jump\t// in\n    tag_303:\n        /* \"#utility.yul\":10291:10298   */\n      dup1\n        /* \"#utility.yul\":10322:10323   */\n      0x00\n        /* \"#utility.yul\":10307:10591   */\n    tag_304:\n        /* \"#utility.yul\":10332:10338   */\n      dup4\n        /* \"#utility.yul\":10329:10330   */\n      dup2\n        /* \"#utility.yul\":10326:10339   */\n      lt\n        /* \"#utility.yul\":10307:10591   */\n      iszero\n      tag_306\n      jumpi\n        /* \"#utility.yul\":10408:10414   */\n      dup2\n        /* \"#utility.yul\":10402:10415   */\n      mload\n        /* \"#utility.yul\":10435:10498   */\n      tag_307\n        /* \"#utility.yul\":10494:10497   */\n      dup9\n        /* \"#utility.yul\":10479:10492   */\n      dup3\n        /* \"#utility.yul\":10435:10498   */\n      tag_167\n      jump\t// in\n    tag_307:\n        /* \"#utility.yul\":10428:10498   */\n      swap8\n      pop\n        /* \"#utility.yul\":10521:10581   */\n      tag_308\n        /* \"#utility.yul\":10574:10580   */\n      dup4\n        /* \"#utility.yul\":10521:10581   */\n      tag_168\n      jump\t// in\n    tag_308:\n        /* \"#utility.yul\":10511:10581   */\n      swap3\n      pop\n        /* \"#utility.yul\":10367:10591   */\n      pop\n        /* \"#utility.yul\":10354:10355   */\n      0x01\n        /* \"#utility.yul\":10351:10352   */\n      dup2\n        /* \"#utility.yul\":10347:10356   */\n      add\n        /* \"#utility.yul\":10342:10356   */\n      swap1\n      pop\n        /* \"#utility.yul\":10307:10591   */\n      jump(tag_304)\n    tag_306:\n        /* \"#utility.yul\":10311:10325   */\n      pop\n        /* \"#utility.yul\":10607:10610   */\n      dup6\n        /* \"#utility.yul\":10600:10610   */\n      swap4\n      pop\n        /* \"#utility.yul\":10008:10616   */\n      pop\n      pop\n      pop\n        /* \"#utility.yul\":9884:10616   */\n      swap3\n      swap2\n      pop\n      pop\n      jump\t// out\n        /* \"#utility.yul\":10622:11105   */\n    tag_59:\n        /* \"#utility.yul\":10793:10797   */\n      0x00\n        /* \"#utility.yul\":10831:10833   */\n      0x40\n        /* \"#utility.yul\":10820:10829   */\n      dup3\n        /* \"#utility.yul\":10816:10834   */\n      add\n        /* \"#utility.yul\":10808:10834   */\n      swap1\n      pop\n        /* \"#utility.yul\":10844:10915   */\n      tag_310\n        /* \"#utility.yul\":10912:10913   */\n      0x00\n        /* \"#utility.yul\":10901:10910   */\n      dup4\n        /* \"#utility.yul\":10897:10914   */\n      add\n        /* \"#utility.yul\":10888:10894   */\n      dup6\n        /* \"#utility.yul\":10844:10915   */\n      tag_156\n      jump\t// in\n    tag_310:\n        /* \"#utility.yul\":10962:10971   */\n      dup2\n        /* \"#utility.yul\":10956:10960   */\n      dup2\n        /* \"#utility.yul\":10952:10972   */\n      sub\n        /* \"#utility.yul\":10947:10949   */\n      0x20\n        /* \"#utility.yul\":10936:10945   */\n      dup4\n        /* \"#utility.yul\":10932:10950   */\n      add\n        /* \"#utility.yul\":10925:10973   */\n      mstore\n        /* \"#utility.yul\":10990:11098   */\n      tag_311\n        /* \"#utility.yul\":11093:11097   */\n      dup2\n        /* \"#utility.yul\":11084:11090   */\n      dup5\n        /* \"#utility.yul\":10990:11098   */\n      tag_169\n      jump\t// in\n    tag_311:\n        /* \"#utility.yul\":10982:11098   */\n      swap1\n      pop\n        /* \"#utility.yul\":10622:11105   */\n      swap4\n      swap3\n      pop\n      pop\n      pop\n      jump\t// out\n        /* \"#utility.yul\":11111:11228   */\n    tag_170:\n        /* \"#utility.yul\":11220:11221   */\n      0x00\n        /* \"#utility.yul\":11217:11218   */\n      dup1\n        /* \"#utility.yul\":11210:11222   */\n      revert\n        /* \"#utility.yul\":11234:11336   */\n    tag_171:\n        /* \"#utility.yul\":11275:11281   */\n      0x00\n        /* \"#utility.yul\":11326:11328   */\n      0x1f\n        /* \"#utility.yul\":11322:11329   */\n      not\n        /* \"#utility.yul\":11317:11319   */\n      0x1f\n        /* \"#utility.yul\":11310:11315   */\n      dup4\n        /* \"#utility.yul\":11306:11320   */\n      add\n        /* \"#utility.yul\":11302:11330   */\n      and\n        /* \"#utility.yul\":11292:11330   */\n      swap1\n      pop\n        /* \"#utility.yul\":11234:11336   */\n      swap2\n      swap1\n      pop\n      jump\t// out\n        /* \"#utility.yul\":11342:11623   */\n    tag_172:\n        /* \"#utility.yul\":11425:11452   */\n      tag_315\n        /* \"#utility.yul\":11447:11451   */\n      dup3\n        /* \"#utility.yul\":11425:11452   */\n      tag_171\n      jump\t// in\n    tag_315:\n        /* \"#utility.yul\":11417:11423   */\n      dup2\n        /* \"#utility.yul\":11413:11453   */\n      add\n        /* \"#utility.yul\":11555:11561   */\n      dup2\n        /* \"#utility.yul\":11543:11553   */\n      dup2\n        /* \"#utility.yul\":11540:11562   */\n      lt\n        /* \"#utility.yul\":11519:11537   */\n      0xffffffffffffffff\n        /* \"#utility.yul\":11507:11517   */\n      dup3\n        /* \"#utility.yul\":11504:11538   */\n      gt\n        /* \"#utility.yul\":11501:11563   */\n      or\n        /* \"#utility.yul\":11498:11586   */\n      iszero\n      tag_316\n      jumpi\n        /* \"#utility.yul\":11566:11584   */\n      tag_317\n      tag_40\n      jump\t// in\n    tag_317:\n        /* \"#utility.yul\":11498:11586   */\n    tag_316:\n        /* \"#utility.yul\":11606:11616   */\n      dup1\n        /* \"#utility.yul\":11602:11604   */\n      0x40\n        /* \"#utility.yul\":11595:11617   */\n      mstore\n        /* \"#utility.yul\":11385:11623   */\n      pop\n        /* \"#utility.yul\":11342:11623   */\n      pop\n      pop\n      jump\t// out\n        /* \"#utility.yul\":11629:11758   */\n    tag_173:\n        /* \"#utility.yul\":11663:11669   */\n      0x00\n        /* \"#utility.yul\":11690:11710   */\n      tag_319\n      tag_145\n      jump\t// in\n    tag_319:\n        /* \"#utility.yul\":11680:11710   */\n      swap1\n      pop\n        /* \"#utility.yul\":11719:11752   */\n      tag_320\n        /* \"#utility.yul\":11747:11751   */\n      dup3\n        /* \"#utility.yul\":11739:11745   */\n      dup3\n        /* \"#utility.yul\":11719:11752   */\n      tag_172\n      jump\t// in\n    tag_320:\n        /* \"#utility.yul\":11629:11758   */\n      swap2\n      swap1\n      pop\n      jump\t// out\n        /* \"#utility.yul\":11764:12075   */\n    tag_174:\n        /* \"#utility.yul\":11841:11845   */\n      0x00\n        /* \"#utility.yul\":11931:11949   */\n      0xffffffffffffffff\n        /* \"#utility.yul\":11923:11929   */\n      dup3\n        /* \"#utility.yul\":11920:11950   */\n      gt\n        /* \"#utility.yul\":11917:11973   */\n      iszero\n      tag_322\n      jumpi\n        /* \"#utility.yul\":11953:11971   */\n      tag_323\n      tag_40\n      jump\t// in\n    tag_323:\n        /* \"#utility.yul\":11917:11973   */\n    tag_322:\n        /* \"#utility.yul\":12003:12007   */\n      0x20\n        /* \"#utility.yul\":11995:12001   */\n      dup3\n        /* \"#utility.yul\":11991:12008   */\n      mul\n        /* \"#utility.yul\":11983:12008   */\n      swap1\n      pop\n        /* \"#utility.yul\":12063:12067   */\n      0x20\n        /* \"#utility.yul\":12057:12061   */\n      dup2\n        /* \"#utility.yul\":12053:12068   */\n      add\n        /* \"#utility.yul\":12045:12068   */\n      swap1\n      pop\n        /* \"#utility.yul\":11764:12075   */\n      swap2\n      swap1\n      pop\n      jump\t// out\n        /* \"#utility.yul\":12081:12198   */\n    tag_175:\n        /* \"#utility.yul\":12190:12191   */\n      0x00\n        /* \"#utility.yul\":12187:12188   */\n      dup1\n        /* \"#utility.yul\":12180:12192   */\n      revert\n        /* \"#utility.yul\":12204:12347   */\n    tag_176:\n        /* \"#utility.yul\":12261:12266   */\n      0x00\n        /* \"#utility.yul\":12292:12298   */\n      dup2\n        /* \"#utility.yul\":12286:12299   */\n      mload\n        /* \"#utility.yul\":12277:12299   */\n      swap1\n      pop\n        /* \"#utility.yul\":12308:12341   */\n      tag_326\n        /* \"#utility.yul\":12335:12340   */\n      dup2\n        /* \"#utility.yul\":12308:12341   */\n      tag_154\n      jump\t// in\n    tag_326:\n        /* \"#utility.yul\":12204:12347   */\n      swap3\n      swap2\n      pop\n      pop\n      jump\t// out\n        /* \"#utility.yul\":12370:13102   */\n    tag_177:\n        /* \"#utility.yul\":12477:12482   */\n      0x00\n        /* \"#utility.yul\":12502:12583   */\n      tag_328\n        /* \"#utility.yul\":12518:12582   */\n      tag_329\n        /* \"#utility.yul\":12575:12581   */\n      dup5\n        /* \"#utility.yul\":12518:12582   */\n      tag_174\n      jump\t// in\n    tag_329:\n        /* \"#utility.yul\":12502:12583   */\n      tag_173\n      jump\t// in\n    tag_328:\n        /* \"#utility.yul\":12493:12583   */\n      swap1\n      pop\n        /* \"#utility.yul\":12603:12608   */\n      dup1\n        /* \"#utility.yul\":12632:12638   */\n      dup4\n        /* \"#utility.yul\":12625:12630   */\n      dup3\n        /* \"#utility.yul\":12618:12639   */\n      mstore\n        /* \"#utility.yul\":12666:12670   */\n      0x20\n        /* \"#utility.yul\":12659:12664   */\n      dup3\n        /* \"#utility.yul\":12655:12671   */\n      add\n        /* \"#utility.yul\":12648:12671   */\n      swap1\n      pop\n        /* \"#utility.yul\":12719:12723   */\n      0x20\n        /* \"#utility.yul\":12711:12717   */\n      dup5\n        /* \"#utility.yul\":12707:12724   */\n      mul\n        /* \"#utility.yul\":12699:12705   */\n      dup4\n        /* \"#utility.yul\":12695:12725   */\n      add\n        /* \"#utility.yul\":12748:12751   */\n      dup6\n        /* \"#utility.yul\":12740:12746   */\n      dup2\n        /* \"#utility.yul\":12737:12752   */\n      gt\n        /* \"#utility.yul\":12734:12856   */\n      iszero\n      tag_330\n      jumpi\n        /* \"#utility.yul\":12767:12846   */\n      tag_331\n      tag_175\n      jump\t// in\n    tag_331:\n        /* \"#utility.yul\":12734:12856   */\n    tag_330:\n        /* \"#utility.yul\":12882:12888   */\n      dup4\n        /* \"#utility.yul\":12865:13096   */\n    tag_332:\n        /* \"#utility.yul\":12899:12905   */\n      dup2\n        /* \"#utility.yul\":12894:12897   */\n      dup2\n        /* \"#utility.yul\":12891:12906   */\n      lt\n        /* \"#utility.yul\":12865:13096   */\n      iszero\n      tag_334\n      jumpi\n        /* \"#utility.yul\":12974:12977   */\n      dup1\n        /* \"#utility.yul\":13003:13051   */\n      tag_335\n        /* \"#utility.yul\":13047:13050   */\n      dup9\n        /* \"#utility.yul\":13035:13045   */\n      dup3\n        /* \"#utility.yul\":13003:13051   */\n      tag_176\n      jump\t// in\n    tag_335:\n        /* \"#utility.yul\":12998:13001   */\n      dup5\n        /* \"#utility.yul\":12991:13052   */\n      mstore\n        /* \"#utility.yul\":13081:13085   */\n      0x20\n        /* \"#utility.yul\":13076:13079   */\n      dup5\n        /* \"#utility.yul\":13072:13086   */\n      add\n        /* \"#utility.yul\":13065:13086   */\n      swap4\n      pop\n        /* \"#utility.yul\":12941:13096   */\n      pop\n        /* \"#utility.yul\":12925:12929   */\n      0x20\n        /* \"#utility.yul\":12920:12923   */\n      dup2\n        /* \"#utility.yul\":12916:12930   */\n      add\n        /* \"#utility.yul\":12909:12930   */\n      swap1\n      pop\n        /* \"#utility.yul\":12865:13096   */\n      jump(tag_332)\n    tag_334:\n        /* \"#utility.yul\":12869:12890   */\n      pop\n        /* \"#utility.yul\":12483:13102   */\n      pop\n      pop\n        /* \"#utility.yul\":12370:13102   */\n      swap4\n      swap3\n      pop\n      pop\n      pop\n      jump\t// out\n        /* \"#utility.yul\":13125:13510   */\n    tag_178:\n        /* \"#utility.yul\":13207:13212   */\n      0x00\n        /* \"#utility.yul\":13256:13259   */\n      dup3\n        /* \"#utility.yul\":13249:13253   */\n      0x1f\n        /* \"#utility.yul\":13241:13247   */\n      dup4\n        /* \"#utility.yul\":13237:13254   */\n      add\n        /* \"#utility.yul\":13233:13260   */\n      slt\n        /* \"#utility.yul\":13223:13345   */\n      tag_337\n      jumpi\n        /* \"#utility.yul\":13264:13343   */\n      tag_338\n      tag_170\n      jump\t// in\n    tag_338:\n        /* \"#utility.yul\":13223:13345   */\n    tag_337:\n        /* \"#utility.yul\":13374:13380   */\n      dup2\n        /* \"#utility.yul\":13368:13381   */\n      mload\n        /* \"#utility.yul\":13399:13504   */\n      tag_339\n        /* \"#utility.yul\":13500:13503   */\n      dup5\n        /* \"#utility.yul\":13492:13498   */\n      dup3\n        /* \"#utility.yul\":13485:13489   */\n      0x20\n        /* \"#utility.yul\":13477:13483   */\n      dup7\n        /* \"#utility.yul\":13473:13490   */\n      add\n        /* \"#utility.yul\":13399:13504   */\n      tag_177\n      jump\t// in\n    tag_339:\n        /* \"#utility.yul\":13390:13504   */\n      swap2\n      pop\n        /* \"#utility.yul\":13213:13510   */\n      pop\n        /* \"#utility.yul\":13125:13510   */\n      swap3\n      swap2\n      pop\n      pop\n      jump\t// out\n        /* \"#utility.yul\":13516:14070   */\n    tag_63:\n        /* \"#utility.yul\":13611:13617   */\n      0x00\n        /* \"#utility.yul\":13660:13662   */\n      0x20\n        /* \"#utility.yul\":13648:13657   */\n      dup3\n        /* \"#utility.yul\":13639:13646   */\n      dup5\n        /* \"#utility.yul\":13635:13658   */\n      sub\n        /* \"#utility.yul\":13631:13663   */\n      slt\n        /* \"#utility.yul\":13628:13747   */\n      iszero\n      tag_341\n      jumpi\n        /* \"#utility.yul\":13666:13745   */\n      tag_342\n      tag_146\n      jump\t// in\n    tag_342:\n        /* \"#utility.yul\":13628:13747   */\n    tag_341:\n        /* \"#utility.yul\":13807:13808   */\n      0x00\n        /* \"#utility.yul\":13796:13805   */\n      dup3\n        /* \"#utility.yul\":13792:13809   */\n      add\n        /* \"#utility.yul\":13786:13810   */\n      mload\n        /* \"#utility.yul\":13837:13855   */\n      0xffffffffffffffff\n        /* \"#utility.yul\":13829:13835   */\n      dup2\n        /* \"#utility.yul\":13826:13856   */\n      gt\n        /* \"#utility.yul\":13823:13940   */\n      iszero\n      tag_343\n      jumpi\n        /* \"#utility.yul\":13859:13938   */\n      tag_344\n      tag_147\n      jump\t// in\n    tag_344:\n        /* \"#utility.yul\":13823:13940   */\n    tag_343:\n        /* \"#utility.yul\":13964:14053   */\n      tag_345\n        /* \"#utility.yul\":14045:14052   */\n      dup5\n        /* \"#utility.yul\":14036:14042   */\n      dup3\n        /* \"#utility.yul\":14025:14034   */\n      dup6\n        /* \"#utility.yul\":14021:14043   */\n      add\n        /* \"#utility.yul\":13964:14053   */\n      tag_178\n      jump\t// in\n    tag_345:\n        /* \"#utility.yul\":13954:14053   */\n      swap2\n      pop\n        /* \"#utility.yul\":13757:14063   */\n      pop\n        /* \"#utility.yul\":13516:14070   */\n      swap3\n      swap2\n      pop\n      pop\n      jump\t// out\n        /* \"#utility.yul\":14076:14256   */\n    tag_179:\n        /* \"#utility.yul\":14124:14201   */\n      0x4e487b7100000000000000000000000000000000000000000000000000000000\n        /* \"#utility.yul\":14121:14122   */\n      0x00\n        /* \"#utility.yul\":14114:14202   */\n      mstore\n        /* \"#utility.yul\":14221:14225   */\n      0x11\n        /* \"#utility.yul\":14218:14219   */\n      0x04\n        /* \"#utility.yul\":14211:14226   */\n      mstore\n        /* \"#utility.yul\":14245:14249   */\n      0x24\n        /* \"#utility.yul\":14242:14243   */\n      0x00\n        /* \"#utility.yul\":14235:14250   */\n      revert\n        /* \"#utility.yul\":14262:14453   */\n    tag_68:\n        /* \"#utility.yul\":14302:14306   */\n      0x00\n        /* \"#utility.yul\":14322:14342   */\n      tag_348\n        /* \"#utility.yul\":14340:14341   */\n      dup3\n        /* \"#utility.yul\":14322:14342   */\n      tag_153\n      jump\t// in\n    tag_348:\n        /* \"#utility.yul\":14317:14342   */\n      swap2\n      pop\n        /* \"#utility.yul\":14356:14376   */\n      tag_349\n        /* \"#utility.yul\":14374:14375   */\n      dup4\n        /* \"#utility.yul\":14356:14376   */\n      tag_153\n      jump\t// in\n    tag_349:\n        /* \"#utility.yul\":14351:14376   */\n      swap3\n      pop\n        /* \"#utility.yul\":14395:14396   */\n      dup3\n        /* \"#utility.yul\":14392:14393   */\n      dup3\n        /* \"#utility.yul\":14389:14397   */\n      lt\n        /* \"#utility.yul\":14386:14420   */\n      iszero\n      tag_350\n      jumpi\n        /* \"#utility.yul\":14400:14418   */\n      tag_351\n      tag_179\n      jump\t// in\n    tag_351:\n        /* \"#utility.yul\":14386:14420   */\n    tag_350:\n        /* \"#utility.yul\":14445:14446   */\n      dup3\n        /* \"#utility.yul\":14442:14443   */\n      dup3\n        /* \"#utility.yul\":14438:14447   */\n      sub\n        /* \"#utility.yul\":14430:14447   */\n      swap1\n      pop\n        /* \"#utility.yul\":14262:14453   */\n      swap3\n      swap2\n      pop\n      pop\n      jump\t// out\n        /* \"#utility.yul\":14459:15274   */\n    tag_73:\n        /* \"#utility.yul\":14714:14718   */\n      0x00\n        /* \"#utility.yul\":14752:14755   */\n      0xa0\n        /* \"#utility.yul\":14741:14750   */\n      dup3\n        /* \"#utility.yul\":14737:14756   */\n      add\n        /* \"#utility.yul\":14729:14756   */\n      swap1\n      pop\n        /* \"#utility.yul\":14766:14837   */\n      tag_353\n        /* \"#utility.yul\":14834:14835   */\n      0x00\n        /* \"#utility.yul\":14823:14832   */\n      dup4\n        /* \"#utility.yul\":14819:14836   */\n      add\n        /* \"#utility.yul\":14810:14816   */\n      dup9\n        /* \"#utility.yul\":14766:14837   */\n      tag_156\n      jump\t// in\n    tag_353:\n        /* \"#utility.yul\":14847:14919   */\n      tag_354\n        /* \"#utility.yul\":14915:14917   */\n      0x20\n        /* \"#utility.yul\":14904:14913   */\n      dup4\n        /* \"#utility.yul\":14900:14918   */\n      add\n        /* \"#utility.yul\":14891:14897   */\n      dup8\n        /* \"#utility.yul\":14847:14919   */\n      tag_156\n      jump\t// in\n    tag_354:\n        /* \"#utility.yul\":14966:14975   */\n      dup2\n        /* \"#utility.yul\":14960:14964   */\n      dup2\n        /* \"#utility.yul\":14956:14976   */\n      sub\n        /* \"#utility.yul\":14951:14953   */\n      0x40\n        /* \"#utility.yul\":14940:14949   */\n      dup4\n        /* \"#utility.yul\":14936:14954   */\n      add\n        /* \"#utility.yul\":14929:14977   */\n      mstore\n        /* \"#utility.yul\":14994:15102   */\n      tag_355\n        /* \"#utility.yul\":15097:15101   */\n      dup2\n        /* \"#utility.yul\":15088:15094   */\n      dup7\n        /* \"#utility.yul\":14994:15102   */\n      tag_169\n      jump\t// in\n    tag_355:\n        /* \"#utility.yul\":14986:15102   */\n      swap1\n      pop\n        /* \"#utility.yul\":15112:15184   */\n      tag_356\n        /* \"#utility.yul\":15180:15182   */\n      0x60\n        /* \"#utility.yul\":15169:15178   */\n      dup4\n        /* \"#utility.yul\":15165:15183   */\n      add\n        /* \"#utility.yul\":15156:15162   */\n      dup6\n        /* \"#utility.yul\":15112:15184   */\n      tag_142\n      jump\t// in\n    tag_356:\n        /* \"#utility.yul\":15194:15267   */\n      tag_357\n        /* \"#utility.yul\":15262:15265   */\n      0x80\n        /* \"#utility.yul\":15251:15260   */\n      dup4\n        /* \"#utility.yul\":15247:15266   */\n      add\n        /* \"#utility.yul\":15238:15244   */\n      dup5\n        /* \"#utility.yul\":15194:15267   */\n      tag_156\n      jump\t// in\n    tag_357:\n        /* \"#utility.yul\":14459:15274   */\n      swap7\n      swap6\n      pop\n      pop\n      pop\n      pop\n      pop\n      pop\n      jump\t// out\n        /* \"#utility.yul\":15280:15456   */\n    tag_180:\n        /* \"#utility.yul\":15420:15448   */\n      0x556e6973776170563320617070726f76616c206661696c65642e000000000000\n        /* \"#utility.yul\":15416:15417   */\n      0x00\n        /* \"#utility.yul\":15408:15414   */\n      dup3\n        /* \"#utility.yul\":15404:15418   */\n      add\n        /* \"#utility.yul\":15397:15449   */\n      mstore\n        /* \"#utility.yul\":15280:15456   */\n      pop\n      jump\t// out\n        /* \"#utility.yul\":15462:15828   */\n    tag_181:\n        /* \"#utility.yul\":15604:15607   */\n      0x00\n        /* \"#utility.yul\":15625:15692   */\n      tag_360\n        /* \"#utility.yul\":15689:15691   */\n      0x1a\n        /* \"#utility.yul\":15684:15687   */\n      dup4\n        /* \"#utility.yul\":15625:15692   */\n      tag_158\n      jump\t// in\n    tag_360:\n        /* \"#utility.yul\":15618:15692   */\n      swap2\n      pop\n        /* \"#utility.yul\":15701:15794   */\n      tag_361\n        /* \"#utility.yul\":15790:15793   */\n      dup3\n        /* \"#utility.yul\":15701:15794   */\n      tag_180\n      jump\t// in\n    tag_361:\n        /* \"#utility.yul\":15819:15821   */\n      0x20\n        /* \"#utility.yul\":15814:15817   */\n      dup3\n        /* \"#utility.yul\":15810:15822   */\n      add\n        /* \"#utility.yul\":15803:15822   */\n      swap1\n      pop\n        /* \"#utility.yul\":15462:15828   */\n      swap2\n      swap1\n      pop\n      jump\t// out\n        /* \"#utility.yul\":15834:16253   */\n    tag_86:\n        /* \"#utility.yul\":16000:16004   */\n      0x00\n        /* \"#utility.yul\":16038:16040   */\n      0x20\n        /* \"#utility.yul\":16027:16036   */\n      dup3\n        /* \"#utility.yul\":16023:16041   */\n      add\n        /* \"#utility.yul\":16015:16041   */\n      swap1\n      pop\n        /* \"#utility.yul\":16087:16096   */\n      dup2\n        /* \"#utility.yul\":16081:16085   */\n      dup2\n        /* \"#utility.yul\":16077:16097   */\n      sub\n        /* \"#utility.yul\":16073:16074   */\n      0x00\n        /* \"#utility.yul\":16062:16071   */\n      dup4\n        /* \"#utility.yul\":16058:16075   */\n      add\n        /* \"#utility.yul\":16051:16098   */\n      mstore\n        /* \"#utility.yul\":16115:16246   */\n      tag_363\n        /* \"#utility.yul\":16241:16245   */\n      dup2\n        /* \"#utility.yul\":16115:16246   */\n      tag_181\n      jump\t// in\n    tag_363:\n        /* \"#utility.yul\":16107:16246   */\n      swap1\n      pop\n        /* \"#utility.yul\":15834:16253   */\n      swap2\n      swap1\n      pop\n      jump\t// out\n        /* \"#utility.yul\":16259:16347   */\n    tag_182:\n        /* \"#utility.yul\":16307:16314   */\n      0x00\n        /* \"#utility.yul\":16336:16341   */\n      dup2\n        /* \"#utility.yul\":16325:16341   */\n      swap1\n      pop\n        /* \"#utility.yul\":16259:16347   */\n      swap2\n      swap1\n      pop\n      jump\t// out\n        /* \"#utility.yul\":16353:16444   */\n    tag_183:\n        /* \"#utility.yul\":16389:16396   */\n      0x00\n        /* \"#utility.yul\":16429:16437   */\n      0xffffff\n        /* \"#utility.yul\":16422:16427   */\n      dup3\n        /* \"#utility.yul\":16418:16438   */\n      and\n        /* \"#utility.yul\":16407:16438   */\n      swap1\n      pop\n        /* \"#utility.yul\":16353:16444   */\n      swap2\n      swap1\n      pop\n      jump\t// out\n        /* \"#utility.yul\":16450:16612   */\n    tag_184:\n        /* \"#utility.yul\":16510:16519   */\n      0x00\n        /* \"#utility.yul\":16543:16606   */\n      tag_367\n        /* \"#utility.yul\":16560:16605   */\n      tag_368\n        /* \"#utility.yul\":16569:16604   */\n      tag_369\n        /* \"#utility.yul\":16598:16603   */\n      dup5\n        /* \"#utility.yul\":16569:16604   */\n      tag_182\n      jump\t// in\n    tag_369:\n        /* \"#utility.yul\":16560:16605   */\n      tag_134\n      jump\t// in\n    tag_368:\n        /* \"#utility.yul\":16543:16606   */\n      tag_183\n      jump\t// in\n    tag_367:\n        /* \"#utility.yul\":16530:16606   */\n      swap1\n      pop\n        /* \"#utility.yul\":16450:16612   */\n      swap2\n      swap1\n      pop\n      jump\t// out\n        /* \"#utility.yul\":16618:16769   */\n    tag_185:\n        /* \"#utility.yul\":16715:16762   */\n      tag_371\n        /* \"#utility.yul\":16756:16761   */\n      dup2\n        /* \"#utility.yul\":16715:16762   */\n      tag_184\n      jump\t// in\n    tag_371:\n        /* \"#utility.yul\":16710:16713   */\n      dup3\n        /* \"#utility.yul\":16703:16763   */\n      mstore\n        /* \"#utility.yul\":16618:16769   */\n      pop\n      pop\n      jump\t// out\n        /* \"#utility.yul\":16775:17237   */\n    tag_88:\n        /* \"#utility.yul\":16934:16938   */\n      0x00\n        /* \"#utility.yul\":16972:16974   */\n      0x60\n        /* \"#utility.yul\":16961:16970   */\n      dup3\n        /* \"#utility.yul\":16957:16975   */\n      add\n        /* \"#utility.yul\":16949:16975   */\n      swap1\n      pop\n        /* \"#utility.yul\":16985:17056   */\n      tag_373\n        /* \"#utility.yul\":17053:17054   */\n      0x00\n        /* \"#utility.yul\":17042:17051   */\n      dup4\n        /* \"#utility.yul\":17038:17055   */\n      add\n        /* \"#utility.yul\":17029:17035   */\n      dup7\n        /* \"#utility.yul\":16985:17056   */\n      tag_142\n      jump\t// in\n    tag_373:\n        /* \"#utility.yul\":17066:17138   */\n      tag_374\n        /* \"#utility.yul\":17134:17136   */\n      0x20\n        /* \"#utility.yul\":17123:17132   */\n      dup4\n        /* \"#utility.yul\":17119:17137   */\n      add\n        /* \"#utility.yul\":17110:17116   */\n      dup6\n        /* \"#utility.yul\":17066:17138   */\n      tag_142\n      jump\t// in\n    tag_374:\n        /* \"#utility.yul\":17148:17230   */\n      tag_375\n        /* \"#utility.yul\":17226:17228   */\n      0x40\n        /* \"#utility.yul\":17215:17224   */\n      dup4\n        /* \"#utility.yul\":17211:17229   */\n      add\n        /* \"#utility.yul\":17202:17208   */\n      dup5\n        /* \"#utility.yul\":17148:17230   */\n      tag_185\n      jump\t// in\n    tag_375:\n        /* \"#utility.yul\":16775:17237   */\n      swap5\n      swap4\n      pop\n      pop\n      pop\n      pop\n      jump\t// out\n        /* \"#utility.yul\":17243:17386   */\n    tag_186:\n        /* \"#utility.yul\":17300:17305   */\n      0x00\n        /* \"#utility.yul\":17331:17337   */\n      dup2\n        /* \"#utility.yul\":17325:17338   */\n      mload\n        /* \"#utility.yul\":17316:17338   */\n      swap1\n      pop\n        /* \"#utility.yul\":17347:17380   */\n      tag_377\n        /* \"#utility.yul\":17374:17379   */\n      dup2\n        /* \"#utility.yul\":17347:17380   */\n      tag_151\n      jump\t// in\n    tag_377:\n        /* \"#utility.yul\":17243:17386   */\n      swap3\n      swap2\n      pop\n      pop\n      jump\t// out\n        /* \"#utility.yul\":17392:17743   */\n    tag_92:\n        /* \"#utility.yul\":17462:17468   */\n      0x00\n        /* \"#utility.yul\":17511:17513   */\n      0x20\n        /* \"#utility.yul\":17499:17508   */\n      dup3\n        /* \"#utility.yul\":17490:17497   */\n      dup5\n        /* \"#utility.yul\":17486:17509   */\n      sub\n        /* \"#utility.yul\":17482:17514   */\n      slt\n        /* \"#utility.yul\":17479:17598   */\n      iszero\n      tag_379\n      jumpi\n        /* \"#utility.yul\":17517:17596   */\n      tag_380\n      tag_146\n      jump\t// in\n    tag_380:\n        /* \"#utility.yul\":17479:17598   */\n    tag_379:\n        /* \"#utility.yul\":17637:17638   */\n      0x00\n        /* \"#utility.yul\":17662:17726   */\n      tag_381\n        /* \"#utility.yul\":17718:17725   */\n      dup5\n        /* \"#utility.yul\":17709:17715   */\n      dup3\n        /* \"#utility.yul\":17698:17707   */\n      dup6\n        /* \"#utility.yul\":17694:17716   */\n      add\n        /* \"#utility.yul\":17662:17726   */\n      tag_186\n      jump\t// in\n    tag_381:\n        /* \"#utility.yul\":17652:17726   */\n      swap2\n      pop\n        /* \"#utility.yul\":17608:17736   */\n      pop\n        /* \"#utility.yul\":17392:17743   */\n      swap3\n      swap2\n      pop\n      pop\n      jump\t// out\n        /* \"#utility.yul\":17749:17838   */\n    tag_187:\n        /* \"#utility.yul\":17798:17805   */\n      0x00\n        /* \"#utility.yul\":17827:17832   */\n      dup2\n        /* \"#utility.yul\":17816:17832   */\n      swap1\n      pop\n        /* \"#utility.yul\":17749:17838   */\n      swap2\n      swap1\n      pop\n      jump\t// out\n        /* \"#utility.yul\":17844:18008   */\n    tag_188:\n        /* \"#utility.yul\":17905:17914   */\n      0x00\n        /* \"#utility.yul\":17938:18002   */\n      tag_384\n        /* \"#utility.yul\":17955:18001   */\n      tag_385\n        /* \"#utility.yul\":17964:18000   */\n      tag_386\n        /* \"#utility.yul\":17994:17999   */\n      dup5\n        /* \"#utility.yul\":17964:18000   */\n      tag_187\n      jump\t// in\n    tag_386:\n        /* \"#utility.yul\":17955:18001   */\n      tag_134\n      jump\t// in\n    tag_385:\n        /* \"#utility.yul\":17938:18002   */\n      tag_183\n      jump\t// in\n    tag_384:\n        /* \"#utility.yul\":17925:18002   */\n      swap1\n      pop\n        /* \"#utility.yul\":17844:18008   */\n      swap2\n      swap1\n      pop\n      jump\t// out\n        /* \"#utility.yul\":18014:18167   */\n    tag_189:\n        /* \"#utility.yul\":18112:18160   */\n      tag_388\n        /* \"#utility.yul\":18154:18159   */\n      dup2\n        /* \"#utility.yul\":18112:18160   */\n      tag_188\n      jump\t// in\n    tag_388:\n        /* \"#utility.yul\":18107:18110   */\n      dup3\n        /* \"#utility.yul\":18100:18161   */\n      mstore\n        /* \"#utility.yul\":18014:18167   */\n      pop\n      pop\n      jump\t// out\n        /* \"#utility.yul\":18173:18637   */\n    tag_96:\n        /* \"#utility.yul\":18333:18337   */\n      0x00\n        /* \"#utility.yul\":18371:18373   */\n      0x60\n        /* \"#utility.yul\":18360:18369   */\n      dup3\n        /* \"#utility.yul\":18356:18374   */\n      add\n        /* \"#utility.yul\":18348:18374   */\n      swap1\n      pop\n        /* \"#utility.yul\":18384:18455   */\n      tag_390\n        /* \"#utility.yul\":18452:18453   */\n      0x00\n        /* \"#utility.yul\":18441:18450   */\n      dup4\n        /* \"#utility.yul\":18437:18454   */\n      add\n        /* \"#utility.yul\":18428:18434   */\n      dup7\n        /* \"#utility.yul\":18384:18455   */\n      tag_142\n      jump\t// in\n    tag_390:\n        /* \"#utility.yul\":18465:18537   */\n      tag_391\n        /* \"#utility.yul\":18533:18535   */\n      0x20\n        /* \"#utility.yul\":18522:18531   */\n      dup4\n        /* \"#utility.yul\":18518:18536   */\n      add\n        /* \"#utility.yul\":18509:18515   */\n      dup6\n        /* \"#utility.yul\":18465:18537   */\n      tag_142\n      jump\t// in\n    tag_391:\n        /* \"#utility.yul\":18547:18630   */\n      tag_392\n        /* \"#utility.yul\":18626:18628   */\n      0x40\n        /* \"#utility.yul\":18615:18624   */\n      dup4\n        /* \"#utility.yul\":18611:18629   */\n      add\n        /* \"#utility.yul\":18602:18608   */\n      dup5\n        /* \"#utility.yul\":18547:18630   */\n      tag_189\n      jump\t// in\n    tag_392:\n        /* \"#utility.yul\":18173:18637   */\n      swap5\n      swap4\n      pop\n      pop\n      pop\n      pop\n      jump\t// out\n        /* \"#utility.yul\":18643:18730   */\n    tag_190:\n        /* \"#utility.yul\":18690:18697   */\n      0x00\n        /* \"#utility.yul\":18719:18724   */\n      dup2\n        /* \"#utility.yul\":18708:18724   */\n      swap1\n      pop\n        /* \"#utility.yul\":18643:18730   */\n      swap2\n      swap1\n      pop\n      jump\t// out\n        /* \"#utility.yul\":18736:18896   */\n    tag_191:\n        /* \"#utility.yul\":18795:18804   */\n      0x00\n        /* \"#utility.yul\":18828:18890   */\n      tag_395\n        /* \"#utility.yul\":18845:18889   */\n      tag_396\n        /* \"#utility.yul\":18854:18888   */\n      tag_397\n        /* \"#utility.yul\":18882:18887   */\n      dup5\n        /* \"#utility.yul\":18854:18888   */\n      tag_190\n      jump\t// in\n    tag_397:\n        /* \"#utility.yul\":18845:18889   */\n      tag_134\n      jump\t// in\n    tag_396:\n        /* \"#utility.yul\":18828:18890   */\n      tag_183\n      jump\t// in\n    tag_395:\n        /* \"#utility.yul\":18815:18890   */\n      swap1\n      pop\n        /* \"#utility.yul\":18736:18896   */\n      swap2\n      swap1\n      pop\n      jump\t// out\n        /* \"#utility.yul\":18902:19051   */\n    tag_192:\n        /* \"#utility.yul\":18998:19044   */\n      tag_399\n        /* \"#utility.yul\":19038:19043   */\n      dup2\n        /* \"#utility.yul\":18998:19044   */\n      tag_191\n      jump\t// in\n    tag_399:\n        /* \"#utility.yul\":18993:18996   */\n      dup3\n        /* \"#utility.yul\":18986:19045   */\n      mstore\n        /* \"#utility.yul\":18902:19051   */\n      pop\n      pop\n      jump\t// out\n        /* \"#utility.yul\":19057:19517   */\n    tag_103:\n        /* \"#utility.yul\":19215:19219   */\n      0x00\n        /* \"#utility.yul\":19253:19255   */\n      0x60\n        /* \"#utility.yul\":19242:19251   */\n      dup3\n        /* \"#utility.yul\":19238:19256   */\n      add\n        /* \"#utility.yul\":19230:19256   */\n      swap1\n      pop\n        /* \"#utility.yul\":19266:19337   */\n      tag_401\n        /* \"#utility.yul\":19334:19335   */\n      0x00\n        /* \"#utility.yul\":19323:19332   */\n      dup4\n        /* \"#utility.yul\":19319:19336   */\n      add\n        /* \"#utility.yul\":19310:19316   */\n      dup7\n        /* \"#utility.yul\":19266:19337   */\n      tag_142\n      jump\t// in\n    tag_401:\n        /* \"#utility.yul\":19347:19419   */\n      tag_402\n        /* \"#utility.yul\":19415:19417   */\n      0x20\n        /* \"#utility.yul\":19404:19413   */\n      dup4\n        /* \"#utility.yul\":19400:19418   */\n      add\n        /* \"#utility.yul\":19391:19397   */\n      dup6\n        /* \"#utility.yul\":19347:19419   */\n      tag_142\n      jump\t// in\n    tag_402:\n        /* \"#utility.yul\":19429:19510   */\n      tag_403\n        /* \"#utility.yul\":19506:19508   */\n      0x40\n        /* \"#utility.yul\":19495:19504   */\n      dup4\n        /* \"#utility.yul\":19491:19509   */\n      add\n        /* \"#utility.yul\":19482:19488   */\n      dup5\n        /* \"#utility.yul\":19429:19510   */\n      tag_192\n      jump\t// in\n    tag_403:\n        /* \"#utility.yul\":19057:19517   */\n      swap5\n      swap4\n      pop\n      pop\n      pop\n      pop\n      jump\t// out\n        /* \"#utility.yul\":19523:19610   */\n    tag_193:\n        /* \"#utility.yul\":19570:19577   */\n      0x00\n        /* \"#utility.yul\":19599:19604   */\n      dup2\n        /* \"#utility.yul\":19588:19604   */\n      swap1\n      pop\n        /* \"#utility.yul\":19523:19610   */\n      swap2\n      swap1\n      pop\n      jump\t// out\n        /* \"#utility.yul\":19616:19776   */\n    tag_194:\n        /* \"#utility.yul\":19675:19684   */\n      0x00\n        /* \"#utility.yul\":19708:19770   */\n      tag_406\n        /* \"#utility.yul\":19725:19769   */\n      tag_407\n        /* \"#utility.yul\":19734:19768   */\n      tag_408\n        /* \"#utility.yul\":19762:19767   */\n      dup5\n        /* \"#utility.yul\":19734:19768   */\n      tag_193\n      jump\t// in\n    tag_408:\n        /* \"#utility.yul\":19725:19769   */\n      tag_134\n      jump\t// in\n    tag_407:\n        /* \"#utility.yul\":19708:19770   */\n      tag_183\n      jump\t// in\n    tag_406:\n        /* \"#utility.yul\":19695:19770   */\n      swap1\n      pop\n        /* \"#utility.yul\":19616:19776   */\n      swap2\n      swap1\n      pop\n      jump\t// out\n        /* \"#utility.yul\":19782:19931   */\n    tag_195:\n        /* \"#utility.yul\":19878:19924   */\n      tag_410\n        /* \"#utility.yul\":19918:19923   */\n      dup2\n        /* \"#utility.yul\":19878:19924   */\n      tag_194\n      jump\t// in\n    tag_410:\n        /* \"#utility.yul\":19873:19876   */\n      dup3\n        /* \"#utility.yul\":19866:19925   */\n      mstore\n        /* \"#utility.yul\":19782:19931   */\n      pop\n      pop\n      jump\t// out\n        /* \"#utility.yul\":19937:20397   */\n    tag_110:\n        /* \"#utility.yul\":20095:20099   */\n      0x00\n        /* \"#utility.yul\":20133:20135   */\n      0x60\n        /* \"#utility.yul\":20122:20131   */\n      dup3\n        /* \"#utility.yul\":20118:20136   */\n      add\n        /* \"#utility.yul\":20110:20136   */\n      swap1\n      pop\n        /* \"#utility.yul\":20146:20217   */\n      tag_412\n        /* \"#utility.yul\":20214:20215   */\n      0x00\n        /* \"#utility.yul\":20203:20212   */\n      dup4\n        /* \"#utility.yul\":20199:20216   */\n      add\n        /* \"#utility.yul\":20190:20196   */\n      dup7\n        /* \"#utility.yul\":20146:20217   */\n      tag_142\n      jump\t// in\n    tag_412:\n        /* \"#utility.yul\":20227:20299   */\n      tag_413\n        /* \"#utility.yul\":20295:20297   */\n      0x20\n        /* \"#utility.yul\":20284:20293   */\n      dup4\n        /* \"#utility.yul\":20280:20298   */\n      add\n        /* \"#utility.yul\":20271:20277   */\n      dup6\n        /* \"#utility.yul\":20227:20299   */\n      tag_142\n      jump\t// in\n    tag_413:\n        /* \"#utility.yul\":20309:20390   */\n      tag_414\n        /* \"#utility.yul\":20386:20388   */\n      0x40\n        /* \"#utility.yul\":20375:20384   */\n      dup4\n        /* \"#utility.yul\":20371:20389   */\n      add\n        /* \"#utility.yul\":20362:20368   */\n      dup5\n        /* \"#utility.yul\":20309:20390   */\n      tag_195\n      jump\t// in\n    tag_414:\n        /* \"#utility.yul\":19937:20397   */\n      swap5\n      swap4\n      pop\n      pop\n      pop\n      pop\n      jump\t// out\n        /* \"#utility.yul\":20403:20508   */\n    tag_196:\n        /* \"#utility.yul\":20478:20501   */\n      tag_416\n        /* \"#utility.yul\":20495:20500   */\n      dup2\n        /* \"#utility.yul\":20478:20501   */\n      tag_183\n      jump\t// in\n    tag_416:\n        /* \"#utility.yul\":20473:20476   */\n      dup3\n        /* \"#utility.yul\":20466:20502   */\n      mstore\n        /* \"#utility.yul\":20403:20508   */\n      pop\n      pop\n      jump\t// out\n        /* \"#utility.yul\":20514:20622   */\n    tag_197:\n        /* \"#utility.yul\":20591:20615   */\n      tag_418\n        /* \"#utility.yul\":20609:20614   */\n      dup2\n        /* \"#utility.yul\":20591:20615   */\n      tag_153\n      jump\t// in\n    tag_418:\n        /* \"#utility.yul\":20586:20589   */\n      dup3\n        /* \"#utility.yul\":20579:20616   */\n      mstore\n        /* \"#utility.yul\":20514:20622   */\n      pop\n      pop\n      jump\t// out\n        /* \"#utility.yul\":20628:20736   */\n    tag_198:\n        /* \"#utility.yul\":20705:20729   */\n      tag_420\n        /* \"#utility.yul\":20723:20728   */\n      dup2\n        /* \"#utility.yul\":20705:20729   */\n      tag_133\n      jump\t// in\n    tag_420:\n        /* \"#utility.yul\":20700:20703   */\n      dup3\n        /* \"#utility.yul\":20693:20730   */\n      mstore\n        /* \"#utility.yul\":20628:20736   */\n      pop\n      pop\n      jump\t// out\n        /* \"#utility.yul\":20836:22459   */\n    tag_199:\n        /* \"#utility.yul\":21011:21017   */\n      0x0100\n        /* \"#utility.yul\":21006:21009   */\n      dup3\n        /* \"#utility.yul\":21002:21018   */\n      add\n        /* \"#utility.yul\":21103:21107   */\n      0x00\n        /* \"#utility.yul\":21096:21101   */\n      dup3\n        /* \"#utility.yul\":21092:21108   */\n      add\n        /* \"#utility.yul\":21086:21109   */\n      mload\n        /* \"#utility.yul\":21122:21185   */\n      tag_422\n        /* \"#utility.yul\":21179:21183   */\n      0x00\n        /* \"#utility.yul\":21174:21177   */\n      dup6\n        /* \"#utility.yul\":21170:21184   */\n      add\n        /* \"#utility.yul\":21156:21168   */\n      dup3\n        /* \"#utility.yul\":21122:21185   */\n      tag_166\n      jump\t// in\n    tag_422:\n        /* \"#utility.yul\":21028:21195   */\n      pop\n        /* \"#utility.yul\":21281:21285   */\n      0x20\n        /* \"#utility.yul\":21274:21279   */\n      dup3\n        /* \"#utility.yul\":21270:21286   */\n      add\n        /* \"#utility.yul\":21264:21287   */\n      mload\n        /* \"#utility.yul\":21300:21363   */\n      tag_423\n        /* \"#utility.yul\":21357:21361   */\n      0x20\n        /* \"#utility.yul\":21352:21355   */\n      dup6\n        /* \"#utility.yul\":21348:21362   */\n      add\n        /* \"#utility.yul\":21334:21346   */\n      dup3\n        /* \"#utility.yul\":21300:21363   */\n      tag_166\n      jump\t// in\n    tag_423:\n        /* \"#utility.yul\":21205:21373   */\n      pop\n        /* \"#utility.yul\":21454:21458   */\n      0x40\n        /* \"#utility.yul\":21447:21452   */\n      dup3\n        /* \"#utility.yul\":21443:21459   */\n      add\n        /* \"#utility.yul\":21437:21460   */\n      mload\n        /* \"#utility.yul\":21473:21534   */\n      tag_424\n        /* \"#utility.yul\":21528:21532   */\n      0x40\n        /* \"#utility.yul\":21523:21526   */\n      dup6\n        /* \"#utility.yul\":21519:21533   */\n      add\n        /* \"#utility.yul\":21505:21517   */\n      dup3\n        /* \"#utility.yul\":21473:21534   */\n      tag_196\n      jump\t// in\n    tag_424:\n        /* \"#utility.yul\":21383:21544   */\n      pop\n        /* \"#utility.yul\":21631:21635   */\n      0x60\n        /* \"#utility.yul\":21624:21629   */\n      dup3\n        /* \"#utility.yul\":21620:21636   */\n      add\n        /* \"#utility.yul\":21614:21637   */\n      mload\n        /* \"#utility.yul\":21650:21713   */\n      tag_425\n        /* \"#utility.yul\":21707:21711   */\n      0x60\n        /* \"#utility.yul\":21702:21705   */\n      dup6\n        /* \"#utility.yul\":21698:21712   */\n      add\n        /* \"#utility.yul\":21684:21696   */\n      dup3\n        /* \"#utility.yul\":21650:21713   */\n      tag_166\n      jump\t// in\n    tag_425:\n        /* \"#utility.yul\":21554:21723   */\n      pop\n        /* \"#utility.yul\":21809:21813   */\n      0x80\n        /* \"#utility.yul\":21802:21807   */\n      dup3\n        /* \"#utility.yul\":21798:21814   */\n      add\n        /* \"#utility.yul\":21792:21815   */\n      mload\n        /* \"#utility.yul\":21828:21891   */\n      tag_426\n        /* \"#utility.yul\":21885:21889   */\n      0x80\n        /* \"#utility.yul\":21880:21883   */\n      dup6\n        /* \"#utility.yul\":21876:21890   */\n      add\n        /* \"#utility.yul\":21862:21874   */\n      dup3\n        /* \"#utility.yul\":21828:21891   */\n      tag_197\n      jump\t// in\n    tag_426:\n        /* \"#utility.yul\":21733:21901   */\n      pop\n        /* \"#utility.yul\":21987:21991   */\n      0xa0\n        /* \"#utility.yul\":21980:21985   */\n      dup3\n        /* \"#utility.yul\":21976:21992   */\n      add\n        /* \"#utility.yul\":21970:21993   */\n      mload\n        /* \"#utility.yul\":22006:22069   */\n      tag_427\n        /* \"#utility.yul\":22063:22067   */\n      0xa0\n        /* \"#utility.yul\":22058:22061   */\n      dup6\n        /* \"#utility.yul\":22054:22068   */\n      add\n        /* \"#utility.yul\":22040:22052   */\n      dup3\n        /* \"#utility.yul\":22006:22069   */\n      tag_197\n      jump\t// in\n    tag_427:\n        /* \"#utility.yul\":21911:22079   */\n      pop\n        /* \"#utility.yul\":22173:22177   */\n      0xc0\n        /* \"#utility.yul\":22166:22171   */\n      dup3\n        /* \"#utility.yul\":22162:22178   */\n      add\n        /* \"#utility.yul\":22156:22179   */\n      mload\n        /* \"#utility.yul\":22192:22255   */\n      tag_428\n        /* \"#utility.yul\":22249:22253   */\n      0xc0\n        /* \"#utility.yul\":22244:22247   */\n      dup6\n        /* \"#utility.yul\":22240:22254   */\n      add\n        /* \"#utility.yul\":22226:22238   */\n      dup3\n        /* \"#utility.yul\":22192:22255   */\n      tag_197\n      jump\t// in\n    tag_428:\n        /* \"#utility.yul\":22089:22265   */\n      pop\n        /* \"#utility.yul\":22360:22364   */\n      0xe0\n        /* \"#utility.yul\":22353:22358   */\n      dup3\n        /* \"#utility.yul\":22349:22365   */\n      add\n        /* \"#utility.yul\":22343:22366   */\n      mload\n        /* \"#utility.yul\":22379:22442   */\n      tag_429\n        /* \"#utility.yul\":22436:22440   */\n      0xe0\n        /* \"#utility.yul\":22431:22434   */\n      dup6\n        /* \"#utility.yul\":22427:22441   */\n      add\n        /* \"#utility.yul\":22413:22425   */\n      dup3\n        /* \"#utility.yul\":22379:22442   */\n      tag_198\n      jump\t// in\n    tag_429:\n        /* \"#utility.yul\":22275:22452   */\n      pop\n        /* \"#utility.yul\":20980:22459   */\n      pop\n        /* \"#utility.yul\":20836:22459   */\n      pop\n      pop\n      jump\t// out\n        /* \"#utility.yul\":22465:22844   */\n    tag_117:\n        /* \"#utility.yul\":22636:22640   */\n      0x00\n        /* \"#utility.yul\":22674:22677   */\n      0x0100\n        /* \"#utility.yul\":22663:22672   */\n      dup3\n        /* \"#utility.yul\":22659:22678   */\n      add\n        /* \"#utility.yul\":22651:22678   */\n      swap1\n      pop\n        /* \"#utility.yul\":22688:22837   */\n      tag_431\n        /* \"#utility.yul\":22834:22835   */\n      0x00\n        /* \"#utility.yul\":22823:22832   */\n      dup4\n        /* \"#utility.yul\":22819:22836   */\n      add\n        /* \"#utility.yul\":22810:22816   */\n      dup5\n        /* \"#utility.yul\":22688:22837   */\n      tag_199\n      jump\t// in\n    tag_431:\n        /* \"#utility.yul\":22465:22844   */\n      swap3\n      swap2\n      pop\n      pop\n      jump\t// out\n        /* \"#utility.yul\":22850:23201   */\n    tag_121:\n        /* \"#utility.yul\":22920:22926   */\n      0x00\n        /* \"#utility.yul\":22969:22971   */\n      0x20\n        /* \"#utility.yul\":22957:22966   */\n      dup3\n        /* \"#utility.yul\":22948:22955   */\n      dup5\n        /* \"#utility.yul\":22944:22967   */\n      sub\n        /* \"#utility.yul\":22940:22972   */\n      slt\n        /* \"#utility.yul\":22937:23056   */\n      iszero\n      tag_433\n      jumpi\n        /* \"#utility.yul\":22975:23054   */\n      tag_434\n      tag_146\n      jump\t// in\n    tag_434:\n        /* \"#utility.yul\":22937:23056   */\n    tag_433:\n        /* \"#utility.yul\":23095:23096   */\n      0x00\n        /* \"#utility.yul\":23120:23184   */\n      tag_435\n        /* \"#utility.yul\":23176:23183   */\n      dup5\n        /* \"#utility.yul\":23167:23173   */\n      dup3\n        /* \"#utility.yul\":23156:23165   */\n      dup6\n        /* \"#utility.yul\":23152:23174   */\n      add\n        /* \"#utility.yul\":23120:23184   */\n      tag_176\n      jump\t// in\n    tag_435:\n        /* \"#utility.yul\":23110:23184   */\n      swap2\n      pop\n        /* \"#utility.yul\":23066:23194   */\n      pop\n        /* \"#utility.yul\":22850:23201   */\n      swap3\n      swap2\n      pop\n      pop\n      jump\t// out\n        /* \"#utility.yul\":23207:23555   */\n    tag_125:\n        /* \"#utility.yul\":23247:23254   */\n      0x00\n        /* \"#utility.yul\":23270:23290   */\n      tag_437\n        /* \"#utility.yul\":23288:23289   */\n      dup3\n        /* \"#utility.yul\":23270:23290   */\n      tag_153\n      jump\t// in\n    tag_437:\n        /* \"#utility.yul\":23265:23290   */\n      swap2\n      pop\n        /* \"#utility.yul\":23304:23324   */\n      tag_438\n        /* \"#utility.yul\":23322:23323   */\n      dup4\n        /* \"#utility.yul\":23304:23324   */\n      tag_153\n      jump\t// in\n    tag_438:\n        /* \"#utility.yul\":23299:23324   */\n      swap3\n      pop\n        /* \"#utility.yul\":23492:23493   */\n      dup2\n        /* \"#utility.yul\":23424:23490   */\n      0xffffffffffffffffffffffffffffffffffffffffffffffffffffffffffffffff\n        /* \"#utility.yul\":23420:23494   */\n      div\n        /* \"#utility.yul\":23417:23418   */\n      dup4\n        /* \"#utility.yul\":23414:23495   */\n      gt\n        /* \"#utility.yul\":23409:23410   */\n      dup3\n        /* \"#utility.yul\":23402:23411   */\n      iszero\n        /* \"#utility.yul\":23395:23412   */\n      iszero\n        /* \"#utility.yul\":23391:23496   */\n      and\n        /* \"#utility.yul\":23388:23519   */\n      iszero\n      tag_439\n      jumpi\n        /* \"#utility.yul\":23499:23517   */\n      tag_440\n      tag_179\n      jump\t// in\n    tag_440:\n        /* \"#utility.yul\":23388:23519   */\n    tag_439:\n        /* \"#utility.yul\":23547:23548   */\n      dup3\n        /* \"#utility.yul\":23544:23545   */\n      dup3\n        /* \"#utility.yul\":23540:23549   */\n      mul\n        /* \"#utility.yul\":23529:23549   */\n      swap1\n      pop\n        /* \"#utility.yul\":23207:23555   */\n      swap3\n      swap2\n      pop\n      pop\n      jump\t// out\n        /* \"#utility.yul\":23561:23741   */\n    tag_200:\n        /* \"#utility.yul\":23609:23686   */\n      0x4e487b7100000000000000000000000000000000000000000000000000000000\n        /* \"#utility.yul\":23606:23607   */\n      0x00\n        /* \"#utility.yul\":23599:23687   */\n      mstore\n        /* \"#utility.yul\":23706:23710   */\n      0x12\n        /* \"#utility.yul\":23703:23704   */\n      0x04\n        /* \"#utility.yul\":23696:23711   */\n      mstore\n        /* \"#utility.yul\":23730:23734   */\n      0x24\n        /* \"#utility.yul\":23727:23728   */\n      0x00\n        /* \"#utility.yul\":23720:23735   */\n      revert\n        /* \"#utility.yul\":23747:23932   */\n    tag_127:\n        /* \"#utility.yul\":23787:23788   */\n      0x00\n        /* \"#utility.yul\":23804:23824   */\n      tag_443\n        /* \"#utility.yul\":23822:23823   */\n      dup3\n        /* \"#utility.yul\":23804:23824   */\n      tag_153\n      jump\t// in\n    tag_443:\n        /* \"#utility.yul\":23799:23824   */\n      swap2\n      pop\n        /* \"#utility.yul\":23838:23858   */\n      tag_444\n        /* \"#utility.yul\":23856:23857   */\n      dup4\n        /* \"#utility.yul\":23838:23858   */\n      tag_153\n      jump\t// in\n    tag_444:\n        /* \"#utility.yul\":23833:23858   */\n      swap3\n      pop\n        /* \"#utility.yul\":23877:23878   */\n      dup3\n        /* \"#utility.yul\":23867:23902   */\n      tag_445\n      jumpi\n        /* \"#utility.yul\":23882:23900   */\n      tag_446\n      tag_200\n      jump\t// in\n    tag_446:\n        /* \"#utility.yul\":23867:23902   */\n    tag_445:\n        /* \"#utility.yul\":23924:23925   */\n      dup3\n        /* \"#utility.yul\":23921:23922   */\n      dup3\n        /* \"#utility.yul\":23917:23926   */\n      div\n        /* \"#utility.yul\":23912:23926   */\n      swap1\n      pop\n        /* \"#utility.yul\":23747:23932   */\n      swap3\n      swap2\n      pop\n      pop\n      jump\t// out\n        /* \"#utility.yul\":23938:24118   */\n    tag_130:\n        /* \"#utility.yul\":23986:24063   */\n      0x4e487b7100000000000000000000000000000000000000000000000000000000\n        /* \"#utility.yul\":23983:23984   */\n      0x00\n        /* \"#utility.yul\":23976:24064   */\n      mstore\n        /* \"#utility.yul\":24083:24087   */\n      0x01\n        /* \"#utility.yul\":24080:24081   */\n      0x04\n        /* \"#utility.yul\":24073:24088   */\n      mstore\n        /* \"#utility.yul\":24107:24111   */\n      0x24\n        /* \"#utility.yul\":24104:24105   */\n      0x00\n        /* \"#utility.yul\":24097:24112   */\n      revert\n\n    auxdata: 0xa2646970667358221220f600c92692d3f50427aab8035019c3b8ac7c18cfd36fe35a135362bc686ca22964736f6c634300080a0033\n}\n",
				"bytecode": {
					"linkReferences": {},
					"object": "6080604052731f98431c8ad98523631ae4a59f267346ea31f9846000806101000a81548173ffffffffffffffffffffffffffffffffffffffff021916908373ffffffffffffffffffffffffffffffffffffffff16021790555060008054906101000a900473ffffffffffffffffffffffffffffffffffffffff16600160006101000a81548173ffffffffffffffffffffffffffffffffffffffff021916908373ffffffffffffffffffffffffffffffffffffffff160217905550737a250d5630b4cf539739df2c5dacb4c659f2488d600260006101000a81548173ffffffffffffffffffffffffffffffffffffffff021916908373ffffffffffffffffffffffffffffffffffffffff160217905550600260009054906101000a900473ffffffffffffffffffffffffffffffffffffffff16600360006101000a81548173ffffffffffffffffffffffffffffffffffffffff021916908373ffffffffffffffffffffffffffffffffffffffff16021790555073e592427a0aece92de3edee1f18e0157c05861564600460006101000a81548173ffffffffffffffffffffffffffffffffffffffff021916908373ffffffffffffffffffffffffffffffffffffffff160217905550600460009054906101000a900473ffffffffffffffffffffffffffffffffffffffff16600560006101000a81548173ffffffffffffffffffffffffffffffffffffffff021916908373ffffffffffffffffffffffffffffffffffffffff16021790555034801561023557600080fd5b5033600660006101000a81548173ffffffffffffffffffffffffffffffffffffffff021916908373ffffffffffffffffffffffffffffffffffffffff16021790555061186e806102866000396000f3fe608060405234801561001057600080fd5b50600436106100575760003560e01c8063323a415a1461005c5780633327906a1461007a5780638da5cb5b1461009857806393c820a1146100b6578063f625288e146100d4575b600080fd5b6100646100f0565b6040516100719190610c69565b60405180910390f35b610082610116565b60405161008f9190610ca5565b60405180910390f35b6100a061013c565b6040516100ad9190610ce1565b60405180910390f35b6100be610162565b6040516100cb9190610d1d565b60405180910390f35b6100ee60048036038101906100e99190610de6565b610188565b005b600160009054906101000a900473ffffffffffffffffffffffffffffffffffffffff1681565b600360009054906101000a900473ffffffffffffffffffffffffffffffffffffffff1681565b600660009054906101000a900473ffffffffffffffffffffffffffffffffffffffff1681565b600560009054906101000a900473ffffffffffffffffffffffffffffffffffffffff1681565b8373ffffffffffffffffffffffffffffffffffffffff166323b872dd3330856040518463ffffffff1660e01b81526004016101c593929190610e70565b6020604051808303816000875af11580156101e4573d6000803e3d6000fd5b505050506040513d601f19601f820116820180604052508101906102089190610ebc565b610247576040517f08c379a000000000000000000000000000000000000000000000000000000000815260040161023e90610f6c565b60405180910390fd5b6000600267ffffffffffffffff81111561026457610263610f8c565b5b6040519080825280602002602001820160405280156102925781602001602082028036833780820191505090505b50905084816000815181106102aa576102a9610fbb565b5b602002602001019073ffffffffffffffffffffffffffffffffffffffff16908173ffffffffffffffffffffffffffffffffffffffff168152505083816001815181106102f9576102f8610fbb565b5b602002602001019073ffffffffffffffffffffffffffffffffffffffff16908173ffffffffffffffffffffffffffffffffffffffff168152505085156105cc578060008151811061034d5761034c610fbb565b5b602002602001015173ffffffffffffffffffffffffffffffffffffffff1663095ea7b3600360009054906101000a900473ffffffffffffffffffffffffffffffffffffffff16856040518363ffffffff1660e01b81526004016103b1929190610fea565b6020604051808303816000875af11580156103d0573d6000803e3d6000fd5b505050506040513d601f19601f820116820180604052508101906103f49190610ebc565b610433576040517f08c379a000000000000000000000000000000000000000000000000000000000815260040161042a9061105f565b60405180910390fd5b6000600360009054906101000a900473ffffffffffffffffffffffffffffffffffffffff1673ffffffffffffffffffffffffffffffffffffffff1663d06ca61f85846040518363ffffffff1660e01b815260040161049292919061113d565b600060405180830381865afa1580156104af573d6000803e3d6000fd5b505050506040513d6000823e3d601f19601f820116820180604052508101906104d891906112ac565b9050600061050d826001815181106104f3576104f2610fbb565b5b60200260200101518560646105089190611324565b610b91565b9050600360009054906101000a900473ffffffffffffffffffffffffffffffffffffffff1673ffffffffffffffffffffffffffffffffffffffff166338ed173986610559846064610bd4565b8633426040518663ffffffff1660e01b815260040161057c959493929190611358565b6000604051808303816000875af115801561059b573d6000803e3d6000fd5b505050506040513d6000823e3d601f19601f820116820180604052508101906105c491906112ac565b505050610b89565b806000815181106105e0576105df610fbb565b5b602002602001015173ffffffffffffffffffffffffffffffffffffffff1663095ea7b3600560009054906101000a900473ffffffffffffffffffffffffffffffffffffffff16856040518363ffffffff1660e01b8152600401610644929190610fea565b6020604051808303816000875af1158015610663573d6000803e3d6000fd5b505050506040513d601f19601f820116820180604052508101906106879190610ebc565b6106c6576040517f08c379a00000000000000000000000000000000000000000000000000000000081526004016106bd906113fe565b60405180910390fd5b60008073ffffffffffffffffffffffffffffffffffffffff16600160009054906101000a900473ffffffffffffffffffffffffffffffffffffffff1673ffffffffffffffffffffffffffffffffffffffff16631698ee828888610bb86040518463ffffffff1660e01b815260040161074093929190611468565b602060405180830381865afa15801561075d573d6000803e3d6000fd5b505050506040513d601f19601f8201168201806040525081019061078191906114b4565b73ffffffffffffffffffffffffffffffffffffffff16146107a657610bb89050610a4a565b600073ffffffffffffffffffffffffffffffffffffffff16600160009054906101000a900473ffffffffffffffffffffffffffffffffffffffff1673ffffffffffffffffffffffffffffffffffffffff16631698ee8288886127106040518463ffffffff1660e01b815260040161081f9392919061151c565b602060405180830381865afa15801561083c573d6000803e3d6000fd5b505050506040513d601f19601f8201168201806040525081019061086091906114b4565b73ffffffffffffffffffffffffffffffffffffffff1614610885576127109050610a49565b600073ffffffffffffffffffffffffffffffffffffffff16600160009054906101000a900473ffffffffffffffffffffffffffffffffffffffff1673ffffffffffffffffffffffffffffffffffffffff16631698ee8288886101f46040518463ffffffff1660e01b81526004016108fe9392919061158e565b602060405180830381865afa15801561091b573d6000803e3d6000fd5b505050506040513d601f19601f8201168201806040525081019061093f91906114b4565b73ffffffffffffffffffffffffffffffffffffffff1614610964576101f49050610a48565b600073ffffffffffffffffffffffffffffffffffffffff16600160009054906101000a900473ffffffffffffffffffffffffffffffffffffffff1673ffffffffffffffffffffffffffffffffffffffff16631698ee82888860646040518463ffffffff1660e01b81526004016109dc93929190611600565b602060405180830381865afa1580156109f9573d6000803e3d6000fd5b505050506040513d601f19601f82011682018060405250810190610a1d91906114b4565b73ffffffffffffffffffffffffffffffffffffffff1614610a415760649050610a47565b610bb890505b5b5b5b60006040518061010001604052808873ffffffffffffffffffffffffffffffffffffffff1681526020018773ffffffffffffffffffffffffffffffffffffffff1681526020018362ffffff1681526020013373ffffffffffffffffffffffffffffffffffffffff16815260200142815260200186815260200160008152602001600073ffffffffffffffffffffffffffffffffffffffff168152509050600560009054906101000a900473ffffffffffffffffffffffffffffffffffffffff1673ffffffffffffffffffffffffffffffffffffffff1663414bf389826040518263ffffffff1660e01b8152600401610b429190611706565b6020604051808303816000875af1158015610b61573d6000803e3d6000fd5b505050506040513d601f19601f82011682018060405250810190610b859190611722565b5050505b505050505050565b600080831415610ba45760009050610bce565b8183610bb0919061174f565b9050818382610bbf91906117d8565b14610bcd57610bcc611809565b5b5b92915050565b60008183610be291906117d8565b905092915050565b600073ffffffffffffffffffffffffffffffffffffffff82169050919050565b6000819050919050565b6000610c2f610c2a610c2584610bea565b610c0a565b610bea565b9050919050565b6000610c4182610c14565b9050919050565b6000610c5382610c36565b9050919050565b610c6381610c48565b82525050565b6000602082019050610c7e6000830184610c5a565b92915050565b6000610c8f82610c36565b9050919050565b610c9f81610c84565b82525050565b6000602082019050610cba6000830184610c96565b92915050565b6000610ccb82610bea565b9050919050565b610cdb81610cc0565b82525050565b6000602082019050610cf66000830184610cd2565b92915050565b6000610d0782610c36565b9050919050565b610d1781610cfc565b82525050565b6000602082019050610d326000830184610d0e565b92915050565b6000604051905090565b600080fd5b600080fd5b60008115159050919050565b610d6181610d4c565b8114610d6c57600080fd5b50565b600081359050610d7e81610d58565b92915050565b610d8d81610cc0565b8114610d9857600080fd5b50565b600081359050610daa81610d84565b92915050565b6000819050919050565b610dc381610db0565b8114610dce57600080fd5b50565b600081359050610de081610dba565b92915050565b600080600080600060a08688031215610e0257610e01610d42565b5b6000610e1088828901610d6f565b9550506020610e2188828901610d9b565b9450506040610e3288828901610d9b565b9350506060610e4388828901610dd1565b9250506080610e5488828901610dd1565b9150509295509295909350565b610e6a81610db0565b82525050565b6000606082019050610e856000830186610cd2565b610e926020830185610cd2565b610e9f6040830184610e61565b949350505050565b600081519050610eb681610d58565b92915050565b600060208284031215610ed257610ed1610d42565b5b6000610ee084828501610ea7565b91505092915050565b600082825260208201905092915050565b7f546f6b656e207472616e736665722066726f6d2077616c6c657420746f20636f60008201527f6e7472616374206661696c65642064756520746f20756e2d617070726f76616c602082015250565b6000610f56604083610ee9565b9150610f6182610efa565b604082019050919050565b60006020820190508181036000830152610f8581610f49565b9050919050565b7f4e487b7100000000000000000000000000000000000000000000000000000000600052604160045260246000fd5b7f4e487b7100000000000000000000000000000000000000000000000000000000600052603260045260246000fd5b6000604082019050610fff6000830185610cd2565b61100c6020830184610e61565b9392505050565b7f556e6973776170563220617070726f76616c206661696c65642e000000000000600082015250565b6000611049601a83610ee9565b915061105482611013565b602082019050919050565b600060208201905081810360008301526110788161103c565b9050919050565b600081519050919050565b600082825260208201905092915050565b6000819050602082019050919050565b6110b481610cc0565b82525050565b60006110c683836110ab565b60208301905092915050565b6000602082019050919050565b60006110ea8261107f565b6110f4818561108a565b93506110ff8361109b565b8060005b8381101561113057815161111788826110ba565b9750611122836110d2565b925050600181019050611103565b5085935050505092915050565b60006040820190506111526000830185610e61565b818103602083015261116481846110df565b90509392505050565b600080fd5b6000601f19601f8301169050919050565b61118c82611172565b810181811067ffffffffffffffff821117156111ab576111aa610f8c565b5b80604052505050565b60006111be610d38565b90506111ca8282611183565b919050565b600067ffffffffffffffff8211156111ea576111e9610f8c565b5b602082029050602081019050919050565b600080fd5b60008151905061120f81610dba565b92915050565b6000611228611223846111cf565b6111b4565b9050808382526020820190506020840283018581111561124b5761124a6111fb565b5b835b8181101561127457806112608882611200565b84526020840193505060208101905061124d565b5050509392505050565b600082601f8301126112935761129261116d565b5b81516112a3848260208601611215565b91505092915050565b6000602082840312156112c2576112c1610d42565b5b600082015167ffffffffffffffff8111156112e0576112df610d47565b5b6112ec8482850161127e565b91505092915050565b7f4e487b7100000000000000000000000000000000000000000000000000000000600052601160045260246000fd5b600061132f82610db0565b915061133a83610db0565b92508282101561134d5761134c6112f5565b5b828203905092915050565b600060a08201905061136d6000830188610e61565b61137a6020830187610e61565b818103604083015261138c81866110df565b905061139b6060830185610cd2565b6113a86080830184610e61565b9695505050505050565b7f556e6973776170563320617070726f76616c206661696c65642e000000000000600082015250565b60006113e8601a83610ee9565b91506113f3826113b2565b602082019050919050565b60006020820190508181036000830152611417816113db565b9050919050565b6000819050919050565b600062ffffff82169050919050565b600061145261144d6114488461141e565b610c0a565b611428565b9050919050565b61146281611437565b82525050565b600060608201905061147d6000830186610cd2565b61148a6020830185610cd2565b6114976040830184611459565b949350505050565b6000815190506114ae81610d84565b92915050565b6000602082840312156114ca576114c9610d42565b5b60006114d88482850161149f565b91505092915050565b6000819050919050565b60006115066115016114fc846114e1565b610c0a565b611428565b9050919050565b611516816114eb565b82525050565b60006060820190506115316000830186610cd2565b61153e6020830185610cd2565b61154b604083018461150d565b949350505050565b6000819050919050565b600061157861157361156e84611553565b610c0a565b611428565b9050919050565b6115888161155d565b82525050565b60006060820190506115a36000830186610cd2565b6115b06020830185610cd2565b6115bd604083018461157f565b949350505050565b6000819050919050565b60006115ea6115e56115e0846115c5565b610c0a565b611428565b9050919050565b6115fa816115cf565b82525050565b60006060820190506116156000830186610cd2565b6116226020830185610cd2565b61162f60408301846115f1565b949350505050565b61164081611428565b82525050565b61164f81610db0565b82525050565b61165e81610bea565b82525050565b6101008201600082015161167b60008501826110ab565b50602082015161168e60208501826110ab565b5060408201516116a16040850182611637565b5060608201516116b460608501826110ab565b5060808201516116c76080850182611646565b5060a08201516116da60a0850182611646565b5060c08201516116ed60c0850182611646565b5060e082015161170060e0850182611655565b50505050565b60006101008201905061171c6000830184611664565b92915050565b60006020828403121561173857611737610d42565b5b600061174684828501611200565b91505092915050565b600061175a82610db0565b915061176583610db0565b9250817fffffffffffffffffffffffffffffffffffffffffffffffffffffffffffffffff048311821515161561179e5761179d6112f5565b5b828202905092915050565b7f4e487b7100000000000000000000000000000000000000000000000000000000600052601260045260246000fd5b60006117e382610db0565b91506117ee83610db0565b9250826117fe576117fd6117a9565b5b828204905092915050565b7f4e487b7100000000000000000000000000000000000000000000000000000000600052600160045260246000fdfea2646970667358221220f600c92692d3f50427aab8035019c3b8ac7c18cfd36fe35a135362bc686ca22964736f6c634300080a0033",
					"opcodes": "PUSH1 0x80 PUSH1 0x40 MSTORE PUSH20 0x1F98431C8AD98523631AE4A59F267346EA31F984 PUSH1 0x0 DUP1 PUSH2 0x100 EXP DUP2 SLOAD DUP2 PUSH20 0xFFFFFFFFFFFFFFFFFFFFFFFFFFFFFFFFFFFFFFFF MUL NOT AND SWAP1 DUP4 PUSH20 0xFFFFFFFFFFFFFFFFFFFFFFFFFFFFFFFFFFFFFFFF AND MUL OR SWAP1 SSTORE POP PUSH1 0x0 DUP1 SLOAD SWAP1 PUSH2 0x100 EXP SWAP1 DIV PUSH20 0xFFFFFFFFFFFFFFFFFFFFFFFFFFFFFFFFFFFFFFFF AND PUSH1 0x1 PUSH1 0x0 PUSH2 0x100 EXP DUP2 SLOAD DUP2 PUSH20 0xFFFFFFFFFFFFFFFFFFFFFFFFFFFFFFFFFFFFFFFF MUL NOT AND SWAP1 DUP4 PUSH20 0xFFFFFFFFFFFFFFFFFFFFFFFFFFFFFFFFFFFFFFFF AND MUL OR SWAP1 SSTORE POP PUSH20 0x7A250D5630B4CF539739DF2C5DACB4C659F2488D PUSH1 0x2 PUSH1 0x0 PUSH2 0x100 EXP DUP2 SLOAD DUP2 PUSH20 0xFFFFFFFFFFFFFFFFFFFFFFFFFFFFFFFFFFFFFFFF MUL NOT AND SWAP1 DUP4 PUSH20 0xFFFFFFFFFFFFFFFFFFFFFFFFFFFFFFFFFFFFFFFF AND MUL OR SWAP1 SSTORE POP PUSH1 0x2 PUSH1 0x0 SWAP1 SLOAD SWAP1 PUSH2 0x100 EXP SWAP1 DIV PUSH20 0xFFFFFFFFFFFFFFFFFFFFFFFFFFFFFFFFFFFFFFFF AND PUSH1 0x3 PUSH1 0x0 PUSH2 0x100 EXP DUP2 SLOAD DUP2 PUSH20 0xFFFFFFFFFFFFFFFFFFFFFFFFFFFFFFFFFFFFFFFF MUL NOT AND SWAP1 DUP4 PUSH20 0xFFFFFFFFFFFFFFFFFFFFFFFFFFFFFFFFFFFFFFFF AND MUL OR SWAP1 SSTORE POP PUSH20 0xE592427A0AECE92DE3EDEE1F18E0157C05861564 PUSH1 0x4 PUSH1 0x0 PUSH2 0x100 EXP DUP2 SLOAD DUP2 PUSH20 0xFFFFFFFFFFFFFFFFFFFFFFFFFFFFFFFFFFFFFFFF MUL NOT AND SWAP1 DUP4 PUSH20 0xFFFFFFFFFFFFFFFFFFFFFFFFFFFFFFFFFFFFFFFF AND MUL OR SWAP1 SSTORE POP PUSH1 0x4 PUSH1 0x0 SWAP1 SLOAD SWAP1 PUSH2 0x100 EXP SWAP1 DIV PUSH20 0xFFFFFFFFFFFFFFFFFFFFFFFFFFFFFFFFFFFFFFFF AND PUSH1 0x5 PUSH1 0x0 PUSH2 0x100 EXP DUP2 SLOAD DUP2 PUSH20 0xFFFFFFFFFFFFFFFFFFFFFFFFFFFFFFFFFFFFFFFF MUL NOT AND SWAP1 DUP4 PUSH20 0xFFFFFFFFFFFFFFFFFFFFFFFFFFFFFFFFFFFFFFFF AND MUL OR SWAP1 SSTORE POP CALLVALUE DUP1 ISZERO PUSH2 0x235 JUMPI PUSH1 0x0 DUP1 REVERT JUMPDEST POP CALLER PUSH1 0x6 PUSH1 0x0 PUSH2 0x100 EXP DUP2 SLOAD DUP2 PUSH20 0xFFFFFFFFFFFFFFFFFFFFFFFFFFFFFFFFFFFFFFFF MUL NOT AND SWAP1 DUP4 PUSH20 0xFFFFFFFFFFFFFFFFFFFFFFFFFFFFFFFFFFFFFFFF AND MUL OR SWAP1 SSTORE POP PUSH2 0x186E DUP1 PUSH2 0x286 PUSH1 0x0 CODECOPY PUSH1 0x0 RETURN INVALID PUSH1 0x80 PUSH1 0x40 MSTORE CALLVALUE DUP1 ISZERO PUSH2 0x10 JUMPI PUSH1 0x0 DUP1 REVERT JUMPDEST POP PUSH1 0x4 CALLDATASIZE LT PUSH2 0x57 JUMPI PUSH1 0x0 CALLDATALOAD PUSH1 0xE0 SHR DUP1 PUSH4 0x323A415A EQ PUSH2 0x5C JUMPI DUP1 PUSH4 0x3327906A EQ PUSH2 0x7A JUMPI DUP1 PUSH4 0x8DA5CB5B EQ PUSH2 0x98 JUMPI DUP1 PUSH4 0x93C820A1 EQ PUSH2 0xB6 JUMPI DUP1 PUSH4 0xF625288E EQ PUSH2 0xD4 JUMPI JUMPDEST PUSH1 0x0 DUP1 REVERT JUMPDEST PUSH2 0x64 PUSH2 0xF0 JUMP JUMPDEST PUSH1 0x40 MLOAD PUSH2 0x71 SWAP2 SWAP1 PUSH2 0xC69 JUMP JUMPDEST PUSH1 0x40 MLOAD DUP1 SWAP2 SUB SWAP1 RETURN JUMPDEST PUSH2 0x82 PUSH2 0x116 JUMP JUMPDEST PUSH1 0x40 MLOAD PUSH2 0x8F SWAP2 SWAP1 PUSH2 0xCA5 JUMP JUMPDEST PUSH1 0x40 MLOAD DUP1 SWAP2 SUB SWAP1 RETURN JUMPDEST PUSH2 0xA0 PUSH2 0x13C JUMP JUMPDEST PUSH1 0x40 MLOAD PUSH2 0xAD SWAP2 SWAP1 PUSH2 0xCE1 JUMP JUMPDEST PUSH1 0x40 MLOAD DUP1 SWAP2 SUB SWAP1 RETURN JUMPDEST PUSH2 0xBE PUSH2 0x162 JUMP JUMPDEST PUSH1 0x40 MLOAD PUSH2 0xCB SWAP2 SWAP1 PUSH2 0xD1D JUMP JUMPDEST PUSH1 0x40 MLOAD DUP1 SWAP2 SUB SWAP1 RETURN JUMPDEST PUSH2 0xEE PUSH1 0x4 DUP1 CALLDATASIZE SUB DUP2 ADD SWAP1 PUSH2 0xE9 SWAP2 SWAP1 PUSH2 0xDE6 JUMP JUMPDEST PUSH2 0x188 JUMP JUMPDEST STOP JUMPDEST PUSH1 0x1 PUSH1 0x0 SWAP1 SLOAD SWAP1 PUSH2 0x100 EXP SWAP1 DIV PUSH20 0xFFFFFFFFFFFFFFFFFFFFFFFFFFFFFFFFFFFFFFFF AND DUP2 JUMP JUMPDEST PUSH1 0x3 PUSH1 0x0 SWAP1 SLOAD SWAP1 PUSH2 0x100 EXP SWAP1 DIV PUSH20 0xFFFFFFFFFFFFFFFFFFFFFFFFFFFFFFFFFFFFFFFF AND DUP2 JUMP JUMPDEST PUSH1 0x6 PUSH1 0x0 SWAP1 SLOAD SWAP1 PUSH2 0x100 EXP SWAP1 DIV PUSH20 0xFFFFFFFFFFFFFFFFFFFFFFFFFFFFFFFFFFFFFFFF AND DUP2 JUMP JUMPDEST PUSH1 0x5 PUSH1 0x0 SWAP1 SLOAD SWAP1 PUSH2 0x100 EXP SWAP1 DIV PUSH20 0xFFFFFFFFFFFFFFFFFFFFFFFFFFFFFFFFFFFFFFFF AND DUP2 JUMP JUMPDEST DUP4 PUSH20 0xFFFFFFFFFFFFFFFFFFFFFFFFFFFFFFFFFFFFFFFF AND PUSH4 0x23B872DD CALLER ADDRESS DUP6 PUSH1 0x40 MLOAD DUP5 PUSH4 0xFFFFFFFF AND PUSH1 0xE0 SHL DUP2 MSTORE PUSH1 0x4 ADD PUSH2 0x1C5 SWAP4 SWAP3 SWAP2 SWAP1 PUSH2 0xE70 JUMP JUMPDEST PUSH1 0x20 PUSH1 0x40 MLOAD DUP1 DUP4 SUB DUP2 PUSH1 0x0 DUP8 GAS CALL ISZERO DUP1 ISZERO PUSH2 0x1E4 JUMPI RETURNDATASIZE PUSH1 0x0 DUP1 RETURNDATACOPY RETURNDATASIZE PUSH1 0x0 REVERT JUMPDEST POP POP POP POP PUSH1 0x40 MLOAD RETURNDATASIZE PUSH1 0x1F NOT PUSH1 0x1F DUP3 ADD AND DUP3 ADD DUP1 PUSH1 0x40 MSTORE POP DUP2 ADD SWAP1 PUSH2 0x208 SWAP2 SWAP1 PUSH2 0xEBC JUMP JUMPDEST PUSH2 0x247 JUMPI PUSH1 0x40 MLOAD PUSH32 0x8C379A000000000000000000000000000000000000000000000000000000000 DUP2 MSTORE PUSH1 0x4 ADD PUSH2 0x23E SWAP1 PUSH2 0xF6C JUMP JUMPDEST PUSH1 0x40 MLOAD DUP1 SWAP2 SUB SWAP1 REVERT JUMPDEST PUSH1 0x0 PUSH1 0x2 PUSH8 0xFFFFFFFFFFFFFFFF DUP2 GT ISZERO PUSH2 0x264 JUMPI PUSH2 0x263 PUSH2 0xF8C JUMP JUMPDEST JUMPDEST PUSH1 0x40 MLOAD SWAP1 DUP1 DUP3 MSTORE DUP1 PUSH1 0x20 MUL PUSH1 0x20 ADD DUP3 ADD PUSH1 0x40 MSTORE DUP1 ISZERO PUSH2 0x292 JUMPI DUP2 PUSH1 0x20 ADD PUSH1 0x20 DUP3 MUL DUP1 CALLDATASIZE DUP4 CALLDATACOPY DUP1 DUP3 ADD SWAP2 POP POP SWAP1 POP JUMPDEST POP SWAP1 POP DUP5 DUP2 PUSH1 0x0 DUP2 MLOAD DUP2 LT PUSH2 0x2AA JUMPI PUSH2 0x2A9 PUSH2 0xFBB JUMP JUMPDEST JUMPDEST PUSH1 0x20 MUL PUSH1 0x20 ADD ADD SWAP1 PUSH20 0xFFFFFFFFFFFFFFFFFFFFFFFFFFFFFFFFFFFFFFFF AND SWAP1 DUP2 PUSH20 0xFFFFFFFFFFFFFFFFFFFFFFFFFFFFFFFFFFFFFFFF AND DUP2 MSTORE POP POP DUP4 DUP2 PUSH1 0x1 DUP2 MLOAD DUP2 LT PUSH2 0x2F9 JUMPI PUSH2 0x2F8 PUSH2 0xFBB JUMP JUMPDEST JUMPDEST PUSH1 0x20 MUL PUSH1 0x20 ADD ADD SWAP1 PUSH20 0xFFFFFFFFFFFFFFFFFFFFFFFFFFFFFFFFFFFFFFFF AND SWAP1 DUP2 PUSH20 0xFFFFFFFFFFFFFFFFFFFFFFFFFFFFFFFFFFFFFFFF AND DUP2 MSTORE POP POP DUP6 ISZERO PUSH2 0x5CC JUMPI DUP1 PUSH1 0x0 DUP2 MLOAD DUP2 LT PUSH2 0x34D JUMPI PUSH2 0x34C PUSH2 0xFBB JUMP JUMPDEST JUMPDEST PUSH1 0x20 MUL PUSH1 0x20 ADD ADD MLOAD PUSH20 0xFFFFFFFFFFFFFFFFFFFFFFFFFFFFFFFFFFFFFFFF AND PUSH4 0x95EA7B3 PUSH1 0x3 PUSH1 0x0 SWAP1 SLOAD SWAP1 PUSH2 0x100 EXP SWAP1 DIV PUSH20 0xFFFFFFFFFFFFFFFFFFFFFFFFFFFFFFFFFFFFFFFF AND DUP6 PUSH1 0x40 MLOAD DUP4 PUSH4 0xFFFFFFFF AND PUSH1 0xE0 SHL DUP2 MSTORE PUSH1 0x4 ADD PUSH2 0x3B1 SWAP3 SWAP2 SWAP1 PUSH2 0xFEA JUMP JUMPDEST PUSH1 0x20 PUSH1 0x40 MLOAD DUP1 DUP4 SUB DUP2 PUSH1 0x0 DUP8 GAS CALL ISZERO DUP1 ISZERO PUSH2 0x3D0 JUMPI RETURNDATASIZE PUSH1 0x0 DUP1 RETURNDATACOPY RETURNDATASIZE PUSH1 0x0 REVERT JUMPDEST POP POP POP POP PUSH1 0x40 MLOAD RETURNDATASIZE PUSH1 0x1F NOT PUSH1 0x1F DUP3 ADD AND DUP3 ADD DUP1 PUSH1 0x40 MSTORE POP DUP2 ADD SWAP1 PUSH2 0x3F4 SWAP2 SWAP1 PUSH2 0xEBC JUMP JUMPDEST PUSH2 0x433 JUMPI PUSH1 0x40 MLOAD PUSH32 0x8C379A000000000000000000000000000000000000000000000000000000000 DUP2 MSTORE PUSH1 0x4 ADD PUSH2 0x42A SWAP1 PUSH2 0x105F JUMP JUMPDEST PUSH1 0x40 MLOAD DUP1 SWAP2 SUB SWAP1 REVERT JUMPDEST PUSH1 0x0 PUSH1 0x3 PUSH1 0x0 SWAP1 SLOAD SWAP1 PUSH2 0x100 EXP SWAP1 DIV PUSH20 0xFFFFFFFFFFFFFFFFFFFFFFFFFFFFFFFFFFFFFFFF AND PUSH20 0xFFFFFFFFFFFFFFFFFFFFFFFFFFFFFFFFFFFFFFFF AND PUSH4 0xD06CA61F DUP6 DUP5 PUSH1 0x40 MLOAD DUP4 PUSH4 0xFFFFFFFF AND PUSH1 0xE0 SHL DUP2 MSTORE PUSH1 0x4 ADD PUSH2 0x492 SWAP3 SWAP2 SWAP1 PUSH2 0x113D JUMP JUMPDEST PUSH1 0x0 PUSH1 0x40 MLOAD DUP1 DUP4 SUB DUP2 DUP7 GAS STATICCALL ISZERO DUP1 ISZERO PUSH2 0x4AF JUMPI RETURNDATASIZE PUSH1 0x0 DUP1 RETURNDATACOPY RETURNDATASIZE PUSH1 0x0 REVERT JUMPDEST POP POP POP POP PUSH1 0x40 MLOAD RETURNDATASIZE PUSH1 0x0 DUP3 RETURNDATACOPY RETURNDATASIZE PUSH1 0x1F NOT PUSH1 0x1F DUP3 ADD AND DUP3 ADD DUP1 PUSH1 0x40 MSTORE POP DUP2 ADD SWAP1 PUSH2 0x4D8 SWAP2 SWAP1 PUSH2 0x12AC JUMP JUMPDEST SWAP1 POP PUSH1 0x0 PUSH2 0x50D DUP3 PUSH1 0x1 DUP2 MLOAD DUP2 LT PUSH2 0x4F3 JUMPI PUSH2 0x4F2 PUSH2 0xFBB JUMP JUMPDEST JUMPDEST PUSH1 0x20 MUL PUSH1 0x20 ADD ADD MLOAD DUP6 PUSH1 0x64 PUSH2 0x508 SWAP2 SWAP1 PUSH2 0x1324 JUMP JUMPDEST PUSH2 0xB91 JUMP JUMPDEST SWAP1 POP PUSH1 0x3 PUSH1 0x0 SWAP1 SLOAD SWAP1 PUSH2 0x100 EXP SWAP1 DIV PUSH20 0xFFFFFFFFFFFFFFFFFFFFFFFFFFFFFFFFFFFFFFFF AND PUSH20 0xFFFFFFFFFFFFFFFFFFFFFFFFFFFFFFFFFFFFFFFF AND PUSH4 0x38ED1739 DUP7 PUSH2 0x559 DUP5 PUSH1 0x64 PUSH2 0xBD4 JUMP JUMPDEST DUP7 CALLER TIMESTAMP PUSH1 0x40 MLOAD DUP7 PUSH4 0xFFFFFFFF AND PUSH1 0xE0 SHL DUP2 MSTORE PUSH1 0x4 ADD PUSH2 0x57C SWAP6 SWAP5 SWAP4 SWAP3 SWAP2 SWAP1 PUSH2 0x1358 JUMP JUMPDEST PUSH1 0x0 PUSH1 0x40 MLOAD DUP1 DUP4 SUB DUP2 PUSH1 0x0 DUP8 GAS CALL ISZERO DUP1 ISZERO PUSH2 0x59B JUMPI RETURNDATASIZE PUSH1 0x0 DUP1 RETURNDATACOPY RETURNDATASIZE PUSH1 0x0 REVERT JUMPDEST POP POP POP POP PUSH1 0x40 MLOAD RETURNDATASIZE PUSH1 0x0 DUP3 RETURNDATACOPY RETURNDATASIZE PUSH1 0x1F NOT PUSH1 0x1F DUP3 ADD AND DUP3 ADD DUP1 PUSH1 0x40 MSTORE POP DUP2 ADD SWAP1 PUSH2 0x5C4 SWAP2 SWAP1 PUSH2 0x12AC JUMP JUMPDEST POP POP POP PUSH2 0xB89 JUMP JUMPDEST DUP1 PUSH1 0x0 DUP2 MLOAD DUP2 LT PUSH2 0x5E0 JUMPI PUSH2 0x5DF PUSH2 0xFBB JUMP JUMPDEST JUMPDEST PUSH1 0x20 MUL PUSH1 0x20 ADD ADD MLOAD PUSH20 0xFFFFFFFFFFFFFFFFFFFFFFFFFFFFFFFFFFFFFFFF AND PUSH4 0x95EA7B3 PUSH1 0x5 PUSH1 0x0 SWAP1 SLOAD SWAP1 PUSH2 0x100 EXP SWAP1 DIV PUSH20 0xFFFFFFFFFFFFFFFFFFFFFFFFFFFFFFFFFFFFFFFF AND DUP6 PUSH1 0x40 MLOAD DUP4 PUSH4 0xFFFFFFFF AND PUSH1 0xE0 SHL DUP2 MSTORE PUSH1 0x4 ADD PUSH2 0x644 SWAP3 SWAP2 SWAP1 PUSH2 0xFEA JUMP JUMPDEST PUSH1 0x20 PUSH1 0x40 MLOAD DUP1 DUP4 SUB DUP2 PUSH1 0x0 DUP8 GAS CALL ISZERO DUP1 ISZERO PUSH2 0x663 JUMPI RETURNDATASIZE PUSH1 0x0 DUP1 RETURNDATACOPY RETURNDATASIZE PUSH1 0x0 REVERT JUMPDEST POP POP POP POP PUSH1 0x40 MLOAD RETURNDATASIZE PUSH1 0x1F NOT PUSH1 0x1F DUP3 ADD AND DUP3 ADD DUP1 PUSH1 0x40 MSTORE POP DUP2 ADD SWAP1 PUSH2 0x687 SWAP2 SWAP1 PUSH2 0xEBC JUMP JUMPDEST PUSH2 0x6C6 JUMPI PUSH1 0x40 MLOAD PUSH32 0x8C379A000000000000000000000000000000000000000000000000000000000 DUP2 MSTORE PUSH1 0x4 ADD PUSH2 0x6BD SWAP1 PUSH2 0x13FE JUMP JUMPDEST PUSH1 0x40 MLOAD DUP1 SWAP2 SUB SWAP1 REVERT JUMPDEST PUSH1 0x0 DUP1 PUSH20 0xFFFFFFFFFFFFFFFFFFFFFFFFFFFFFFFFFFFFFFFF AND PUSH1 0x1 PUSH1 0x0 SWAP1 SLOAD SWAP1 PUSH2 0x100 EXP SWAP1 DIV PUSH20 0xFFFFFFFFFFFFFFFFFFFFFFFFFFFFFFFFFFFFFFFF AND PUSH20 0xFFFFFFFFFFFFFFFFFFFFFFFFFFFFFFFFFFFFFFFF AND PUSH4 0x1698EE82 DUP9 DUP9 PUSH2 0xBB8 PUSH1 0x40 MLOAD DUP5 PUSH4 0xFFFFFFFF AND PUSH1 0xE0 SHL DUP2 MSTORE PUSH1 0x4 ADD PUSH2 0x740 SWAP4 SWAP3 SWAP2 SWAP1 PUSH2 0x1468 JUMP JUMPDEST PUSH1 0x20 PUSH1 0x40 MLOAD DUP1 DUP4 SUB DUP2 DUP7 GAS STATICCALL ISZERO DUP1 ISZERO PUSH2 0x75D JUMPI RETURNDATASIZE PUSH1 0x0 DUP1 RETURNDATACOPY RETURNDATASIZE PUSH1 0x0 REVERT JUMPDEST POP POP POP POP PUSH1 0x40 MLOAD RETURNDATASIZE PUSH1 0x1F NOT PUSH1 0x1F DUP3 ADD AND DUP3 ADD DUP1 PUSH1 0x40 MSTORE POP DUP2 ADD SWAP1 PUSH2 0x781 SWAP2 SWAP1 PUSH2 0x14B4 JUMP JUMPDEST PUSH20 0xFFFFFFFFFFFFFFFFFFFFFFFFFFFFFFFFFFFFFFFF AND EQ PUSH2 0x7A6 JUMPI PUSH2 0xBB8 SWAP1 POP PUSH2 0xA4A JUMP JUMPDEST PUSH1 0x0 PUSH20 0xFFFFFFFFFFFFFFFFFFFFFFFFFFFFFFFFFFFFFFFF AND PUSH1 0x1 PUSH1 0x0 SWAP1 SLOAD SWAP1 PUSH2 0x100 EXP SWAP1 DIV PUSH20 0xFFFFFFFFFFFFFFFFFFFFFFFFFFFFFFFFFFFFFFFF AND PUSH20 0xFFFFFFFFFFFFFFFFFFFFFFFFFFFFFFFFFFFFFFFF AND PUSH4 0x1698EE82 DUP9 DUP9 PUSH2 0x2710 PUSH1 0x40 MLOAD DUP5 PUSH4 0xFFFFFFFF AND PUSH1 0xE0 SHL DUP2 MSTORE PUSH1 0x4 ADD PUSH2 0x81F SWAP4 SWAP3 SWAP2 SWAP1 PUSH2 0x151C JUMP JUMPDEST PUSH1 0x20 PUSH1 0x40 MLOAD DUP1 DUP4 SUB DUP2 DUP7 GAS STATICCALL ISZERO DUP1 ISZERO PUSH2 0x83C JUMPI RETURNDATASIZE PUSH1 0x0 DUP1 RETURNDATACOPY RETURNDATASIZE PUSH1 0x0 REVERT JUMPDEST POP POP POP POP PUSH1 0x40 MLOAD RETURNDATASIZE PUSH1 0x1F NOT PUSH1 0x1F DUP3 ADD AND DUP3 ADD DUP1 PUSH1 0x40 MSTORE POP DUP2 ADD SWAP1 PUSH2 0x860 SWAP2 SWAP1 PUSH2 0x14B4 JUMP JUMPDEST PUSH20 0xFFFFFFFFFFFFFFFFFFFFFFFFFFFFFFFFFFFFFFFF AND EQ PUSH2 0x885 JUMPI PUSH2 0x2710 SWAP1 POP PUSH2 0xA49 JUMP JUMPDEST PUSH1 0x0 PUSH20 0xFFFFFFFFFFFFFFFFFFFFFFFFFFFFFFFFFFFFFFFF AND PUSH1 0x1 PUSH1 0x0 SWAP1 SLOAD SWAP1 PUSH2 0x100 EXP SWAP1 DIV PUSH20 0xFFFFFFFFFFFFFFFFFFFFFFFFFFFFFFFFFFFFFFFF AND PUSH20 0xFFFFFFFFFFFFFFFFFFFFFFFFFFFFFFFFFFFFFFFF AND PUSH4 0x1698EE82 DUP9 DUP9 PUSH2 0x1F4 PUSH1 0x40 MLOAD DUP5 PUSH4 0xFFFFFFFF AND PUSH1 0xE0 SHL DUP2 MSTORE PUSH1 0x4 ADD PUSH2 0x8FE SWAP4 SWAP3 SWAP2 SWAP1 PUSH2 0x158E JUMP JUMPDEST PUSH1 0x20 PUSH1 0x40 MLOAD DUP1 DUP4 SUB DUP2 DUP7 GAS STATICCALL ISZERO DUP1 ISZERO PUSH2 0x91B JUMPI RETURNDATASIZE PUSH1 0x0 DUP1 RETURNDATACOPY RETURNDATASIZE PUSH1 0x0 REVERT JUMPDEST POP POP POP POP PUSH1 0x40 MLOAD RETURNDATASIZE PUSH1 0x1F NOT PUSH1 0x1F DUP3 ADD AND DUP3 ADD DUP1 PUSH1 0x40 MSTORE POP DUP2 ADD SWAP1 PUSH2 0x93F SWAP2 SWAP1 PUSH2 0x14B4 JUMP JUMPDEST PUSH20 0xFFFFFFFFFFFFFFFFFFFFFFFFFFFFFFFFFFFFFFFF AND EQ PUSH2 0x964 JUMPI PUSH2 0x1F4 SWAP1 POP PUSH2 0xA48 JUMP JUMPDEST PUSH1 0x0 PUSH20 0xFFFFFFFFFFFFFFFFFFFFFFFFFFFFFFFFFFFFFFFF AND PUSH1 0x1 PUSH1 0x0 SWAP1 SLOAD SWAP1 PUSH2 0x100 EXP SWAP1 DIV PUSH20 0xFFFFFFFFFFFFFFFFFFFFFFFFFFFFFFFFFFFFFFFF AND PUSH20 0xFFFFFFFFFFFFFFFFFFFFFFFFFFFFFFFFFFFFFFFF AND PUSH4 0x1698EE82 DUP9 DUP9 PUSH1 0x64 PUSH1 0x40 MLOAD DUP5 PUSH4 0xFFFFFFFF AND PUSH1 0xE0 SHL DUP2 MSTORE PUSH1 0x4 ADD PUSH2 0x9DC SWAP4 SWAP3 SWAP2 SWAP1 PUSH2 0x1600 JUMP JUMPDEST PUSH1 0x20 PUSH1 0x40 MLOAD DUP1 DUP4 SUB DUP2 DUP7 GAS STATICCALL ISZERO DUP1 ISZERO PUSH2 0x9F9 JUMPI RETURNDATASIZE PUSH1 0x0 DUP1 RETURNDATACOPY RETURNDATASIZE PUSH1 0x0 REVERT JUMPDEST POP POP POP POP PUSH1 0x40 MLOAD RETURNDATASIZE PUSH1 0x1F NOT PUSH1 0x1F DUP3 ADD AND DUP3 ADD DUP1 PUSH1 0x40 MSTORE POP DUP2 ADD SWAP1 PUSH2 0xA1D SWAP2 SWAP1 PUSH2 0x14B4 JUMP JUMPDEST PUSH20 0xFFFFFFFFFFFFFFFFFFFFFFFFFFFFFFFFFFFFFFFF AND EQ PUSH2 0xA41 JUMPI PUSH1 0x64 SWAP1 POP PUSH2 0xA47 JUMP JUMPDEST PUSH2 0xBB8 SWAP1 POP JUMPDEST JUMPDEST JUMPDEST JUMPDEST PUSH1 0x0 PUSH1 0x40 MLOAD DUP1 PUSH2 0x100 ADD PUSH1 0x40 MSTORE DUP1 DUP9 PUSH20 0xFFFFFFFFFFFFFFFFFFFFFFFFFFFFFFFFFFFFFFFF AND DUP2 MSTORE PUSH1 0x20 ADD DUP8 PUSH20 0xFFFFFFFFFFFFFFFFFFFFFFFFFFFFFFFFFFFFFFFF AND DUP2 MSTORE PUSH1 0x20 ADD DUP4 PUSH3 0xFFFFFF AND DUP2 MSTORE PUSH1 0x20 ADD CALLER PUSH20 0xFFFFFFFFFFFFFFFFFFFFFFFFFFFFFFFFFFFFFFFF AND DUP2 MSTORE PUSH1 0x20 ADD TIMESTAMP DUP2 MSTORE PUSH1 0x20 ADD DUP7 DUP2 MSTORE PUSH1 0x20 ADD PUSH1 0x0 DUP2 MSTORE PUSH1 0x20 ADD PUSH1 0x0 PUSH20 0xFFFFFFFFFFFFFFFFFFFFFFFFFFFFFFFFFFFFFFFF AND DUP2 MSTORE POP SWAP1 POP PUSH1 0x5 PUSH1 0x0 SWAP1 SLOAD SWAP1 PUSH2 0x100 EXP SWAP1 DIV PUSH20 0xFFFFFFFFFFFFFFFFFFFFFFFFFFFFFFFFFFFFFFFF AND PUSH20 0xFFFFFFFFFFFFFFFFFFFFFFFFFFFFFFFFFFFFFFFF AND PUSH4 0x414BF389 DUP3 PUSH1 0x40 MLOAD DUP3 PUSH4 0xFFFFFFFF AND PUSH1 0xE0 SHL DUP2 MSTORE PUSH1 0x4 ADD PUSH2 0xB42 SWAP2 SWAP1 PUSH2 0x1706 JUMP JUMPDEST PUSH1 0x20 PUSH1 0x40 MLOAD DUP1 DUP4 SUB DUP2 PUSH1 0x0 DUP8 GAS CALL ISZERO DUP1 ISZERO PUSH2 0xB61 JUMPI RETURNDATASIZE PUSH1 0x0 DUP1 RETURNDATACOPY RETURNDATASIZE PUSH1 0x0 REVERT JUMPDEST POP POP POP POP PUSH1 0x40 MLOAD RETURNDATASIZE PUSH1 0x1F NOT PUSH1 0x1F DUP3 ADD AND DUP3 ADD DUP1 PUSH1 0x40 MSTORE POP DUP2 ADD SWAP1 PUSH2 0xB85 SWAP2 SWAP1 PUSH2 0x1722 JUMP JUMPDEST POP POP POP JUMPDEST POP POP POP POP POP POP JUMP JUMPDEST PUSH1 0x0 DUP1 DUP4 EQ ISZERO PUSH2 0xBA4 JUMPI PUSH1 0x0 SWAP1 POP PUSH2 0xBCE JUMP JUMPDEST DUP2 DUP4 PUSH2 0xBB0 SWAP2 SWAP1 PUSH2 0x174F JUMP JUMPDEST SWAP1 POP DUP2 DUP4 DUP3 PUSH2 0xBBF SWAP2 SWAP1 PUSH2 0x17D8 JUMP JUMPDEST EQ PUSH2 0xBCD JUMPI PUSH2 0xBCC PUSH2 0x1809 JUMP JUMPDEST JUMPDEST JUMPDEST SWAP3 SWAP2 POP POP JUMP JUMPDEST PUSH1 0x0 DUP2 DUP4 PUSH2 0xBE2 SWAP2 SWAP1 PUSH2 0x17D8 JUMP JUMPDEST SWAP1 POP SWAP3 SWAP2 POP POP JUMP JUMPDEST PUSH1 0x0 PUSH20 0xFFFFFFFFFFFFFFFFFFFFFFFFFFFFFFFFFFFFFFFF DUP3 AND SWAP1 POP SWAP2 SWAP1 POP JUMP JUMPDEST PUSH1 0x0 DUP2 SWAP1 POP SWAP2 SWAP1 POP JUMP JUMPDEST PUSH1 0x0 PUSH2 0xC2F PUSH2 0xC2A PUSH2 0xC25 DUP5 PUSH2 0xBEA JUMP JUMPDEST PUSH2 0xC0A JUMP JUMPDEST PUSH2 0xBEA JUMP JUMPDEST SWAP1 POP SWAP2 SWAP1 POP JUMP JUMPDEST PUSH1 0x0 PUSH2 0xC41 DUP3 PUSH2 0xC14 JUMP JUMPDEST SWAP1 POP SWAP2 SWAP1 POP JUMP JUMPDEST PUSH1 0x0 PUSH2 0xC53 DUP3 PUSH2 0xC36 JUMP JUMPDEST SWAP1 POP SWAP2 SWAP1 POP JUMP JUMPDEST PUSH2 0xC63 DUP2 PUSH2 0xC48 JUMP JUMPDEST DUP3 MSTORE POP POP JUMP JUMPDEST PUSH1 0x0 PUSH1 0x20 DUP3 ADD SWAP1 POP PUSH2 0xC7E PUSH1 0x0 DUP4 ADD DUP5 PUSH2 0xC5A JUMP JUMPDEST SWAP3 SWAP2 POP POP JUMP JUMPDEST PUSH1 0x0 PUSH2 0xC8F DUP3 PUSH2 0xC36 JUMP JUMPDEST SWAP1 POP SWAP2 SWAP1 POP JUMP JUMPDEST PUSH2 0xC9F DUP2 PUSH2 0xC84 JUMP JUMPDEST DUP3 MSTORE POP POP JUMP JUMPDEST PUSH1 0x0 PUSH1 0x20 DUP3 ADD SWAP1 POP PUSH2 0xCBA PUSH1 0x0 DUP4 ADD DUP5 PUSH2 0xC96 JUMP JUMPDEST SWAP3 SWAP2 POP POP JUMP JUMPDEST PUSH1 0x0 PUSH2 0xCCB DUP3 PUSH2 0xBEA JUMP JUMPDEST SWAP1 POP SWAP2 SWAP1 POP JUMP JUMPDEST PUSH2 0xCDB DUP2 PUSH2 0xCC0 JUMP JUMPDEST DUP3 MSTORE POP POP JUMP JUMPDEST PUSH1 0x0 PUSH1 0x20 DUP3 ADD SWAP1 POP PUSH2 0xCF6 PUSH1 0x0 DUP4 ADD DUP5 PUSH2 0xCD2 JUMP JUMPDEST SWAP3 SWAP2 POP POP JUMP JUMPDEST PUSH1 0x0 PUSH2 0xD07 DUP3 PUSH2 0xC36 JUMP JUMPDEST SWAP1 POP SWAP2 SWAP1 POP JUMP JUMPDEST PUSH2 0xD17 DUP2 PUSH2 0xCFC JUMP JUMPDEST DUP3 MSTORE POP POP JUMP JUMPDEST PUSH1 0x0 PUSH1 0x20 DUP3 ADD SWAP1 POP PUSH2 0xD32 PUSH1 0x0 DUP4 ADD DUP5 PUSH2 0xD0E JUMP JUMPDEST SWAP3 SWAP2 POP POP JUMP JUMPDEST PUSH1 0x0 PUSH1 0x40 MLOAD SWAP1 POP SWAP1 JUMP JUMPDEST PUSH1 0x0 DUP1 REVERT JUMPDEST PUSH1 0x0 DUP1 REVERT JUMPDEST PUSH1 0x0 DUP2 ISZERO ISZERO SWAP1 POP SWAP2 SWAP1 POP JUMP JUMPDEST PUSH2 0xD61 DUP2 PUSH2 0xD4C JUMP JUMPDEST DUP2 EQ PUSH2 0xD6C JUMPI PUSH1 0x0 DUP1 REVERT JUMPDEST POP JUMP JUMPDEST PUSH1 0x0 DUP2 CALLDATALOAD SWAP1 POP PUSH2 0xD7E DUP2 PUSH2 0xD58 JUMP JUMPDEST SWAP3 SWAP2 POP POP JUMP JUMPDEST PUSH2 0xD8D DUP2 PUSH2 0xCC0 JUMP JUMPDEST DUP2 EQ PUSH2 0xD98 JUMPI PUSH1 0x0 DUP1 REVERT JUMPDEST POP JUMP JUMPDEST PUSH1 0x0 DUP2 CALLDATALOAD SWAP1 POP PUSH2 0xDAA DUP2 PUSH2 0xD84 JUMP JUMPDEST SWAP3 SWAP2 POP POP JUMP JUMPDEST PUSH1 0x0 DUP2 SWAP1 POP SWAP2 SWAP1 POP JUMP JUMPDEST PUSH2 0xDC3 DUP2 PUSH2 0xDB0 JUMP JUMPDEST DUP2 EQ PUSH2 0xDCE JUMPI PUSH1 0x0 DUP1 REVERT JUMPDEST POP JUMP JUMPDEST PUSH1 0x0 DUP2 CALLDATALOAD SWAP1 POP PUSH2 0xDE0 DUP2 PUSH2 0xDBA JUMP JUMPDEST SWAP3 SWAP2 POP POP JUMP JUMPDEST PUSH1 0x0 DUP1 PUSH1 0x0 DUP1 PUSH1 0x0 PUSH1 0xA0 DUP7 DUP9 SUB SLT ISZERO PUSH2 0xE02 JUMPI PUSH2 0xE01 PUSH2 0xD42 JUMP JUMPDEST JUMPDEST PUSH1 0x0 PUSH2 0xE10 DUP9 DUP3 DUP10 ADD PUSH2 0xD6F JUMP JUMPDEST SWAP6 POP POP PUSH1 0x20 PUSH2 0xE21 DUP9 DUP3 DUP10 ADD PUSH2 0xD9B JUMP JUMPDEST SWAP5 POP POP PUSH1 0x40 PUSH2 0xE32 DUP9 DUP3 DUP10 ADD PUSH2 0xD9B JUMP JUMPDEST SWAP4 POP POP PUSH1 0x60 PUSH2 0xE43 DUP9 DUP3 DUP10 ADD PUSH2 0xDD1 JUMP JUMPDEST SWAP3 POP POP PUSH1 0x80 PUSH2 0xE54 DUP9 DUP3 DUP10 ADD PUSH2 0xDD1 JUMP JUMPDEST SWAP2 POP POP SWAP3 SWAP6 POP SWAP3 SWAP6 SWAP1 SWAP4 POP JUMP JUMPDEST PUSH2 0xE6A DUP2 PUSH2 0xDB0 JUMP JUMPDEST DUP3 MSTORE POP POP JUMP JUMPDEST PUSH1 0x0 PUSH1 0x60 DUP3 ADD SWAP1 POP PUSH2 0xE85 PUSH1 0x0 DUP4 ADD DUP7 PUSH2 0xCD2 JUMP JUMPDEST PUSH2 0xE92 PUSH1 0x20 DUP4 ADD DUP6 PUSH2 0xCD2 JUMP JUMPDEST PUSH2 0xE9F PUSH1 0x40 DUP4 ADD DUP5 PUSH2 0xE61 JUMP JUMPDEST SWAP5 SWAP4 POP POP POP POP JUMP JUMPDEST PUSH1 0x0 DUP2 MLOAD SWAP1 POP PUSH2 0xEB6 DUP2 PUSH2 0xD58 JUMP JUMPDEST SWAP3 SWAP2 POP POP JUMP JUMPDEST PUSH1 0x0 PUSH1 0x20 DUP3 DUP5 SUB SLT ISZERO PUSH2 0xED2 JUMPI PUSH2 0xED1 PUSH2 0xD42 JUMP JUMPDEST JUMPDEST PUSH1 0x0 PUSH2 0xEE0 DUP5 DUP3 DUP6 ADD PUSH2 0xEA7 JUMP JUMPDEST SWAP2 POP POP SWAP3 SWAP2 POP POP JUMP JUMPDEST PUSH1 0x0 DUP3 DUP3 MSTORE PUSH1 0x20 DUP3 ADD SWAP1 POP SWAP3 SWAP2 POP POP JUMP JUMPDEST PUSH32 0x546F6B656E207472616E736665722066726F6D2077616C6C657420746F20636F PUSH1 0x0 DUP3 ADD MSTORE PUSH32 0x6E7472616374206661696C65642064756520746F20756E2D617070726F76616C PUSH1 0x20 DUP3 ADD MSTORE POP JUMP JUMPDEST PUSH1 0x0 PUSH2 0xF56 PUSH1 0x40 DUP4 PUSH2 0xEE9 JUMP JUMPDEST SWAP2 POP PUSH2 0xF61 DUP3 PUSH2 0xEFA JUMP JUMPDEST PUSH1 0x40 DUP3 ADD SWAP1 POP SWAP2 SWAP1 POP JUMP JUMPDEST PUSH1 0x0 PUSH1 0x20 DUP3 ADD SWAP1 POP DUP2 DUP2 SUB PUSH1 0x0 DUP4 ADD MSTORE PUSH2 0xF85 DUP2 PUSH2 0xF49 JUMP JUMPDEST SWAP1 POP SWAP2 SWAP1 POP JUMP JUMPDEST PUSH32 0x4E487B7100000000000000000000000000000000000000000000000000000000 PUSH1 0x0 MSTORE PUSH1 0x41 PUSH1 0x4 MSTORE PUSH1 0x24 PUSH1 0x0 REVERT JUMPDEST PUSH32 0x4E487B7100000000000000000000000000000000000000000000000000000000 PUSH1 0x0 MSTORE PUSH1 0x32 PUSH1 0x4 MSTORE PUSH1 0x24 PUSH1 0x0 REVERT JUMPDEST PUSH1 0x0 PUSH1 0x40 DUP3 ADD SWAP1 POP PUSH2 0xFFF PUSH1 0x0 DUP4 ADD DUP6 PUSH2 0xCD2 JUMP JUMPDEST PUSH2 0x100C PUSH1 0x20 DUP4 ADD DUP5 PUSH2 0xE61 JUMP JUMPDEST SWAP4 SWAP3 POP POP POP JUMP JUMPDEST PUSH32 0x556E6973776170563220617070726F76616C206661696C65642E000000000000 PUSH1 0x0 DUP3 ADD MSTORE POP JUMP JUMPDEST PUSH1 0x0 PUSH2 0x1049 PUSH1 0x1A DUP4 PUSH2 0xEE9 JUMP JUMPDEST SWAP2 POP PUSH2 0x1054 DUP3 PUSH2 0x1013 JUMP JUMPDEST PUSH1 0x20 DUP3 ADD SWAP1 POP SWAP2 SWAP1 POP JUMP JUMPDEST PUSH1 0x0 PUSH1 0x20 DUP3 ADD SWAP1 POP DUP2 DUP2 SUB PUSH1 0x0 DUP4 ADD MSTORE PUSH2 0x1078 DUP2 PUSH2 0x103C JUMP JUMPDEST SWAP1 POP SWAP2 SWAP1 POP JUMP JUMPDEST PUSH1 0x0 DUP2 MLOAD SWAP1 POP SWAP2 SWAP1 POP JUMP JUMPDEST PUSH1 0x0 DUP3 DUP3 MSTORE PUSH1 0x20 DUP3 ADD SWAP1 POP SWAP3 SWAP2 POP POP JUMP JUMPDEST PUSH1 0x0 DUP2 SWAP1 POP PUSH1 0x20 DUP3 ADD SWAP1 POP SWAP2 SWAP1 POP JUMP JUMPDEST PUSH2 0x10B4 DUP2 PUSH2 0xCC0 JUMP JUMPDEST DUP3 MSTORE POP POP JUMP JUMPDEST PUSH1 0x0 PUSH2 0x10C6 DUP4 DUP4 PUSH2 0x10AB JUMP JUMPDEST PUSH1 0x20 DUP4 ADD SWAP1 POP SWAP3 SWAP2 POP POP JUMP JUMPDEST PUSH1 0x0 PUSH1 0x20 DUP3 ADD SWAP1 POP SWAP2 SWAP1 POP JUMP JUMPDEST PUSH1 0x0 PUSH2 0x10EA DUP3 PUSH2 0x107F JUMP JUMPDEST PUSH2 0x10F4 DUP2 DUP6 PUSH2 0x108A JUMP JUMPDEST SWAP4 POP PUSH2 0x10FF DUP4 PUSH2 0x109B JUMP JUMPDEST DUP1 PUSH1 0x0 JUMPDEST DUP4 DUP2 LT ISZERO PUSH2 0x1130 JUMPI DUP2 MLOAD PUSH2 0x1117 DUP9 DUP3 PUSH2 0x10BA JUMP JUMPDEST SWAP8 POP PUSH2 0x1122 DUP4 PUSH2 0x10D2 JUMP JUMPDEST SWAP3 POP POP PUSH1 0x1 DUP2 ADD SWAP1 POP PUSH2 0x1103 JUMP JUMPDEST POP DUP6 SWAP4 POP POP POP POP SWAP3 SWAP2 POP POP JUMP JUMPDEST PUSH1 0x0 PUSH1 0x40 DUP3 ADD SWAP1 POP PUSH2 0x1152 PUSH1 0x0 DUP4 ADD DUP6 PUSH2 0xE61 JUMP JUMPDEST DUP2 DUP2 SUB PUSH1 0x20 DUP4 ADD MSTORE PUSH2 0x1164 DUP2 DUP5 PUSH2 0x10DF JUMP JUMPDEST SWAP1 POP SWAP4 SWAP3 POP POP POP JUMP JUMPDEST PUSH1 0x0 DUP1 REVERT JUMPDEST PUSH1 0x0 PUSH1 0x1F NOT PUSH1 0x1F DUP4 ADD AND SWAP1 POP SWAP2 SWAP1 POP JUMP JUMPDEST PUSH2 0x118C DUP3 PUSH2 0x1172 JUMP JUMPDEST DUP2 ADD DUP2 DUP2 LT PUSH8 0xFFFFFFFFFFFFFFFF DUP3 GT OR ISZERO PUSH2 0x11AB JUMPI PUSH2 0x11AA PUSH2 0xF8C JUMP JUMPDEST JUMPDEST DUP1 PUSH1 0x40 MSTORE POP POP POP JUMP JUMPDEST PUSH1 0x0 PUSH2 0x11BE PUSH2 0xD38 JUMP JUMPDEST SWAP1 POP PUSH2 0x11CA DUP3 DUP3 PUSH2 0x1183 JUMP JUMPDEST SWAP2 SWAP1 POP JUMP JUMPDEST PUSH1 0x0 PUSH8 0xFFFFFFFFFFFFFFFF DUP3 GT ISZERO PUSH2 0x11EA JUMPI PUSH2 0x11E9 PUSH2 0xF8C JUMP JUMPDEST JUMPDEST PUSH1 0x20 DUP3 MUL SWAP1 POP PUSH1 0x20 DUP2 ADD SWAP1 POP SWAP2 SWAP1 POP JUMP JUMPDEST PUSH1 0x0 DUP1 REVERT JUMPDEST PUSH1 0x0 DUP2 MLOAD SWAP1 POP PUSH2 0x120F DUP2 PUSH2 0xDBA JUMP JUMPDEST SWAP3 SWAP2 POP POP JUMP JUMPDEST PUSH1 0x0 PUSH2 0x1228 PUSH2 0x1223 DUP5 PUSH2 0x11CF JUMP JUMPDEST PUSH2 0x11B4 JUMP JUMPDEST SWAP1 POP DUP1 DUP4 DUP3 MSTORE PUSH1 0x20 DUP3 ADD SWAP1 POP PUSH1 0x20 DUP5 MUL DUP4 ADD DUP6 DUP2 GT ISZERO PUSH2 0x124B JUMPI PUSH2 0x124A PUSH2 0x11FB JUMP JUMPDEST JUMPDEST DUP4 JUMPDEST DUP2 DUP2 LT ISZERO PUSH2 0x1274 JUMPI DUP1 PUSH2 0x1260 DUP9 DUP3 PUSH2 0x1200 JUMP JUMPDEST DUP5 MSTORE PUSH1 0x20 DUP5 ADD SWAP4 POP POP PUSH1 0x20 DUP2 ADD SWAP1 POP PUSH2 0x124D JUMP JUMPDEST POP POP POP SWAP4 SWAP3 POP POP POP JUMP JUMPDEST PUSH1 0x0 DUP3 PUSH1 0x1F DUP4 ADD SLT PUSH2 0x1293 JUMPI PUSH2 0x1292 PUSH2 0x116D JUMP JUMPDEST JUMPDEST DUP2 MLOAD PUSH2 0x12A3 DUP5 DUP3 PUSH1 0x20 DUP7 ADD PUSH2 0x1215 JUMP JUMPDEST SWAP2 POP POP SWAP3 SWAP2 POP POP JUMP JUMPDEST PUSH1 0x0 PUSH1 0x20 DUP3 DUP5 SUB SLT ISZERO PUSH2 0x12C2 JUMPI PUSH2 0x12C1 PUSH2 0xD42 JUMP JUMPDEST JUMPDEST PUSH1 0x0 DUP3 ADD MLOAD PUSH8 0xFFFFFFFFFFFFFFFF DUP2 GT ISZERO PUSH2 0x12E0 JUMPI PUSH2 0x12DF PUSH2 0xD47 JUMP JUMPDEST JUMPDEST PUSH2 0x12EC DUP5 DUP3 DUP6 ADD PUSH2 0x127E JUMP JUMPDEST SWAP2 POP POP SWAP3 SWAP2 POP POP JUMP JUMPDEST PUSH32 0x4E487B7100000000000000000000000000000000000000000000000000000000 PUSH1 0x0 MSTORE PUSH1 0x11 PUSH1 0x4 MSTORE PUSH1 0x24 PUSH1 0x0 REVERT JUMPDEST PUSH1 0x0 PUSH2 0x132F DUP3 PUSH2 0xDB0 JUMP JUMPDEST SWAP2 POP PUSH2 0x133A DUP4 PUSH2 0xDB0 JUMP JUMPDEST SWAP3 POP DUP3 DUP3 LT ISZERO PUSH2 0x134D JUMPI PUSH2 0x134C PUSH2 0x12F5 JUMP JUMPDEST JUMPDEST DUP3 DUP3 SUB SWAP1 POP SWAP3 SWAP2 POP POP JUMP JUMPDEST PUSH1 0x0 PUSH1 0xA0 DUP3 ADD SWAP1 POP PUSH2 0x136D PUSH1 0x0 DUP4 ADD DUP9 PUSH2 0xE61 JUMP JUMPDEST PUSH2 0x137A PUSH1 0x20 DUP4 ADD DUP8 PUSH2 0xE61 JUMP JUMPDEST DUP2 DUP2 SUB PUSH1 0x40 DUP4 ADD MSTORE PUSH2 0x138C DUP2 DUP7 PUSH2 0x10DF JUMP JUMPDEST SWAP1 POP PUSH2 0x139B PUSH1 0x60 DUP4 ADD DUP6 PUSH2 0xCD2 JUMP JUMPDEST PUSH2 0x13A8 PUSH1 0x80 DUP4 ADD DUP5 PUSH2 0xE61 JUMP JUMPDEST SWAP7 SWAP6 POP POP POP POP POP POP JUMP JUMPDEST PUSH32 0x556E6973776170563320617070726F76616C206661696C65642E000000000000 PUSH1 0x0 DUP3 ADD MSTORE POP JUMP JUMPDEST PUSH1 0x0 PUSH2 0x13E8 PUSH1 0x1A DUP4 PUSH2 0xEE9 JUMP JUMPDEST SWAP2 POP PUSH2 0x13F3 DUP3 PUSH2 0x13B2 JUMP JUMPDEST PUSH1 0x20 DUP3 ADD SWAP1 POP SWAP2 SWAP1 POP JUMP JUMPDEST PUSH1 0x0 PUSH1 0x20 DUP3 ADD SWAP1 POP DUP2 DUP2 SUB PUSH1 0x0 DUP4 ADD MSTORE PUSH2 0x1417 DUP2 PUSH2 0x13DB JUMP JUMPDEST SWAP1 POP SWAP2 SWAP1 POP JUMP JUMPDEST PUSH1 0x0 DUP2 SWAP1 POP SWAP2 SWAP1 POP JUMP JUMPDEST PUSH1 0x0 PUSH3 0xFFFFFF DUP3 AND SWAP1 POP SWAP2 SWAP1 POP JUMP JUMPDEST PUSH1 0x0 PUSH2 0x1452 PUSH2 0x144D PUSH2 0x1448 DUP5 PUSH2 0x141E JUMP JUMPDEST PUSH2 0xC0A JUMP JUMPDEST PUSH2 0x1428 JUMP JUMPDEST SWAP1 POP SWAP2 SWAP1 POP JUMP JUMPDEST PUSH2 0x1462 DUP2 PUSH2 0x1437 JUMP JUMPDEST DUP3 MSTORE POP POP JUMP JUMPDEST PUSH1 0x0 PUSH1 0x60 DUP3 ADD SWAP1 POP PUSH2 0x147D PUSH1 0x0 DUP4 ADD DUP7 PUSH2 0xCD2 JUMP JUMPDEST PUSH2 0x148A PUSH1 0x20 DUP4 ADD DUP6 PUSH2 0xCD2 JUMP JUMPDEST PUSH2 0x1497 PUSH1 0x40 DUP4 ADD DUP5 PUSH2 0x1459 JUMP JUMPDEST SWAP5 SWAP4 POP POP POP POP JUMP JUMPDEST PUSH1 0x0 DUP2 MLOAD SWAP1 POP PUSH2 0x14AE DUP2 PUSH2 0xD84 JUMP JUMPDEST SWAP3 SWAP2 POP POP JUMP JUMPDEST PUSH1 0x0 PUSH1 0x20 DUP3 DUP5 SUB SLT ISZERO PUSH2 0x14CA JUMPI PUSH2 0x14C9 PUSH2 0xD42 JUMP JUMPDEST JUMPDEST PUSH1 0x0 PUSH2 0x14D8 DUP5 DUP3 DUP6 ADD PUSH2 0x149F JUMP JUMPDEST SWAP2 POP POP SWAP3 SWAP2 POP POP JUMP JUMPDEST PUSH1 0x0 DUP2 SWAP1 POP SWAP2 SWAP1 POP JUMP JUMPDEST PUSH1 0x0 PUSH2 0x1506 PUSH2 0x1501 PUSH2 0x14FC DUP5 PUSH2 0x14E1 JUMP JUMPDEST PUSH2 0xC0A JUMP JUMPDEST PUSH2 0x1428 JUMP JUMPDEST SWAP1 POP SWAP2 SWAP1 POP JUMP JUMPDEST PUSH2 0x1516 DUP2 PUSH2 0x14EB JUMP JUMPDEST DUP3 MSTORE POP POP JUMP JUMPDEST PUSH1 0x0 PUSH1 0x60 DUP3 ADD SWAP1 POP PUSH2 0x1531 PUSH1 0x0 DUP4 ADD DUP7 PUSH2 0xCD2 JUMP JUMPDEST PUSH2 0x153E PUSH1 0x20 DUP4 ADD DUP6 PUSH2 0xCD2 JUMP JUMPDEST PUSH2 0x154B PUSH1 0x40 DUP4 ADD DUP5 PUSH2 0x150D JUMP JUMPDEST SWAP5 SWAP4 POP POP POP POP JUMP JUMPDEST PUSH1 0x0 DUP2 SWAP1 POP SWAP2 SWAP1 POP JUMP JUMPDEST PUSH1 0x0 PUSH2 0x1578 PUSH2 0x1573 PUSH2 0x156E DUP5 PUSH2 0x1553 JUMP JUMPDEST PUSH2 0xC0A JUMP JUMPDEST PUSH2 0x1428 JUMP JUMPDEST SWAP1 POP SWAP2 SWAP1 POP JUMP JUMPDEST PUSH2 0x1588 DUP2 PUSH2 0x155D JUMP JUMPDEST DUP3 MSTORE POP POP JUMP JUMPDEST PUSH1 0x0 PUSH1 0x60 DUP3 ADD SWAP1 POP PUSH2 0x15A3 PUSH1 0x0 DUP4 ADD DUP7 PUSH2 0xCD2 JUMP JUMPDEST PUSH2 0x15B0 PUSH1 0x20 DUP4 ADD DUP6 PUSH2 0xCD2 JUMP JUMPDEST PUSH2 0x15BD PUSH1 0x40 DUP4 ADD DUP5 PUSH2 0x157F JUMP JUMPDEST SWAP5 SWAP4 POP POP POP POP JUMP JUMPDEST PUSH1 0x0 DUP2 SWAP1 POP SWAP2 SWAP1 POP JUMP JUMPDEST PUSH1 0x0 PUSH2 0x15EA PUSH2 0x15E5 PUSH2 0x15E0 DUP5 PUSH2 0x15C5 JUMP JUMPDEST PUSH2 0xC0A JUMP JUMPDEST PUSH2 0x1428 JUMP JUMPDEST SWAP1 POP SWAP2 SWAP1 POP JUMP JUMPDEST PUSH2 0x15FA DUP2 PUSH2 0x15CF JUMP JUMPDEST DUP3 MSTORE POP POP JUMP JUMPDEST PUSH1 0x0 PUSH1 0x60 DUP3 ADD SWAP1 POP PUSH2 0x1615 PUSH1 0x0 DUP4 ADD DUP7 PUSH2 0xCD2 JUMP JUMPDEST PUSH2 0x1622 PUSH1 0x20 DUP4 ADD DUP6 PUSH2 0xCD2 JUMP JUMPDEST PUSH2 0x162F PUSH1 0x40 DUP4 ADD DUP5 PUSH2 0x15F1 JUMP JUMPDEST SWAP5 SWAP4 POP POP POP POP JUMP JUMPDEST PUSH2 0x1640 DUP2 PUSH2 0x1428 JUMP JUMPDEST DUP3 MSTORE POP POP JUMP JUMPDEST PUSH2 0x164F DUP2 PUSH2 0xDB0 JUMP JUMPDEST DUP3 MSTORE POP POP JUMP JUMPDEST PUSH2 0x165E DUP2 PUSH2 0xBEA JUMP JUMPDEST DUP3 MSTORE POP POP JUMP JUMPDEST PUSH2 0x100 DUP3 ADD PUSH1 0x0 DUP3 ADD MLOAD PUSH2 0x167B PUSH1 0x0 DUP6 ADD DUP3 PUSH2 0x10AB JUMP JUMPDEST POP PUSH1 0x20 DUP3 ADD MLOAD PUSH2 0x168E PUSH1 0x20 DUP6 ADD DUP3 PUSH2 0x10AB JUMP JUMPDEST POP PUSH1 0x40 DUP3 ADD MLOAD PUSH2 0x16A1 PUSH1 0x40 DUP6 ADD DUP3 PUSH2 0x1637 JUMP JUMPDEST POP PUSH1 0x60 DUP3 ADD MLOAD PUSH2 0x16B4 PUSH1 0x60 DUP6 ADD DUP3 PUSH2 0x10AB JUMP JUMPDEST POP PUSH1 0x80 DUP3 ADD MLOAD PUSH2 0x16C7 PUSH1 0x80 DUP6 ADD DUP3 PUSH2 0x1646 JUMP JUMPDEST POP PUSH1 0xA0 DUP3 ADD MLOAD PUSH2 0x16DA PUSH1 0xA0 DUP6 ADD DUP3 PUSH2 0x1646 JUMP JUMPDEST POP PUSH1 0xC0 DUP3 ADD MLOAD PUSH2 0x16ED PUSH1 0xC0 DUP6 ADD DUP3 PUSH2 0x1646 JUMP JUMPDEST POP PUSH1 0xE0 DUP3 ADD MLOAD PUSH2 0x1700 PUSH1 0xE0 DUP6 ADD DUP3 PUSH2 0x1655 JUMP JUMPDEST POP POP POP POP JUMP JUMPDEST PUSH1 0x0 PUSH2 0x100 DUP3 ADD SWAP1 POP PUSH2 0x171C PUSH1 0x0 DUP4 ADD DUP5 PUSH2 0x1664 JUMP JUMPDEST SWAP3 SWAP2 POP POP JUMP JUMPDEST PUSH1 0x0 PUSH1 0x20 DUP3 DUP5 SUB SLT ISZERO PUSH2 0x1738 JUMPI PUSH2 0x1737 PUSH2 0xD42 JUMP JUMPDEST JUMPDEST PUSH1 0x0 PUSH2 0x1746 DUP5 DUP3 DUP6 ADD PUSH2 0x1200 JUMP JUMPDEST SWAP2 POP POP SWAP3 SWAP2 POP POP JUMP JUMPDEST PUSH1 0x0 PUSH2 0x175A DUP3 PUSH2 0xDB0 JUMP JUMPDEST SWAP2 POP PUSH2 0x1765 DUP4 PUSH2 0xDB0 JUMP JUMPDEST SWAP3 POP DUP2 PUSH32 0xFFFFFFFFFFFFFFFFFFFFFFFFFFFFFFFFFFFFFFFFFFFFFFFFFFFFFFFFFFFFFFFF DIV DUP4 GT DUP3 ISZERO ISZERO AND ISZERO PUSH2 0x179E JUMPI PUSH2 0x179D PUSH2 0x12F5 JUMP JUMPDEST JUMPDEST DUP3 DUP3 MUL SWAP1 POP SWAP3 SWAP2 POP POP JUMP JUMPDEST PUSH32 0x4E487B7100000000000000000000000000000000000000000000000000000000 PUSH1 0x0 MSTORE PUSH1 0x12 PUSH1 0x4 MSTORE PUSH1 0x24 PUSH1 0x0 REVERT JUMPDEST PUSH1 0x0 PUSH2 0x17E3 DUP3 PUSH2 0xDB0 JUMP JUMPDEST SWAP2 POP PUSH2 0x17EE DUP4 PUSH2 0xDB0 JUMP JUMPDEST SWAP3 POP DUP3 PUSH2 0x17FE JUMPI PUSH2 0x17FD PUSH2 0x17A9 JUMP JUMPDEST JUMPDEST DUP3 DUP3 DIV SWAP1 POP SWAP3 SWAP2 POP POP JUMP JUMPDEST PUSH32 0x4E487B7100000000000000000000000000000000000000000000000000000000 PUSH1 0x0 MSTORE PUSH1 0x1 PUSH1 0x4 MSTORE PUSH1 0x24 PUSH1 0x0 REVERT INVALID LOG2 PUSH5 0x6970667358 0x22 SLT KECCAK256 0xF6 STOP 0xC9 0x26 SWAP3 0xD3 CREATE2 DIV 0x27 0xAA 0xB8 SUB POP NOT 0xC3 0xB8 0xAC PUSH29 0x18CFD36FE35A135362BC686CA22964736F6C634300080A003300000000 "
				},
				"gasEstimates": {
					"creation": {
						"codeDepositCost": "1250800",
						"executionCost": "177575",
						"totalCost": "1428375"
					},
					"external": {
						"executeTrade(bool,address,address,uint256,uint256)": "infinite",
						"owner()": "2536",
						"uFactoryV3()": "infinite",
						"uRouterV2()": "infinite",
						"uRouterV3()": "infinite"
					}
				},
				"methodIdentifiers": {
					"executeTrade(bool,address,address,uint256,uint256)": "f625288e",
					"owner()": "8da5cb5b",
					"uFactoryV3()": "323a415a",
					"uRouterV2()": "3327906a",
					"uRouterV3()": "93c820a1"
				}
			},
			"storageLayout": {
				"storage": [
					{
						"astId": 10,
						"contract": "contracts/Copy_Swap.sol:SwapV2",
						"label": "uFactoryV3Address",
						"offset": 0,
						"slot": "0",
						"type": "t_address"
					},
					{
						"astId": 16,
						"contract": "contracts/Copy_Swap.sol:SwapV2",
						"label": "uFactoryV3",
						"offset": 0,
						"slot": "1",
						"type": "t_contract(IUniswapV3Factory)993"
					},
					{
						"astId": 19,
						"contract": "contracts/Copy_Swap.sol:SwapV2",
						"label": "uRouterV2Address",
						"offset": 0,
						"slot": "2",
						"type": "t_address"
					},
					{
						"astId": 25,
						"contract": "contracts/Copy_Swap.sol:SwapV2",
						"label": "uRouterV2",
						"offset": 0,
						"slot": "3",
						"type": "t_contract(IUniswapV2Router02)810"
					},
					{
						"astId": 28,
						"contract": "contracts/Copy_Swap.sol:SwapV2",
						"label": "uRouterV3Address",
						"offset": 0,
						"slot": "4",
						"type": "t_address"
					},
					{
						"astId": 34,
						"contract": "contracts/Copy_Swap.sol:SwapV2",
						"label": "uRouterV3",
						"offset": 0,
						"slot": "5",
						"type": "t_contract(ISwapRouter)910"
					},
					{
						"astId": 36,
						"contract": "contracts/Copy_Swap.sol:SwapV2",
						"label": "owner",
						"offset": 0,
						"slot": "6",
						"type": "t_address"
					}
				],
				"types": {
					"t_address": {
						"encoding": "inplace",
						"label": "address",
						"numberOfBytes": "20"
					},
					"t_contract(ISwapRouter)910": {
						"encoding": "inplace",
						"label": "contract ISwapRouter",
						"numberOfBytes": "20"
					},
					"t_contract(IUniswapV2Router02)810": {
						"encoding": "inplace",
						"label": "contract IUniswapV2Router02",
						"numberOfBytes": "20"
					},
					"t_contract(IUniswapV3Factory)993": {
						"encoding": "inplace",
						"label": "contract IUniswapV3Factory",
						"numberOfBytes": "20"
					}
				}
			},
			"userdoc": {
				"kind": "user",
				"methods": {
					"executeTrade(bool,address,address,uint256,uint256)": {
						"notice": "Swaps a fixed amount of WETH for a maximum possible amount of DAI"
					}
				},
				"version": 1
			}
		}
	}
}